{"abi":[{"type":"constructor","inputs":[],"stateMutability":"nonpayable"},{"type":"function","name":"BPS_TOTAL","inputs":[],"outputs":[{"name":"","type":"uint256","internalType":"uint256"}],"stateMutability":"view"},{"type":"function","name":"addOperator","inputs":[{"name":"op","type":"address","internalType":"address"}],"outputs":[],"stateMutability":"nonpayable"},{"type":"function","name":"claimPrize","inputs":[{"name":"gameId","type":"uint256","internalType":"uint256"}],"outputs":[],"stateMutability":"nonpayable"},{"type":"function","name":"claimRefund","inputs":[{"name":"gameId","type":"uint256","internalType":"uint256"}],"outputs":[],"stateMutability":"nonpayable"},{"type":"function","name":"createGame","inputs":[{"name":"params","type":"tuple","internalType":"struct IChainAssassin.CreateGameParams","components":[{"name":"title","type":"string","internalType":"string"},{"name":"entryFee","type":"uint128","internalType":"uint128"},{"name":"minPlayers","type":"uint16","internalType":"uint16"},{"name":"maxPlayers","type":"uint16","internalType":"uint16"},{"name":"registrationDeadline","type":"uint40","internalType":"uint40"},{"name":"expiryDeadline","type":"uint40","internalType":"uint40"},{"name":"centerLat","type":"int32","internalType":"int32"},{"name":"centerLng","type":"int32","internalType":"int32"},{"name":"bps1st","type":"uint16","internalType":"uint16"},{"name":"bps2nd","type":"uint16","internalType":"uint16"},{"name":"bps3rd","type":"uint16","internalType":"uint16"},{"name":"bpsKills","type":"uint16","internalType":"uint16"},{"name":"bpsPlatform","type":"uint16","internalType":"uint16"}]},{"name":"shrinks","type":"tuple[]","internalType":"struct IChainAssassin.ZoneShrink[]","components":[{"name":"atSecond","type":"uint32","internalType":"uint32"},{"name":"radiusMeters","type":"uint32","internalType":"uint32"}]}],"outputs":[{"name":"gameId","type":"uint256","internalType":"uint256"}],"stateMutability":"nonpayable"},{"type":"function","name":"eliminatePlayer","inputs":[{"name":"gameId","type":"uint256","internalType":"uint256"},{"name":"player","type":"address","internalType":"address"}],"outputs":[],"stateMutability":"nonpayable"},{"type":"function","name":"endGame","inputs":[{"name":"gameId","type":"uint256","internalType":"uint256"},{"name":"winner1","type":"address","internalType":"address"},{"name":"winner2","type":"address","internalType":"address"},{"name":"winner3","type":"address","internalType":"address"},{"name":"topKiller","type":"address","internalType":"address"}],"outputs":[],"stateMutability":"nonpayable"},{"type":"function","name":"getClaimableAmount","inputs":[{"name":"gameId","type":"uint256","internalType":"uint256"},{"name":"player","type":"address","internalType":"address"}],"outputs":[{"name":"","type":"uint256","internalType":"uint256"}],"stateMutability":"view"},{"type":"function","name":"getGameConfig","inputs":[{"name":"gameId","type":"uint256","internalType":"uint256"}],"outputs":[{"name":"","type":"tuple","internalType":"struct IChainAssassin.GameConfig","components":[{"name":"title","type":"string","internalType":"string"},{"name":"entryFee","type":"uint128","internalType":"uint128"},{"name":"minPlayers","type":"uint16","internalType":"uint16"},{"name":"maxPlayers","type":"uint16","internalType":"uint16"},{"name":"registrationDeadline","type":"uint40","internalType":"uint40"},{"name":"expiryDeadline","type":"uint40","internalType":"uint40"},{"name":"createdAt","type":"uint40","internalType":"uint40"},{"name":"creator","type":"address","internalType":"address"},{"name":"centerLat","type":"int32","internalType":"int32"},{"name":"centerLng","type":"int32","internalType":"int32"},{"name":"bps1st","type":"uint16","internalType":"uint16"},{"name":"bps2nd","type":"uint16","internalType":"uint16"},{"name":"bps3rd","type":"uint16","internalType":"uint16"},{"name":"bpsKills","type":"uint16","internalType":"uint16"},{"name":"bpsPlatform","type":"uint16","internalType":"uint16"}]}],"stateMutability":"view"},{"type":"function","name":"getGameState","inputs":[{"name":"gameId","type":"uint256","internalType":"uint256"}],"outputs":[{"name":"","type":"tuple","internalType":"struct IChainAssassin.GameState","components":[{"name":"phase","type":"uint8","internalType":"enum IChainAssassin.GamePhase"},{"name":"playerCount","type":"uint16","internalType":"uint16"},{"name":"totalCollected","type":"uint128","internalType":"uint128"},{"name":"winner1","type":"address","internalType":"address"},{"name":"winner2","type":"address","internalType":"address"},{"name":"winner3","type":"address","internalType":"address"},{"name":"topKiller","type":"address","internalType":"address"}]}],"stateMutability":"view"},{"type":"function","name":"getPlayerInfo","inputs":[{"name":"gameId","type":"uint256","internalType":"uint256"},{"name":"player","type":"address","internalType":"address"}],"outputs":[{"name":"registered","type":"bool","internalType":"bool"},{"name":"alive","type":"bool","internalType":"bool"},{"name":"kills","type":"uint16","internalType":"uint16"},{"name":"claimed","type":"bool","internalType":"bool"}],"stateMutability":"view"},{"type":"function","name":"getZoneShrinks","inputs":[{"name":"gameId","type":"uint256","internalType":"uint256"}],"outputs":[{"name":"","type":"tuple[]","internalType":"struct IChainAssassin.ZoneShrink[]","components":[{"name":"atSecond","type":"uint32","internalType":"uint32"},{"name":"radiusMeters","type":"uint32","internalType":"uint32"}]}],"stateMutability":"view"},{"type":"function","name":"hasClaimed","inputs":[{"name":"","type":"uint256","internalType":"uint256"},{"name":"","type":"address","internalType":"address"}],"outputs":[{"name":"","type":"bool","internalType":"bool"}],"stateMutability":"view"},{"type":"function","name":"isAlive","inputs":[{"name":"","type":"uint256","internalType":"uint256"},{"name":"","type":"address","internalType":"address"}],"outputs":[{"name":"","type":"bool","internalType":"bool"}],"stateMutability":"view"},{"type":"function","name":"isOperator","inputs":[{"name":"","type":"address","internalType":"address"}],"outputs":[{"name":"","type":"bool","internalType":"bool"}],"stateMutability":"view"},{"type":"function","name":"isRegistered","inputs":[{"name":"","type":"uint256","internalType":"uint256"},{"name":"","type":"address","internalType":"address"}],"outputs":[{"name":"","type":"bool","internalType":"bool"}],"stateMutability":"view"},{"type":"function","name":"killCount","inputs":[{"name":"","type":"uint256","internalType":"uint256"},{"name":"","type":"address","internalType":"address"}],"outputs":[{"name":"","type":"uint16","internalType":"uint16"}],"stateMutability":"view"},{"type":"function","name":"nextGameId","inputs":[],"outputs":[{"name":"","type":"uint256","internalType":"uint256"}],"stateMutability":"view"},{"type":"function","name":"owner","inputs":[],"outputs":[{"name":"","type":"address","internalType":"address"}],"stateMutability":"view"},{"type":"function","name":"platformFeesAccrued","inputs":[],"outputs":[{"name":"","type":"uint256","internalType":"uint256"}],"stateMutability":"view"},{"type":"function","name":"recordKill","inputs":[{"name":"gameId","type":"uint256","internalType":"uint256"},{"name":"hunter","type":"address","internalType":"address"},{"name":"target","type":"address","internalType":"address"}],"outputs":[],"stateMutability":"nonpayable"},{"type":"function","name":"register","inputs":[{"name":"gameId","type":"uint256","internalType":"uint256"}],"outputs":[],"stateMutability":"payable"},{"type":"function","name":"removeOperator","inputs":[{"name":"op","type":"address","internalType":"address"}],"outputs":[],"stateMutability":"nonpayable"},{"type":"function","name":"renounceOwnership","inputs":[],"outputs":[],"stateMutability":"nonpayable"},{"type":"function","name":"startGame","inputs":[{"name":"gameId","type":"uint256","internalType":"uint256"}],"outputs":[],"stateMutability":"nonpayable"},{"type":"function","name":"transferOwnership","inputs":[{"name":"newOwner","type":"address","internalType":"address"}],"outputs":[],"stateMutability":"nonpayable"},{"type":"function","name":"triggerCancellation","inputs":[{"name":"gameId","type":"uint256","internalType":"uint256"}],"outputs":[],"stateMutability":"nonpayable"},{"type":"function","name":"triggerExpiry","inputs":[{"name":"gameId","type":"uint256","internalType":"uint256"}],"outputs":[],"stateMutability":"nonpayable"},{"type":"function","name":"withdrawPlatformFees","inputs":[{"name":"to","type":"address","internalType":"address"}],"outputs":[],"stateMutability":"nonpayable"},{"type":"event","name":"GameCancelled","inputs":[{"name":"gameId","type":"uint256","indexed":true,"internalType":"uint256"}],"anonymous":false},{"type":"event","name":"GameCreated","inputs":[{"name":"gameId","type":"uint256","indexed":true,"internalType":"uint256"},{"name":"title","type":"string","indexed":false,"internalType":"string"},{"name":"entryFee","type":"uint128","indexed":false,"internalType":"uint128"},{"name":"minPlayers","type":"uint16","indexed":false,"internalType":"uint16"},{"name":"maxPlayers","type":"uint16","indexed":false,"internalType":"uint16"},{"name":"centerLat","type":"int32","indexed":false,"internalType":"int32"},{"name":"centerLng","type":"int32","indexed":false,"internalType":"int32"}],"anonymous":false},{"type":"event","name":"GameEnded","inputs":[{"name":"gameId","type":"uint256","indexed":true,"internalType":"uint256"},{"name":"winner1","type":"address","indexed":false,"internalType":"address"},{"name":"winner2","type":"address","indexed":false,"internalType":"address"},{"name":"winner3","type":"address","indexed":false,"internalType":"address"},{"name":"topKiller","type":"address","indexed":false,"internalType":"address"}],"anonymous":false},{"type":"event","name":"GameStarted","inputs":[{"name":"gameId","type":"uint256","indexed":true,"internalType":"uint256"},{"name":"playerCount","type":"uint16","indexed":false,"internalType":"uint16"}],"anonymous":false},{"type":"event","name":"KillRecorded","inputs":[{"name":"gameId","type":"uint256","indexed":true,"internalType":"uint256"},{"name":"hunter","type":"address","indexed":true,"internalType":"address"},{"name":"target","type":"address","indexed":true,"internalType":"address"}],"anonymous":false},{"type":"event","name":"OperatorAdded","inputs":[{"name":"operator","type":"address","indexed":true,"internalType":"address"}],"anonymous":false},{"type":"event","name":"OperatorRemoved","inputs":[{"name":"operator","type":"address","indexed":true,"internalType":"address"}],"anonymous":false},{"type":"event","name":"OwnershipTransferred","inputs":[{"name":"previousOwner","type":"address","indexed":true,"internalType":"address"},{"name":"newOwner","type":"address","indexed":true,"internalType":"address"}],"anonymous":false},{"type":"event","name":"PlatformFeesWithdrawn","inputs":[{"name":"to","type":"address","indexed":true,"internalType":"address"},{"name":"amount","type":"uint256","indexed":false,"internalType":"uint256"}],"anonymous":false},{"type":"event","name":"PlayerEliminated","inputs":[{"name":"gameId","type":"uint256","indexed":true,"internalType":"uint256"},{"name":"player","type":"address","indexed":true,"internalType":"address"},{"name":"eliminator","type":"address","indexed":true,"internalType":"address"}],"anonymous":false},{"type":"event","name":"PlayerRegistered","inputs":[{"name":"gameId","type":"uint256","indexed":true,"internalType":"uint256"},{"name":"player","type":"address","indexed":true,"internalType":"address"},{"name":"playerCount","type":"uint16","indexed":false,"internalType":"uint16"}],"anonymous":false},{"type":"event","name":"PrizeClaimed","inputs":[{"name":"gameId","type":"uint256","indexed":true,"internalType":"uint256"},{"name":"player","type":"address","indexed":true,"internalType":"address"},{"name":"amount","type":"uint256","indexed":false,"internalType":"uint256"}],"anonymous":false},{"type":"event","name":"RefundClaimed","inputs":[{"name":"gameId","type":"uint256","indexed":true,"internalType":"uint256"},{"name":"player","type":"address","indexed":true,"internalType":"address"},{"name":"amount","type":"uint256","indexed":false,"internalType":"uint256"}],"anonymous":false},{"type":"error","name":"AlreadyClaimed","inputs":[]},{"type":"error","name":"AlreadyRegistered","inputs":[]},{"type":"error","name":"BpsSumNot10000","inputs":[]},{"type":"error","name":"CannotSelfKill","inputs":[]},{"type":"error","name":"DeadlineInPast","inputs":[]},{"type":"error","name":"DeadlineNotPassed","inputs":[]},{"type":"error","name":"EnoughPlayers","inputs":[]},{"type":"error","name":"ExpiryBeforeDeadline","inputs":[]},{"type":"error","name":"GameFull","inputs":[]},{"type":"error","name":"HunterNotAlive","inputs":[]},{"type":"error","name":"HunterNotRegistered","inputs":[]},{"type":"error","name":"MaxLessThanMin","inputs":[]},{"type":"error","name":"MinPlayersLessThanPrizeSlots","inputs":[]},{"type":"error","name":"Need2ndIf3rdSet","inputs":[]},{"type":"error","name":"NeedFirstPrize","inputs":[]},{"type":"error","name":"NoFees","inputs":[]},{"type":"error","name":"NoPrize","inputs":[]},{"type":"error","name":"NoShrinkSchedule","inputs":[]},{"type":"error","name":"NotEnoughPlayers","inputs":[]},{"type":"error","name":"NotExpiredYet","inputs":[]},{"type":"error","name":"NotOperator","inputs":[]},{"type":"error","name":"OwnableInvalidOwner","inputs":[{"name":"owner","type":"address","internalType":"address"}]},{"type":"error","name":"OwnableUnauthorizedAccount","inputs":[{"name":"account","type":"address","internalType":"address"}]},{"type":"error","name":"PlayerNotAlive","inputs":[]},{"type":"error","name":"PlayerNotRegistered","inputs":[]},{"type":"error","name":"ReentrancyGuardReentrantCall","inputs":[]},{"type":"error","name":"RegistrationClosed","inputs":[]},{"type":"error","name":"ShrinksNotOrdered","inputs":[]},{"type":"error","name":"TargetNotAlive","inputs":[]},{"type":"error","name":"TargetNotRegistered","inputs":[]},{"type":"error","name":"TopKillerNotRegistered","inputs":[]},{"type":"error","name":"TopKillerZeroAddress","inputs":[]},{"type":"error","name":"TransferFailed","inputs":[]},{"type":"error","name":"WinnerNotRegistered","inputs":[]},{"type":"error","name":"WinnerZeroAddress","inputs":[]},{"type":"error","name":"WinnersNotUnique","inputs":[]},{"type":"error","name":"WrongEntryFee","inputs":[]},{"type":"error","name":"WrongPhase","inputs":[]},{"type":"error","name":"ZeroAddress","inputs":[]}],"bytecode":{"object":"0x60806040526001805534801562000014575f80fd5b50335f73ffffffffffffffffffffffffffffffffffffffff168173ffffffffffffffffffffffffffffffffffffffff160362000089575f6040517f1e4fbdf7000000000000000000000000000000000000000000000000000000008152600401620000809190620001ff565b60405180910390fd5b6200009a81620000c960201b60201c565b506001620000bd620000b16200018a60201b60201c565b620001b360201b60201c565b5f01819055506200021a565b5f805f9054906101000a900473ffffffffffffffffffffffffffffffffffffffff169050815f806101000a81548173ffffffffffffffffffffffffffffffffffffffff021916908373ffffffffffffffffffffffffffffffffffffffff1602179055508173ffffffffffffffffffffffffffffffffffffffff168173ffffffffffffffffffffffffffffffffffffffff167f8be0079c531659141344cd1fd0a4f28419497f9722a3daafe3b4186f6b6457e060405160405180910390a35050565b5f7f9b779b17422d0df92223018b32b4d1fa46e071723d6817e2486d003becc55f005f1b905090565b5f819050919050565b5f73ffffffffffffffffffffffffffffffffffffffff82169050919050565b5f620001e782620001bc565b9050919050565b620001f981620001db565b82525050565b5f602082019050620002145f830184620001ee565b92915050565b61588580620002285f395ff3fe6080604052600436106101c1575f3560e01c80638da5cb5b116100f6578063ce44b06e11610094578063f207564e11610063578063f207564e1461065a578063f2fde38b14610676578063f927c9ea1461069e578063ffde0c74146106da576101c1565b8063ce44b06e146105a6578063d7098154146105e2578063e5ed1d591461060a578063ec3889b514610632576101c1565b8063ae61b1e7116100d0578063ae61b1e7146104dc578063b0df7ad314610504578063b135bbb014610540578063b81f6e181461056a576101c1565b80638da5cb5b146104625780639870d7fe1461048c578063ac8a584a146104b4576101c1565b8063650ccc3111610163578063715018a61161013d578063715018a6146103ac57806378c5195e146103c2578063818d465d146103fe578063873f6f9e14610426576101c1565b8063650ccc311461030c5780636ab73f85146103345780636d70f7ae14610370576101c1565b8063346613af1161019f578063346613af1461024157806335e257bc1461027d5780633ccd10e9146102a55780635b7baf64146102e4576101c1565b806322163b86146101c557806325ee2686146101ef5780632bbc59db14610217575b5f80fd5b3480156101d0575f80fd5b506101d9610716565b6040516101e691906145ff565b60405180910390f35b3480156101fa575f80fd5b50610215600480360381019061021091906146a4565b61071c565b005b348015610222575f80fd5b5061022b610ca1565b60405161023891906145ff565b60405180910390f35b34801561024c575f80fd5b50610267600480360381019061026291906146f4565b610ca7565b6040516102749190614812565b60405180910390f35b348015610288575f80fd5b506102a3600480360381019061029e91906146f4565b610d59565b005b3480156102b0575f80fd5b506102cb60048036038101906102c69190614832565b610f17565b6040516102db94939291906148a6565b60405180910390f35b3480156102ef575f80fd5b5061030a600480360381019061030591906146f4565b611091565b005b348015610317575f80fd5b50610332600480360381019061032d9190614832565b6113e2565b005b34801561033f575f80fd5b5061035a6004803603810190610355919061496d565b611704565b60405161036791906145ff565b60405180910390f35b34801561037b575f80fd5b50610396600480360381019061039191906149e6565b6121cb565b6040516103a39190614a11565b60405180910390f35b3480156103b7575f80fd5b506103c06121e8565b005b3480156103cd575f80fd5b506103e860048036038101906103e39190614832565b6121fb565b6040516103f591906145ff565b60405180910390f35b348015610409575f80fd5b50610424600480360381019061041f9190614a2a565b61255f565b005b348015610431575f80fd5b5061044c60048036038101906104479190614832565b612e07565b6040516104599190614a11565b60405180910390f35b34801561046d575f80fd5b50610476612e31565b6040516104839190614ab0565b60405180910390f35b348015610497575f80fd5b506104b260048036038101906104ad91906149e6565b612e58565b005b3480156104bf575f80fd5b506104da60048036038101906104d591906149e6565b612f60565b005b3480156104e7575f80fd5b5061050260048036038101906104fd91906146f4565b613002565b005b34801561050f575f80fd5b5061052a60048036038101906105259190614832565b613157565b6040516105379190614ac9565b60405180910390f35b34801561054b575f80fd5b50610554613182565b60405161056191906145ff565b60405180910390f35b348015610575575f80fd5b50610590600480360381019061058b9190614832565b613188565b60405161059d9190614a11565b60405180910390f35b3480156105b1575f80fd5b506105cc60048036038101906105c791906146f4565b6131b2565b6040516105d99190614d2e565b60405180910390f35b3480156105ed575f80fd5b50610608600480360381019061060391906146f4565b61349f565b005b348015610615575f80fd5b50610630600480360381019061062b91906146f4565b61375d565b005b34801561063d575f80fd5b50610658600480360381019061065391906149e6565b6139a4565b005b610674600480360381019061066f91906146f4565b613b59565b005b348015610681575f80fd5b5061069c600480360381019061069791906149e6565b613f82565b005b3480156106a9575f80fd5b506106c460048036038101906106bf9190614832565b614006565b6040516106d19190614a11565b60405180910390f35b3480156106e5575f80fd5b5061070060048036038101906106fb91906146f4565b614030565b60405161070d9190614e4d565b60405180910390f35b60095481565b600a5f3373ffffffffffffffffffffffffffffffffffffffff1673ffffffffffffffffffffffffffffffffffffffff1681526020019081526020015f205f9054906101000a900460ff161580156107a65750610776612e31565b73ffffffffffffffffffffffffffffffffffffffff163373ffffffffffffffffffffffffffffffffffffffff1614155b156107dd576040517f7c214f0400000000000000000000000000000000000000000000000000000000815260040160405180910390fd5b8260018060038111156107f3576107f2614d4e565b5b60035f8481526020019081526020015f205f015f9054906101000a900460ff16600381111561082557610824614d4e565b5b1461085c576040517fe2586bcc00000000000000000000000000000000000000000000000000000000815260040160405180910390fd5b60055f8681526020019081526020015f205f8573ffffffffffffffffffffffffffffffffffffffff1673ffffffffffffffffffffffffffffffffffffffff1681526020019081526020015f205f9054906101000a900460ff166108eb576040517fd4ab835d00000000000000000000000000000000000000000000000000000000815260040160405180910390fd5b60055f8681526020019081526020015f205f8473ffffffffffffffffffffffffffffffffffffffff1673ffffffffffffffffffffffffffffffffffffffff1681526020019081526020015f205f9054906101000a900460ff1661097a576040517fd27b87e200000000000000000000000000000000000000000000000000000000815260040160405180910390fd5b60075f8681526020019081526020015f205f8573ffffffffffffffffffffffffffffffffffffffff1673ffffffffffffffffffffffffffffffffffffffff1681526020019081526020015f205f9054906101000a900460ff16610a09576040517fd5784a3700000000000000000000000000000000000000000000000000000000815260040160405180910390fd5b60075f8681526020019081526020015f205f8473ffffffffffffffffffffffffffffffffffffffff1673ffffffffffffffffffffffffffffffffffffffff1681526020019081526020015f205f9054906101000a900460ff16610a98576040517f063cfc8b00000000000000000000000000000000000000000000000000000000815260040160405180910390fd5b8273ffffffffffffffffffffffffffffffffffffffff168473ffffffffffffffffffffffffffffffffffffffff1603610afd576040517f17b98eb300000000000000000000000000000000000000000000000000000000815260040160405180910390fd5b60085f8681526020019081526020015f205f8573ffffffffffffffffffffffffffffffffffffffff1673ffffffffffffffffffffffffffffffffffffffff1681526020019081526020015f205f81819054906101000a900461ffff1680929190610b6690614e93565b91906101000a81548161ffff021916908361ffff160217905550505f60075f8781526020019081526020015f205f8573ffffffffffffffffffffffffffffffffffffffff1673ffffffffffffffffffffffffffffffffffffffff1681526020019081526020015f205f6101000a81548160ff0219169083151502179055508273ffffffffffffffffffffffffffffffffffffffff168473ffffffffffffffffffffffffffffffffffffffff16867f54ac16b72d4ff7517dd95987f0280de00d7543f7f0752a84cab5e89c5a5c7fba60405160405180910390a48373ffffffffffffffffffffffffffffffffffffffff168373ffffffffffffffffffffffffffffffffffffffff16867ffc8d37eb25b7616a3ff25967e12cf70abc279add3258c35b94a2f3e8c4f8a3ed60405160405180910390a45050505050565b61271081565b606060045f8381526020019081526020015f20805480602002602001604051908101604052809291908181526020015f905b82821015610d4e578382905f5260205f20016040518060400160405290815f82015f9054906101000a900463ffffffff1663ffffffff1663ffffffff1681526020015f820160049054906101000a900463ffffffff1663ffffffff1663ffffffff168152505081526020019060010190610cd9565b505050509050919050565b805f806003811115610d6e57610d6d614d4e565b5b60035f8481526020019081526020015f205f015f9054906101000a900460ff166003811115610da057610d9f614d4e565b5b14610dd7576040517fe2586bcc00000000000000000000000000000000000000000000000000000000815260040160405180910390fd5b5f60025f8581526020019081526020015f2090505f60035f8681526020019081526020015f2090508160010160149054906101000a900464ffffffffff1664ffffffffff164211610e54576040517f2eb3543000000000000000000000000000000000000000000000000000000000815260040160405180910390fd5b8160010160109054906101000a900461ffff1661ffff16815f0160019054906101000a900461ffff1661ffff1610610eb8576040517f8984cbd900000000000000000000000000000000000000000000000000000000815260040160405180910390fd5b6003815f015f6101000a81548160ff02191690836003811115610ede57610edd614d4e565b5b0217905550847f681705fdbd93dba3b679fd712577e9a86d57c5551c520f8c74857deb57f9623f60405160405180910390a25050505050565b5f805f8060055f8781526020019081526020015f205f8673ffffffffffffffffffffffffffffffffffffffff1673ffffffffffffffffffffffffffffffffffffffff1681526020019081526020015f205f9054906101000a900460ff1660075f8881526020019081526020015f205f8773ffffffffffffffffffffffffffffffffffffffff1673ffffffffffffffffffffffffffffffffffffffff1681526020019081526020015f205f9054906101000a900460ff1660085f8981526020019081526020015f205f8873ffffffffffffffffffffffffffffffffffffffff1673ffffffffffffffffffffffffffffffffffffffff1681526020019081526020015f205f9054906101000a900461ffff1660065f8a81526020019081526020015f205f8973ffffffffffffffffffffffffffffffffffffffff1673ffffffffffffffffffffffffffffffffffffffff1681526020019081526020015f205f9054906101000a900460ff16935093509350935092959194509250565b611099614250565b8060038060038111156110af576110ae614d4e565b5b60035f8481526020019081526020015f205f015f9054906101000a900460ff1660038111156110e1576110e0614d4e565b5b14611118576040517fe2586bcc00000000000000000000000000000000000000000000000000000000815260040160405180910390fd5b60055f8481526020019081526020015f205f3373ffffffffffffffffffffffffffffffffffffffff1673ffffffffffffffffffffffffffffffffffffffff1681526020019081526020015f205f9054906101000a900460ff166111a7576040517f37ae9e4c00000000000000000000000000000000000000000000000000000000815260040160405180910390fd5b60065f8481526020019081526020015f205f3373ffffffffffffffffffffffffffffffffffffffff1673ffffffffffffffffffffffffffffffffffffffff1681526020019081526020015f205f9054906101000a900460ff1615611237576040517f646cf55800000000000000000000000000000000000000000000000000000000815260040160405180910390fd5b5f60025f8581526020019081526020015f2090505f816001015f9054906101000a90046fffffffffffffffffffffffffffffffff166fffffffffffffffffffffffffffffffff169050600160065f8781526020019081526020015f205f3373ffffffffffffffffffffffffffffffffffffffff1673ffffffffffffffffffffffffffffffffffffffff1681526020019081526020015f205f6101000a81548160ff0219169083151502179055505f3373ffffffffffffffffffffffffffffffffffffffff168260405161130990614ee9565b5f6040518083038185875af1925050503d805f8114611343576040519150601f19603f3d011682016040523d82523d5f602084013e611348565b606091505b5050905080611383576040517f90b8ec1800000000000000000000000000000000000000000000000000000000815260040160405180910390fd5b3373ffffffffffffffffffffffffffffffffffffffff16867ff3f402280ef0a7905e124aa621b65eaeb2725c343e8b36d398ed78c29daf285c846040516113ca91906145ff565b60405180910390a350505050506113df614272565b50565b600a5f3373ffffffffffffffffffffffffffffffffffffffff1673ffffffffffffffffffffffffffffffffffffffff1681526020019081526020015f205f9054906101000a900460ff1615801561146c575061143c612e31565b73ffffffffffffffffffffffffffffffffffffffff163373ffffffffffffffffffffffffffffffffffffffff1614155b156114a3576040517f7c214f0400000000000000000000000000000000000000000000000000000000815260040160405180910390fd5b8160018060038111156114b9576114b8614d4e565b5b60035f8481526020019081526020015f205f015f9054906101000a900460ff1660038111156114eb576114ea614d4e565b5b14611522576040517fe2586bcc00000000000000000000000000000000000000000000000000000000815260040160405180910390fd5b60055f8581526020019081526020015f205f8473ffffffffffffffffffffffffffffffffffffffff1673ffffffffffffffffffffffffffffffffffffffff1681526020019081526020015f205f9054906101000a900460ff166115b1576040517f37ae9e4c00000000000000000000000000000000000000000000000000000000815260040160405180910390fd5b60075f8581526020019081526020015f205f8473ffffffffffffffffffffffffffffffffffffffff1673ffffffffffffffffffffffffffffffffffffffff1681526020019081526020015f205f9054906101000a900460ff16611640576040517ff6fa148200000000000000000000000000000000000000000000000000000000815260040160405180910390fd5b5f60075f8681526020019081526020015f205f8573ffffffffffffffffffffffffffffffffffffffff1673ffffffffffffffffffffffffffffffffffffffff1681526020019081526020015f205f6101000a81548160ff0219169083151502179055505f73ffffffffffffffffffffffffffffffffffffffff168373ffffffffffffffffffffffffffffffffffffffff16857ffc8d37eb25b7616a3ff25967e12cf70abc279add3258c35b94a2f3e8c4f8a3ed60405160405180910390a450505050565b5f600a5f3373ffffffffffffffffffffffffffffffffffffffff1673ffffffffffffffffffffffffffffffffffffffff1681526020019081526020015f205f9054906101000a900460ff1615801561178f575061175f612e31565b73ffffffffffffffffffffffffffffffffffffffff163373ffffffffffffffffffffffffffffffffffffffff1614155b156117c6576040517f7c214f0400000000000000000000000000000000000000000000000000000000815260040160405180910390fd5b8360400160208101906117d99190614f27565b61ffff168460600160208101906117f09190614f27565b61ffff16101561182c576040517feb37e90100000000000000000000000000000000000000000000000000000000815260040160405180910390fd5b428460800160208101906118409190614f7c565b64ffffffffff161161187e576040517fbec0058000000000000000000000000000000000000000000000000000000000815260040160405180910390fd5b8360800160208101906118919190614f7c565b64ffffffffff168460a00160208101906118ab9190614f7c565b64ffffffffff16116118e9576040517fb6cb838e00000000000000000000000000000000000000000000000000000000815260040160405180910390fd5b612710846101800160208101906119009190614f27565b61ffff16856101600160208101906119189190614f27565b61ffff16866101400160208101906119309190614f27565b61ffff16876101200160208101906119489190614f27565b61ffff16886101000160208101906119609190614f27565b61ffff1661196e9190614fa7565b6119789190614fa7565b6119829190614fa7565b61198c9190614fa7565b146119c3576040517f6ece8dd300000000000000000000000000000000000000000000000000000000815260040160405180910390fd5b5f83839050036119ff576040517f87b16d3900000000000000000000000000000000000000000000000000000000815260040160405180910390fd5b5f84610100016020810190611a149190614f27565b61ffff1603611a4f576040517f9b93639c00000000000000000000000000000000000000000000000000000000815260040160405180910390fd5b5f84610140016020810190611a649190614f27565b61ffff16118015611a8b57505f84610120016020810190611a859190614f27565b61ffff16145b15611ac2576040517f0bcc38c200000000000000000000000000000000000000000000000000000000815260040160405180910390fd5b5f600190505f85610120016020810190611adc9190614f27565b61ffff161115611aeb57600290505b5f85610140016020810190611b009190614f27565b61ffff161115611b0f57600390505b8061ffff16856040016020810190611b279190614f27565b61ffff161015611b63576040517fab05347400000000000000000000000000000000000000000000000000000000815260040160405180910390fd5b5f600190505b84849050811015611c24578484600183611b839190614fda565b818110611b9357611b9261500d565b5b9050604002015f016020810190611baa9190615064565b63ffffffff16858583818110611bc357611bc261500d565b5b9050604002015f016020810190611bda9190615064565b63ffffffff1611611c17576040517fffa8e73300000000000000000000000000000000000000000000000000000000815260040160405180910390fd5b8080600101915050611b69565b5060015f815480929190611c379061508f565b919050559150604051806101e0016040528086805f0190611c5891906150e2565b8080601f0160208091040260200160405190810160405280939291908181526020018383808284375f81840152601f19601f820116905080830192505050505050508152602001866020016020810190611cb2919061516e565b6fffffffffffffffffffffffffffffffff168152602001866040016020810190611cdc9190614f27565b61ffff168152602001866060016020810190611cf89190614f27565b61ffff168152602001866080016020810190611d149190614f7c565b64ffffffffff1681526020018660a0016020810190611d339190614f7c565b64ffffffffff1681526020014264ffffffffff1681526020013373ffffffffffffffffffffffffffffffffffffffff1681526020018660c0016020810190611d7b91906151c3565b60030b81526020018660e0016020810190611d9691906151c3565b60030b815260200186610100016020810190611db29190614f27565b61ffff16815260200186610120016020810190611dcf9190614f27565b61ffff16815260200186610140016020810190611dec9190614f27565b61ffff16815260200186610160016020810190611e099190614f27565b61ffff16815260200186610180016020810190611e269190614f27565b61ffff1681525060025f8481526020019081526020015f205f820151815f019081611e519190615415565b506020820151816001015f6101000a8154816fffffffffffffffffffffffffffffffff02191690836fffffffffffffffffffffffffffffffff16021790555060408201518160010160106101000a81548161ffff021916908361ffff16021790555060608201518160010160126101000a81548161ffff021916908361ffff16021790555060808201518160010160146101000a81548164ffffffffff021916908364ffffffffff16021790555060a08201518160010160196101000a81548164ffffffffff021916908364ffffffffff16021790555060c0820151816002015f6101000a81548164ffffffffff021916908364ffffffffff16021790555060e08201518160020160056101000a81548173ffffffffffffffffffffffffffffffffffffffff021916908373ffffffffffffffffffffffffffffffffffffffff1602179055506101008201518160020160196101000a81548163ffffffff021916908360030b63ffffffff160217905550610120820151816003015f6101000a81548163ffffffff021916908360030b63ffffffff1602179055506101408201518160030160046101000a81548161ffff021916908361ffff1602179055506101608201518160030160066101000a81548161ffff021916908361ffff1602179055506101808201518160030160086101000a81548161ffff021916908361ffff1602179055506101a082015181600301600a6101000a81548161ffff021916908361ffff1602179055506101c082015181600301600c6101000a81548161ffff021916908361ffff1602179055509050505f5b848490508110156121175760045f8481526020019081526020015f208585838181106120d4576120d361500d565b5b905060400201908060018154018082558091505060019003905f5260205f20015f9091909190915081816121089190615611565b505080806001019150506120a5565b50817f4328820f6440d4b15c56b177f7e0e1b02c93a0e8e04cd33ef19385f5ddf5976e86805f019061214991906150e2565b88602001602081019061215c919061516e565b89604001602081019061216f9190614f27565b8a60600160208101906121829190614f27565b8b60c001602081019061219591906151c3565b8c60e00160208101906121a891906151c3565b6040516121bb9796959493929190615687565b60405180910390a2509392505050565b600a602052805f5260405f205f915054906101000a900460ff1681565b6121f061428c565b6121f95f614313565b565b5f8060035f8581526020019081526020015f2090506002600381111561222457612223614d4e565b5b815f015f9054906101000a900460ff16600381111561224657612245614d4e565b5b14612254575f915050612559565b60065f8581526020019081526020015f205f8473ffffffffffffffffffffffffffffffffffffffff1673ffffffffffffffffffffffffffffffffffffffff1681526020019081526020015f205f9054906101000a900460ff16156122bb575f915050612559565b5f60025f8681526020019081526020015f2090505f825f0160039054906101000a90046fffffffffffffffffffffffffffffffff166fffffffffffffffffffffffffffffffff1690505f836001015f9054906101000a900473ffffffffffffffffffffffffffffffffffffffff1673ffffffffffffffffffffffffffffffffffffffff168673ffffffffffffffffffffffffffffffffffffffff1603612398576127108360030160049054906101000a900461ffff1661ffff168361238091906156ef565b61238a919061575d565b816123959190614fa7565b90505b836002015f9054906101000a900473ffffffffffffffffffffffffffffffffffffffff1673ffffffffffffffffffffffffffffffffffffffff168673ffffffffffffffffffffffffffffffffffffffff160361242b576127108360030160069054906101000a900461ffff1661ffff168361241391906156ef565b61241d919061575d565b816124289190614fa7565b90505b836003015f9054906101000a900473ffffffffffffffffffffffffffffffffffffffff1673ffffffffffffffffffffffffffffffffffffffff168673ffffffffffffffffffffffffffffffffffffffff16036124be576127108360030160089054906101000a900461ffff1661ffff16836124a691906156ef565b6124b0919061575d565b816124bb9190614fa7565b90505b836004015f9054906101000a900473ffffffffffffffffffffffffffffffffffffffff1673ffffffffffffffffffffffffffffffffffffffff168673ffffffffffffffffffffffffffffffffffffffff16036125515761271083600301600a9054906101000a900461ffff1661ffff168361253991906156ef565b612543919061575d565b8161254e9190614fa7565b90505b809450505050505b92915050565b600a5f3373ffffffffffffffffffffffffffffffffffffffff1673ffffffffffffffffffffffffffffffffffffffff1681526020019081526020015f205f9054906101000a900460ff161580156125e957506125b9612e31565b73ffffffffffffffffffffffffffffffffffffffff163373ffffffffffffffffffffffffffffffffffffffff1614155b15612620576040517f7c214f0400000000000000000000000000000000000000000000000000000000815260040160405180910390fd5b84600180600381111561263657612635614d4e565b5b60035f8481526020019081526020015f205f015f9054906101000a900460ff16600381111561266857612667614d4e565b5b1461269f576040517fe2586bcc00000000000000000000000000000000000000000000000000000000815260040160405180910390fd5b5f60025f8981526020019081526020015f2090505f73ffffffffffffffffffffffffffffffffffffffff168773ffffffffffffffffffffffffffffffffffffffff1603612718576040517f3541411b00000000000000000000000000000000000000000000000000000000815260040160405180910390fd5b60055f8981526020019081526020015f205f8873ffffffffffffffffffffffffffffffffffffffff1673ffffffffffffffffffffffffffffffffffffffff1681526020019081526020015f205f9054906101000a900460ff166127a7576040517f0a866adb00000000000000000000000000000000000000000000000000000000815260040160405180910390fd5b5f8160030160069054906101000a900461ffff1661ffff16111561291f575f73ffffffffffffffffffffffffffffffffffffffff168673ffffffffffffffffffffffffffffffffffffffff160361282a576040517f3541411b00000000000000000000000000000000000000000000000000000000815260040160405180910390fd5b60055f8981526020019081526020015f205f8773ffffffffffffffffffffffffffffffffffffffff1673ffffffffffffffffffffffffffffffffffffffff1681526020019081526020015f205f9054906101000a900460ff166128b9576040517f0a866adb00000000000000000000000000000000000000000000000000000000815260040160405180910390fd5b8673ffffffffffffffffffffffffffffffffffffffff168673ffffffffffffffffffffffffffffffffffffffff160361291e576040517f70c4bf3500000000000000000000000000000000000000000000000000000000815260040160405180910390fd5b5b5f8160030160089054906101000a900461ffff1661ffff161115612ace575f73ffffffffffffffffffffffffffffffffffffffff168573ffffffffffffffffffffffffffffffffffffffff16036129a2576040517f3541411b00000000000000000000000000000000000000000000000000000000815260040160405180910390fd5b60055f8981526020019081526020015f205f8673ffffffffffffffffffffffffffffffffffffffff1673ffffffffffffffffffffffffffffffffffffffff1681526020019081526020015f205f9054906101000a900460ff16612a31576040517f0a866adb00000000000000000000000000000000000000000000000000000000815260040160405180910390fd5b8673ffffffffffffffffffffffffffffffffffffffff168573ffffffffffffffffffffffffffffffffffffffff161480612a9657508573ffffffffffffffffffffffffffffffffffffffff168573ffffffffffffffffffffffffffffffffffffffff16145b15612acd576040517f70c4bf3500000000000000000000000000000000000000000000000000000000815260040160405180910390fd5b5b5f81600301600a9054906101000a900461ffff1661ffff161115612be1575f73ffffffffffffffffffffffffffffffffffffffff168473ffffffffffffffffffffffffffffffffffffffff1603612b51576040517f9ce39efc00000000000000000000000000000000000000000000000000000000815260040160405180910390fd5b60055f8981526020019081526020015f205f8573ffffffffffffffffffffffffffffffffffffffff1673ffffffffffffffffffffffffffffffffffffffff1681526020019081526020015f205f9054906101000a900460ff16612be0576040517fe5065a5100000000000000000000000000000000000000000000000000000000815260040160405180910390fd5b5b5f60035f8a81526020019081526020015f2090506002815f015f6101000a81548160ff02191690836003811115612c1b57612c1a614d4e565b5b021790555087816001015f6101000a81548173ffffffffffffffffffffffffffffffffffffffff021916908373ffffffffffffffffffffffffffffffffffffffff16021790555086816002015f6101000a81548173ffffffffffffffffffffffffffffffffffffffff021916908373ffffffffffffffffffffffffffffffffffffffff16021790555085816003015f6101000a81548173ffffffffffffffffffffffffffffffffffffffff021916908373ffffffffffffffffffffffffffffffffffffffff16021790555084816004015f6101000a81548173ffffffffffffffffffffffffffffffffffffffff021916908373ffffffffffffffffffffffffffffffffffffffff1602179055505f82600301600c9054906101000a900461ffff1661ffff161115612dbe5761271082600301600c9054906101000a900461ffff1661ffff16825f0160039054906101000a90046fffffffffffffffffffffffffffffffff16612d8a919061578d565b6fffffffffffffffffffffffffffffffff16612da6919061575d565b60095f828254612db69190614fa7565b925050819055505b887ffee0a3cabaf0e8e5d7192555a5715f541084cded162d1cc49d5383036847f7dc89898989604051612df494939291906157c9565b60405180910390a2505050505050505050565b6006602052815f5260405f20602052805f5260405f205f915091509054906101000a900460ff1681565b5f805f9054906101000a900473ffffffffffffffffffffffffffffffffffffffff16905090565b612e6061428c565b5f73ffffffffffffffffffffffffffffffffffffffff168173ffffffffffffffffffffffffffffffffffffffff1603612ec5576040517fd92e233d00000000000000000000000000000000000000000000000000000000815260040160405180910390fd5b6001600a5f8373ffffffffffffffffffffffffffffffffffffffff1673ffffffffffffffffffffffffffffffffffffffff1681526020019081526020015f205f6101000a81548160ff0219169083151502179055508073ffffffffffffffffffffffffffffffffffffffff167fac6fa858e9350a46cec16539926e0fde25b7629f84b5a72bffaae4df888ae86d60405160405180910390a250565b612f6861428c565b5f600a5f8373ffffffffffffffffffffffffffffffffffffffff1673ffffffffffffffffffffffffffffffffffffffff1681526020019081526020015f205f6101000a81548160ff0219169083151502179055508073ffffffffffffffffffffffffffffffffffffffff167f80c0b871b97b595b16a7741c1b06fed0c6f6f558639f18ccbce50724325dc40d60405160405180910390a250565b80600180600381111561301857613017614d4e565b5b60035f8481526020019081526020015f205f015f9054906101000a900460ff16600381111561304a57613049614d4e565b5b14613081576040517fe2586bcc00000000000000000000000000000000000000000000000000000000815260040160405180910390fd5b5f60025f8581526020019081526020015f2090508060010160199054906101000a900464ffffffffff1664ffffffffff1642116130ea576040517fa8058ea900000000000000000000000000000000000000000000000000000000815260040160405180910390fd5b6003805f8681526020019081526020015f205f015f6101000a81548160ff0219169083600381111561311f5761311e614d4e565b5b0217905550837f681705fdbd93dba3b679fd712577e9a86d57c5551c520f8c74857deb57f9623f60405160405180910390a250505050565b6008602052815f5260405f20602052805f5260405f205f915091509054906101000a900461ffff1681565b60015481565b6005602052815f5260405f20602052805f5260405f205f915091509054906101000a900460ff1681565b6131ba61446a565b60025f8381526020019081526020015f20604051806101e00160405290815f820180546131e690615248565b80601f016020809104026020016040519081016040528092919081815260200182805461321290615248565b801561325d5780601f106132345761010080835404028352916020019161325d565b820191905f5260205f20905b81548152906001019060200180831161324057829003601f168201915b50505050508152602001600182015f9054906101000a90046fffffffffffffffffffffffffffffffff166fffffffffffffffffffffffffffffffff166fffffffffffffffffffffffffffffffff1681526020016001820160109054906101000a900461ffff1661ffff1661ffff1681526020016001820160129054906101000a900461ffff1661ffff1661ffff1681526020016001820160149054906101000a900464ffffffffff1664ffffffffff1664ffffffffff1681526020016001820160199054906101000a900464ffffffffff1664ffffffffff1664ffffffffff168152602001600282015f9054906101000a900464ffffffffff1664ffffffffff1664ffffffffff1681526020016002820160059054906101000a900473ffffffffffffffffffffffffffffffffffffffff1673ffffffffffffffffffffffffffffffffffffffff1673ffffffffffffffffffffffffffffffffffffffff1681526020016002820160199054906101000a900460030b60030b60030b8152602001600382015f9054906101000a900460030b60030b60030b81526020016003820160049054906101000a900461ffff1661ffff1661ffff1681526020016003820160069054906101000a900461ffff1661ffff1661ffff1681526020016003820160089054906101000a900461ffff1661ffff1661ffff16815260200160038201600a9054906101000a900461ffff1661ffff1661ffff16815260200160038201600c9054906101000a900461ffff1661ffff1661ffff16815250509050919050565b6134a7614250565b8060028060038111156134bd576134bc614d4e565b5b60035f8481526020019081526020015f205f015f9054906101000a900460ff1660038111156134ef576134ee614d4e565b5b14613526576040517fe2586bcc00000000000000000000000000000000000000000000000000000000815260040160405180910390fd5b60065f8481526020019081526020015f205f3373ffffffffffffffffffffffffffffffffffffffff1673ffffffffffffffffffffffffffffffffffffffff1681526020019081526020015f205f9054906101000a900460ff16156135b6576040517f646cf55800000000000000000000000000000000000000000000000000000000815260040160405180910390fd5b5f6135c184336121fb565b90505f81036135fc576040517f273b4b7700000000000000000000000000000000000000000000000000000000815260040160405180910390fd5b600160065f8681526020019081526020015f205f3373ffffffffffffffffffffffffffffffffffffffff1673ffffffffffffffffffffffffffffffffffffffff1681526020019081526020015f205f6101000a81548160ff0219169083151502179055505f3373ffffffffffffffffffffffffffffffffffffffff168260405161368590614ee9565b5f6040518083038185875af1925050503d805f81146136bf576040519150601f19603f3d011682016040523d82523d5f602084013e6136c4565b606091505b50509050806136ff576040517f90b8ec1800000000000000000000000000000000000000000000000000000000815260040160405180910390fd5b3373ffffffffffffffffffffffffffffffffffffffff16857f4aa95f981a8337cb337de335b965507da0879c3b49f799d20058e913f5ad2c268460405161374691906145ff565b60405180910390a35050505061375a614272565b50565b600a5f3373ffffffffffffffffffffffffffffffffffffffff1673ffffffffffffffffffffffffffffffffffffffff1681526020019081526020015f205f9054906101000a900460ff161580156137e757506137b7612e31565b73ffffffffffffffffffffffffffffffffffffffff163373ffffffffffffffffffffffffffffffffffffffff1614155b1561381e576040517f7c214f0400000000000000000000000000000000000000000000000000000000815260040160405180910390fd5b805f80600381111561383357613832614d4e565b5b60035f8481526020019081526020015f205f015f9054906101000a900460ff16600381111561386557613864614d4e565b5b1461389c576040517fe2586bcc00000000000000000000000000000000000000000000000000000000815260040160405180910390fd5b5f60035f8581526020019081526020015f2090505f60025f8681526020019081526020015f2090508060010160109054906101000a900461ffff1661ffff16825f0160019054906101000a900461ffff1661ffff161015613929576040517ff770074300000000000000000000000000000000000000000000000000000000815260040160405180910390fd5b6001825f015f6101000a81548160ff0219169083600381111561394f5761394e614d4e565b5b0217905550847f04ed0b3845c85d64b6c40fcdf35d6bde85beaf870057dffacd9b44ca6cf86981835f0160019054906101000a900461ffff166040516139959190614ac9565b60405180910390a25050505050565b6139ac61428c565b6139b4614250565b5f73ffffffffffffffffffffffffffffffffffffffff168173ffffffffffffffffffffffffffffffffffffffff1603613a19576040517fd92e233d00000000000000000000000000000000000000000000000000000000815260040160405180910390fd5b5f60095490505f8103613a58576040517f7f7d9be000000000000000000000000000000000000000000000000000000000815260040160405180910390fd5b5f6009819055505f8273ffffffffffffffffffffffffffffffffffffffff1682604051613a8490614ee9565b5f6040518083038185875af1925050503d805f8114613abe576040519150601f19603f3d011682016040523d82523d5f602084013e613ac3565b606091505b5050905080613afe576040517f90b8ec1800000000000000000000000000000000000000000000000000000000815260040160405180910390fd5b8273ffffffffffffffffffffffffffffffffffffffff167ffc7ad544ff6a06d6499925723d25b6fe70457a42939995b1d3d6f560fe33633383604051613b4491906145ff565b60405180910390a25050613b56614272565b50565b805f806003811115613b6e57613b6d614d4e565b5b60035f8481526020019081526020015f205f015f9054906101000a900460ff166003811115613ba057613b9f614d4e565b5b14613bd7576040517fe2586bcc00000000000000000000000000000000000000000000000000000000815260040160405180910390fd5b5f60025f8581526020019081526020015f2090505f60035f8681526020019081526020015f2090508160010160149054906101000a900464ffffffffff1664ffffffffff16421115613c55576040517f2fc209f300000000000000000000000000000000000000000000000000000000815260040160405180910390fd5b816001015f9054906101000a90046fffffffffffffffffffffffffffffffff166fffffffffffffffffffffffffffffffff163414613cbf576040517f5425860500000000000000000000000000000000000000000000000000000000815260040160405180910390fd5b8160010160129054906101000a900461ffff1661ffff16815f0160019054906101000a900461ffff1661ffff1610613d23576040517fb3ed896d00000000000000000000000000000000000000000000000000000000815260040160405180910390fd5b60055f8681526020019081526020015f205f3373ffffffffffffffffffffffffffffffffffffffff1673ffffffffffffffffffffffffffffffffffffffff1681526020019081526020015f205f9054906101000a900460ff1615613db3576040517f3a81d6fc00000000000000000000000000000000000000000000000000000000815260040160405180910390fd5b600160055f8781526020019081526020015f205f3373ffffffffffffffffffffffffffffffffffffffff1673ffffffffffffffffffffffffffffffffffffffff1681526020019081526020015f205f6101000a81548160ff021916908315150217905550600160075f8781526020019081526020015f205f3373ffffffffffffffffffffffffffffffffffffffff1673ffffffffffffffffffffffffffffffffffffffff1681526020019081526020015f205f6101000a81548160ff021916908315150217905550805f01600181819054906101000a900461ffff1680929190613e9c90614e93565b91906101000a81548161ffff021916908361ffff1602179055505034815f0160038282829054906101000a90046fffffffffffffffffffffffffffffffff16613ee5919061580c565b92506101000a8154816fffffffffffffffffffffffffffffffff02191690836fffffffffffffffffffffffffffffffff1602179055503373ffffffffffffffffffffffffffffffffffffffff16857f25164ae805171d79971e8e315eecb40061020c9346f40135903680f727064646835f0160019054906101000a900461ffff16604051613f739190614ac9565b60405180910390a35050505050565b613f8a61428c565b5f73ffffffffffffffffffffffffffffffffffffffff168173ffffffffffffffffffffffffffffffffffffffff1603613ffa575f6040517f1e4fbdf7000000000000000000000000000000000000000000000000000000008152600401613ff19190614ab0565b60405180910390fd5b61400381614313565b50565b6007602052815f5260405f20602052805f5260405f205f915091509054906101000a900460ff1681565b614038614531565b60035f8381526020019081526020015f206040518060e00160405290815f82015f9054906101000a900460ff16600381111561407757614076614d4e565b5b600381111561408957614088614d4e565b5b81526020015f820160019054906101000a900461ffff1661ffff1661ffff1681526020015f820160039054906101000a90046fffffffffffffffffffffffffffffffff166fffffffffffffffffffffffffffffffff166fffffffffffffffffffffffffffffffff168152602001600182015f9054906101000a900473ffffffffffffffffffffffffffffffffffffffff1673ffffffffffffffffffffffffffffffffffffffff1673ffffffffffffffffffffffffffffffffffffffff168152602001600282015f9054906101000a900473ffffffffffffffffffffffffffffffffffffffff1673ffffffffffffffffffffffffffffffffffffffff1673ffffffffffffffffffffffffffffffffffffffff168152602001600382015f9054906101000a900473ffffffffffffffffffffffffffffffffffffffff1673ffffffffffffffffffffffffffffffffffffffff1673ffffffffffffffffffffffffffffffffffffffff168152602001600482015f9054906101000a900473ffffffffffffffffffffffffffffffffffffffff1673ffffffffffffffffffffffffffffffffffffffff1673ffffffffffffffffffffffffffffffffffffffff16815250509050919050565b6142586143d4565b600261426a614265614415565b61443e565b5f0181905550565b600161428461427f614415565b61443e565b5f0181905550565b614294614447565b73ffffffffffffffffffffffffffffffffffffffff166142b2612e31565b73ffffffffffffffffffffffffffffffffffffffff1614614311576142d5614447565b6040517f118cdaa70000000000000000000000000000000000000000000000000000000081526004016143089190614ab0565b60405180910390fd5b565b5f805f9054906101000a900473ffffffffffffffffffffffffffffffffffffffff169050815f806101000a81548173ffffffffffffffffffffffffffffffffffffffff021916908373ffffffffffffffffffffffffffffffffffffffff1602179055508173ffffffffffffffffffffffffffffffffffffffff168173ffffffffffffffffffffffffffffffffffffffff167f8be0079c531659141344cd1fd0a4f28419497f9722a3daafe3b4186f6b6457e060405160405180910390a35050565b6143dc61444e565b15614413576040517f3ee5aeb500000000000000000000000000000000000000000000000000000000815260040160405180910390fd5b565b5f7f9b779b17422d0df92223018b32b4d1fa46e071723d6817e2486d003becc55f005f1b905090565b5f819050919050565b5f33905090565b5f600261446161445c614415565b61443e565b5f015414905090565b604051806101e00160405280606081526020015f6fffffffffffffffffffffffffffffffff1681526020015f61ffff1681526020015f61ffff1681526020015f64ffffffffff1681526020015f64ffffffffff1681526020015f64ffffffffff1681526020015f73ffffffffffffffffffffffffffffffffffffffff1681526020015f60030b81526020015f60030b81526020015f61ffff1681526020015f61ffff1681526020015f61ffff1681526020015f61ffff1681526020015f61ffff1681525090565b6040518060e001604052805f600381111561454f5761454e614d4e565b5b81526020015f61ffff1681526020015f6fffffffffffffffffffffffffffffffff1681526020015f73ffffffffffffffffffffffffffffffffffffffff1681526020015f73ffffffffffffffffffffffffffffffffffffffff1681526020015f73ffffffffffffffffffffffffffffffffffffffff1681526020015f73ffffffffffffffffffffffffffffffffffffffff1681525090565b5f819050919050565b6145f9816145e7565b82525050565b5f6020820190506146125f8301846145f0565b92915050565b5f80fd5b5f80fd5b614629816145e7565b8114614633575f80fd5b50565b5f8135905061464481614620565b92915050565b5f73ffffffffffffffffffffffffffffffffffffffff82169050919050565b5f6146738261464a565b9050919050565b61468381614669565b811461468d575f80fd5b50565b5f8135905061469e8161467a565b92915050565b5f805f606084860312156146bb576146ba614618565b5b5f6146c886828701614636565b93505060206146d986828701614690565b92505060406146ea86828701614690565b9150509250925092565b5f6020828403121561470957614708614618565b5b5f61471684828501614636565b91505092915050565b5f81519050919050565b5f82825260208201905092915050565b5f819050602082019050919050565b5f63ffffffff82169050919050565b61476081614748565b82525050565b604082015f82015161477a5f850182614757565b50602082015161478d6020850182614757565b50505050565b5f61479e8383614766565b60408301905092915050565b5f602082019050919050565b5f6147c08261471f565b6147ca8185614729565b93506147d583614739565b805f5b838110156148055781516147ec8882614793565b97506147f7836147aa565b9250506001810190506147d8565b5085935050505092915050565b5f6020820190508181035f83015261482a81846147b6565b905092915050565b5f806040838503121561484857614847614618565b5b5f61485585828601614636565b925050602061486685828601614690565b9150509250929050565b5f8115159050919050565b61488481614870565b82525050565b5f61ffff82169050919050565b6148a08161488a565b82525050565b5f6080820190506148b95f83018761487b565b6148c6602083018661487b565b6148d36040830185614897565b6148e0606083018461487b565b95945050505050565b5f80fd5b5f6101a08284031215614903576149026148e9565b5b81905092915050565b5f80fd5b5f80fd5b5f80fd5b5f8083601f84011261492d5761492c61490c565b5b8235905067ffffffffffffffff81111561494a57614949614910565b5b60208301915083604082028301111561496657614965614914565b5b9250929050565b5f805f6040848603121561498457614983614618565b5b5f84013567ffffffffffffffff8111156149a1576149a061461c565b5b6149ad868287016148ed565b935050602084013567ffffffffffffffff8111156149ce576149cd61461c565b5b6149da86828701614918565b92509250509250925092565b5f602082840312156149fb576149fa614618565b5b5f614a0884828501614690565b91505092915050565b5f602082019050614a245f83018461487b565b92915050565b5f805f805f60a08688031215614a4357614a42614618565b5b5f614a5088828901614636565b9550506020614a6188828901614690565b9450506040614a7288828901614690565b9350506060614a8388828901614690565b9250506080614a9488828901614690565b9150509295509295909350565b614aaa81614669565b82525050565b5f602082019050614ac35f830184614aa1565b92915050565b5f602082019050614adc5f830184614897565b92915050565b5f81519050919050565b5f82825260208201905092915050565b5f5b83811015614b19578082015181840152602081019050614afe565b5f8484015250505050565b5f601f19601f8301169050919050565b5f614b3e82614ae2565b614b488185614aec565b9350614b58818560208601614afc565b614b6181614b24565b840191505092915050565b5f6fffffffffffffffffffffffffffffffff82169050919050565b614b9081614b6c565b82525050565b614b9f8161488a565b82525050565b5f64ffffffffff82169050919050565b614bbe81614ba5565b82525050565b614bcd81614669565b82525050565b5f8160030b9050919050565b614be881614bd3565b82525050565b5f6101e083015f8301518482035f860152614c098282614b34565b9150506020830151614c1e6020860182614b87565b506040830151614c316040860182614b96565b506060830151614c446060860182614b96565b506080830151614c576080860182614bb5565b5060a0830151614c6a60a0860182614bb5565b5060c0830151614c7d60c0860182614bb5565b5060e0830151614c9060e0860182614bc4565b50610100830151614ca5610100860182614bdf565b50610120830151614cba610120860182614bdf565b50610140830151614ccf610140860182614b96565b50610160830151614ce4610160860182614b96565b50610180830151614cf9610180860182614b96565b506101a0830151614d0e6101a0860182614b96565b506101c0830151614d236101c0860182614b96565b508091505092915050565b5f6020820190508181035f830152614d468184614bee565b905092915050565b7f4e487b71000000000000000000000000000000000000000000000000000000005f52602160045260245ffd5b60048110614d8c57614d8b614d4e565b5b50565b5f819050614d9c82614d7b565b919050565b5f614dab82614d8f565b9050919050565b614dbb81614da1565b82525050565b60e082015f820151614dd55f850182614db2565b506020820151614de86020850182614b96565b506040820151614dfb6040850182614b87565b506060820151614e0e6060850182614bc4565b506080820151614e216080850182614bc4565b5060a0820151614e3460a0850182614bc4565b5060c0820151614e4760c0850182614bc4565b50505050565b5f60e082019050614e605f830184614dc1565b92915050565b7f4e487b71000000000000000000000000000000000000000000000000000000005f52601160045260245ffd5b5f614e9d8261488a565b915061ffff8203614eb157614eb0614e66565b5b600182019050919050565b5f81905092915050565b50565b5f614ed45f83614ebc565b9150614edf82614ec6565b5f82019050919050565b5f614ef382614ec9565b9150819050919050565b614f068161488a565b8114614f10575f80fd5b50565b5f81359050614f2181614efd565b92915050565b5f60208284031215614f3c57614f3b614618565b5b5f614f4984828501614f13565b91505092915050565b614f5b81614ba5565b8114614f65575f80fd5b50565b5f81359050614f7681614f52565b92915050565b5f60208284031215614f9157614f90614618565b5b5f614f9e84828501614f68565b91505092915050565b5f614fb1826145e7565b9150614fbc836145e7565b9250828201905080821115614fd457614fd3614e66565b5b92915050565b5f614fe4826145e7565b9150614fef836145e7565b925082820390508181111561500757615006614e66565b5b92915050565b7f4e487b71000000000000000000000000000000000000000000000000000000005f52603260045260245ffd5b61504381614748565b811461504d575f80fd5b50565b5f8135905061505e8161503a565b92915050565b5f6020828403121561507957615078614618565b5b5f61508684828501615050565b91505092915050565b5f615099826145e7565b91507fffffffffffffffffffffffffffffffffffffffffffffffffffffffffffffffff82036150cb576150ca614e66565b5b600182019050919050565b5f80fd5b5f80fd5b5f80fd5b5f80833560016020038436030381126150fe576150fd6150d6565b5b80840192508235915067ffffffffffffffff8211156151205761511f6150da565b5b60208301925060018202360383131561513c5761513b6150de565b5b509250929050565b61514d81614b6c565b8114615157575f80fd5b50565b5f8135905061516881615144565b92915050565b5f6020828403121561518357615182614618565b5b5f6151908482850161515a565b91505092915050565b6151a281614bd3565b81146151ac575f80fd5b50565b5f813590506151bd81615199565b92915050565b5f602082840312156151d8576151d7614618565b5b5f6151e5848285016151af565b91505092915050565b7f4e487b71000000000000000000000000000000000000000000000000000000005f52604160045260245ffd5b7f4e487b71000000000000000000000000000000000000000000000000000000005f52602260045260245ffd5b5f600282049050600182168061525f57607f821691505b6020821081036152725761527161521b565b5b50919050565b5f819050815f5260205f209050919050565b5f6020601f8301049050919050565b5f82821b905092915050565b5f600883026152d47fffffffffffffffffffffffffffffffffffffffffffffffffffffffffffffffff82615299565b6152de8683615299565b95508019841693508086168417925050509392505050565b5f819050919050565b5f61531961531461530f846145e7565b6152f6565b6145e7565b9050919050565b5f819050919050565b615332836152ff565b61534661533e82615320565b8484546152a5565b825550505050565b5f90565b61535a61534e565b615365818484615329565b505050565b5b818110156153885761537d5f82615352565b60018101905061536b565b5050565b601f8211156153cd5761539e81615278565b6153a78461528a565b810160208510156153b6578190505b6153ca6153c28561528a565b83018261536a565b50505b505050565b5f82821c905092915050565b5f6153ed5f19846008026153d2565b1980831691505092915050565b5f61540583836153de565b9150826002028217905092915050565b61541e82614ae2565b67ffffffffffffffff811115615437576154366151ee565b5b6154418254615248565b61544c82828561538c565b5f60209050601f83116001811461547d575f841561546b578287015190505b61547585826153fa565b8655506154dc565b601f19841661548b86615278565b5f5b828110156154b25784890151825560018201915060208501945060208101905061548d565b868310156154cf57848901516154cb601f8916826153de565b8355505b6001600288020188555050505b505050505050565b5f81356154f08161503a565b80915050919050565b5f815f1b9050919050565b5f63ffffffff615513846154f9565b9350801983169250808416831791505092915050565b5f61554361553e61553984614748565b6152f6565b614748565b9050919050565b5f819050919050565b61555c82615529565b61556f6155688261554a565b8354615504565b8255505050565b5f8160201b9050919050565b5f67ffffffff0000000061559584615576565b9350801983169250808416831791505092915050565b6155b482615529565b6155c76155c08261554a565b8354615582565b8255505050565b5f81015f8301806155de816154e4565b90506155ea8184615553565b5050505f810160208301806155fe816154e4565b905061560a81846155ab565b5050505050565b61561b82826155ce565b5050565b5f82825260208201905092915050565b828183375f83830152505050565b5f615648838561561f565b935061565583858461562f565b61565e83614b24565b840190509392505050565b61567281614b6c565b82525050565b61568181614bd3565b82525050565b5f60c0820190508181035f8301526156a081898b61563d565b90506156af6020830188615669565b6156bc6040830187614897565b6156c96060830186614897565b6156d66080830185615678565b6156e360a0830184615678565b98975050505050505050565b5f6156f9826145e7565b9150615704836145e7565b9250828202615712816145e7565b9150828204841483151761572957615728614e66565b5b5092915050565b7f4e487b71000000000000000000000000000000000000000000000000000000005f52601260045260245ffd5b5f615767826145e7565b9150615772836145e7565b92508261578257615781615730565b5b828204905092915050565b5f61579782614b6c565b91506157a283614b6c565b92508282026157b081614b6c565b91508082146157c2576157c1614e66565b5b5092915050565b5f6080820190506157dc5f830187614aa1565b6157e96020830186614aa1565b6157f66040830185614aa1565b6158036060830184614aa1565b95945050505050565b5f61581682614b6c565b915061582183614b6c565b925082820190506fffffffffffffffffffffffffffffffff81111561584957615848614e66565b5b9291505056fea264697066735822122040ee72343d9bd8c3a02c8def77cf8c27031b210ecebafb693adc3be9eb21236164736f6c63430008180033","linkReferences":{}},"methodIdentifiers":{"BPS_TOTAL()":"2bbc59db","addOperator(address)":"9870d7fe","claimPrize(uint256)":"d7098154","claimRefund(uint256)":"5b7baf64","createGame((string,uint128,uint16,uint16,uint40,uint40,int32,int32,uint16,uint16,uint16,uint16,uint16),(uint32,uint32)[])":"6ab73f85","eliminatePlayer(uint256,address)":"650ccc31","endGame(uint256,address,address,address,address)":"818d465d","getClaimableAmount(uint256,address)":"78c5195e","getGameConfig(uint256)":"ce44b06e","getGameState(uint256)":"ffde0c74","getPlayerInfo(uint256,address)":"3ccd10e9","getZoneShrinks(uint256)":"346613af","hasClaimed(uint256,address)":"873f6f9e","isAlive(uint256,address)":"f927c9ea","isOperator(address)":"6d70f7ae","isRegistered(uint256,address)":"b81f6e18","killCount(uint256,address)":"b0df7ad3","nextGameId()":"b135bbb0","owner()":"8da5cb5b","platformFeesAccrued()":"22163b86","recordKill(uint256,address,address)":"25ee2686","register(uint256)":"f207564e","removeOperator(address)":"ac8a584a","renounceOwnership()":"715018a6","startGame(uint256)":"e5ed1d59","transferOwnership(address)":"f2fde38b","triggerCancellation(uint256)":"35e257bc","triggerExpiry(uint256)":"ae61b1e7","withdrawPlatformFees(address)":"ec3889b5"},"id":23}