{"abi":[{"type":"constructor","inputs":[{"name":"_platformFeeBps","type":"uint16","internalType":"uint16"}],"stateMutability":"nonpayable"},{"type":"function","name":"BPS_TOTAL","inputs":[],"outputs":[{"name":"","type":"uint256","internalType":"uint256"}],"stateMutability":"view"},{"type":"function","name":"MAX_PLATFORM_FEE_BPS","inputs":[],"outputs":[{"name":"","type":"uint16","internalType":"uint16"}],"stateMutability":"view"},{"type":"function","name":"MAX_PLAYERS","inputs":[],"outputs":[{"name":"","type":"uint16","internalType":"uint16"}],"stateMutability":"view"},{"type":"function","name":"MAX_TITLE_LENGTH","inputs":[],"outputs":[{"name":"","type":"uint256","internalType":"uint256"}],"stateMutability":"view"},{"type":"function","name":"addOperator","inputs":[{"name":"op","type":"address","internalType":"address"}],"outputs":[],"stateMutability":"nonpayable"},{"type":"function","name":"claimPrize","inputs":[{"name":"gameId","type":"uint256","internalType":"uint256"}],"outputs":[],"stateMutability":"nonpayable"},{"type":"function","name":"claimRefund","inputs":[{"name":"gameId","type":"uint256","internalType":"uint256"}],"outputs":[],"stateMutability":"nonpayable"},{"type":"function","name":"createGame","inputs":[{"name":"params","type":"tuple","internalType":"struct IChainAssassin.CreateGameParams","components":[{"name":"title","type":"string","internalType":"string"},{"name":"entryFee","type":"uint128","internalType":"uint128"},{"name":"minPlayers","type":"uint16","internalType":"uint16"},{"name":"maxPlayers","type":"uint16","internalType":"uint16"},{"name":"registrationDeadline","type":"uint40","internalType":"uint40"},{"name":"gameDate","type":"uint40","internalType":"uint40"},{"name":"maxDuration","type":"uint32","internalType":"uint32"},{"name":"centerLat","type":"int32","internalType":"int32"},{"name":"centerLng","type":"int32","internalType":"int32"},{"name":"meetingLat","type":"int32","internalType":"int32"},{"name":"meetingLng","type":"int32","internalType":"int32"},{"name":"bps1st","type":"uint16","internalType":"uint16"},{"name":"bps2nd","type":"uint16","internalType":"uint16"},{"name":"bps3rd","type":"uint16","internalType":"uint16"},{"name":"bpsKills","type":"uint16","internalType":"uint16"},{"name":"bpsCreator","type":"uint16","internalType":"uint16"}]},{"name":"shrinks","type":"tuple[]","internalType":"struct IChainAssassin.ZoneShrink[]","components":[{"name":"atSecond","type":"uint32","internalType":"uint32"},{"name":"radiusMeters","type":"uint32","internalType":"uint32"}]}],"outputs":[{"name":"gameId","type":"uint256","internalType":"uint256"}],"stateMutability":"nonpayable"},{"type":"function","name":"creatorFeesAccrued","inputs":[{"name":"","type":"address","internalType":"address"}],"outputs":[{"name":"","type":"uint256","internalType":"uint256"}],"stateMutability":"view"},{"type":"function","name":"eliminatePlayer","inputs":[{"name":"gameId","type":"uint256","internalType":"uint256"},{"name":"player","type":"address","internalType":"address"}],"outputs":[],"stateMutability":"nonpayable"},{"type":"function","name":"endGame","inputs":[{"name":"gameId","type":"uint256","internalType":"uint256"},{"name":"winner1","type":"address","internalType":"address"},{"name":"winner2","type":"address","internalType":"address"},{"name":"winner3","type":"address","internalType":"address"},{"name":"topKiller","type":"address","internalType":"address"}],"outputs":[],"stateMutability":"nonpayable"},{"type":"function","name":"getClaimableAmount","inputs":[{"name":"gameId","type":"uint256","internalType":"uint256"},{"name":"player","type":"address","internalType":"address"}],"outputs":[{"name":"","type":"uint256","internalType":"uint256"}],"stateMutability":"view"},{"type":"function","name":"getGameConfig","inputs":[{"name":"gameId","type":"uint256","internalType":"uint256"}],"outputs":[{"name":"","type":"tuple","internalType":"struct IChainAssassin.GameConfig","components":[{"name":"title","type":"string","internalType":"string"},{"name":"entryFee","type":"uint128","internalType":"uint128"},{"name":"minPlayers","type":"uint16","internalType":"uint16"},{"name":"maxPlayers","type":"uint16","internalType":"uint16"},{"name":"registrationDeadline","type":"uint40","internalType":"uint40"},{"name":"gameDate","type":"uint40","internalType":"uint40"},{"name":"maxDuration","type":"uint32","internalType":"uint32"},{"name":"createdAt","type":"uint40","internalType":"uint40"},{"name":"creator","type":"address","internalType":"address"},{"name":"centerLat","type":"int32","internalType":"int32"},{"name":"centerLng","type":"int32","internalType":"int32"},{"name":"meetingLat","type":"int32","internalType":"int32"},{"name":"meetingLng","type":"int32","internalType":"int32"},{"name":"bps1st","type":"uint16","internalType":"uint16"},{"name":"bps2nd","type":"uint16","internalType":"uint16"},{"name":"bps3rd","type":"uint16","internalType":"uint16"},{"name":"bpsKills","type":"uint16","internalType":"uint16"},{"name":"bpsCreator","type":"uint16","internalType":"uint16"}]}],"stateMutability":"view"},{"type":"function","name":"getGameState","inputs":[{"name":"gameId","type":"uint256","internalType":"uint256"}],"outputs":[{"name":"","type":"tuple","internalType":"struct IChainAssassin.GameState","components":[{"name":"phase","type":"uint8","internalType":"enum IChainAssassin.GamePhase"},{"name":"playerCount","type":"uint16","internalType":"uint16"},{"name":"totalCollected","type":"uint128","internalType":"uint128"},{"name":"winner1","type":"address","internalType":"address"},{"name":"winner2","type":"address","internalType":"address"},{"name":"winner3","type":"address","internalType":"address"},{"name":"topKiller","type":"address","internalType":"address"}]}],"stateMutability":"view"},{"type":"function","name":"getPlayerInfo","inputs":[{"name":"gameId","type":"uint256","internalType":"uint256"},{"name":"player","type":"address","internalType":"address"}],"outputs":[{"name":"registered","type":"bool","internalType":"bool"},{"name":"alive","type":"bool","internalType":"bool"},{"name":"kills","type":"uint16","internalType":"uint16"},{"name":"claimed","type":"bool","internalType":"bool"},{"name":"number","type":"uint16","internalType":"uint16"}],"stateMutability":"view"},{"type":"function","name":"getZoneShrinks","inputs":[{"name":"gameId","type":"uint256","internalType":"uint256"}],"outputs":[{"name":"","type":"tuple[]","internalType":"struct IChainAssassin.ZoneShrink[]","components":[{"name":"atSecond","type":"uint32","internalType":"uint32"},{"name":"radiusMeters","type":"uint32","internalType":"uint32"}]}],"stateMutability":"view"},{"type":"function","name":"hasClaimed","inputs":[{"name":"","type":"uint256","internalType":"uint256"},{"name":"","type":"address","internalType":"address"}],"outputs":[{"name":"","type":"bool","internalType":"bool"}],"stateMutability":"view"},{"type":"function","name":"isAlive","inputs":[{"name":"","type":"uint256","internalType":"uint256"},{"name":"","type":"address","internalType":"address"}],"outputs":[{"name":"","type":"bool","internalType":"bool"}],"stateMutability":"view"},{"type":"function","name":"isOperator","inputs":[{"name":"","type":"address","internalType":"address"}],"outputs":[{"name":"","type":"bool","internalType":"bool"}],"stateMutability":"view"},{"type":"function","name":"isRegistered","inputs":[{"name":"","type":"uint256","internalType":"uint256"},{"name":"","type":"address","internalType":"address"}],"outputs":[{"name":"","type":"bool","internalType":"bool"}],"stateMutability":"view"},{"type":"function","name":"killCount","inputs":[{"name":"","type":"uint256","internalType":"uint256"},{"name":"","type":"address","internalType":"address"}],"outputs":[{"name":"","type":"uint16","internalType":"uint16"}],"stateMutability":"view"},{"type":"function","name":"nextGameId","inputs":[],"outputs":[{"name":"","type":"uint256","internalType":"uint256"}],"stateMutability":"view"},{"type":"function","name":"owner","inputs":[],"outputs":[{"name":"","type":"address","internalType":"address"}],"stateMutability":"view"},{"type":"function","name":"platformFeeBps","inputs":[],"outputs":[{"name":"","type":"uint16","internalType":"uint16"}],"stateMutability":"view"},{"type":"function","name":"platformFeesAccrued","inputs":[],"outputs":[{"name":"","type":"uint256","internalType":"uint256"}],"stateMutability":"view"},{"type":"function","name":"playerNumber","inputs":[{"name":"","type":"uint256","internalType":"uint256"},{"name":"","type":"address","internalType":"address"}],"outputs":[{"name":"","type":"uint16","internalType":"uint16"}],"stateMutability":"view"},{"type":"function","name":"recordKill","inputs":[{"name":"gameId","type":"uint256","internalType":"uint256"},{"name":"hunter","type":"address","internalType":"address"},{"name":"target","type":"address","internalType":"address"}],"outputs":[],"stateMutability":"nonpayable"},{"type":"function","name":"register","inputs":[{"name":"gameId","type":"uint256","internalType":"uint256"}],"outputs":[],"stateMutability":"payable"},{"type":"function","name":"removeOperator","inputs":[{"name":"op","type":"address","internalType":"address"}],"outputs":[],"stateMutability":"nonpayable"},{"type":"function","name":"renounceOwnership","inputs":[],"outputs":[],"stateMutability":"nonpayable"},{"type":"function","name":"setPlatformFeeBps","inputs":[{"name":"newBps","type":"uint16","internalType":"uint16"}],"outputs":[],"stateMutability":"nonpayable"},{"type":"function","name":"startGame","inputs":[{"name":"gameId","type":"uint256","internalType":"uint256"}],"outputs":[],"stateMutability":"nonpayable"},{"type":"function","name":"transferOwnership","inputs":[{"name":"newOwner","type":"address","internalType":"address"}],"outputs":[],"stateMutability":"nonpayable"},{"type":"function","name":"triggerCancellation","inputs":[{"name":"gameId","type":"uint256","internalType":"uint256"}],"outputs":[],"stateMutability":"nonpayable"},{"type":"function","name":"triggerExpiry","inputs":[{"name":"gameId","type":"uint256","internalType":"uint256"}],"outputs":[],"stateMutability":"nonpayable"},{"type":"function","name":"withdrawCreatorFees","inputs":[{"name":"to","type":"address","internalType":"address"}],"outputs":[],"stateMutability":"nonpayable"},{"type":"function","name":"withdrawPlatformFees","inputs":[{"name":"to","type":"address","internalType":"address"}],"outputs":[],"stateMutability":"nonpayable"},{"type":"event","name":"CreatorFeesWithdrawn","inputs":[{"name":"creator","type":"address","indexed":true,"internalType":"address"},{"name":"to","type":"address","indexed":true,"internalType":"address"},{"name":"amount","type":"uint256","indexed":false,"internalType":"uint256"}],"anonymous":false},{"type":"event","name":"GameCancelled","inputs":[{"name":"gameId","type":"uint256","indexed":true,"internalType":"uint256"}],"anonymous":false},{"type":"event","name":"GameCreated","inputs":[{"name":"gameId","type":"uint256","indexed":true,"internalType":"uint256"},{"name":"title","type":"string","indexed":false,"internalType":"string"},{"name":"entryFee","type":"uint128","indexed":false,"internalType":"uint128"},{"name":"minPlayers","type":"uint16","indexed":false,"internalType":"uint16"},{"name":"maxPlayers","type":"uint16","indexed":false,"internalType":"uint16"},{"name":"centerLat","type":"int32","indexed":false,"internalType":"int32"},{"name":"centerLng","type":"int32","indexed":false,"internalType":"int32"}],"anonymous":false},{"type":"event","name":"GameEnded","inputs":[{"name":"gameId","type":"uint256","indexed":true,"internalType":"uint256"},{"name":"winner1","type":"address","indexed":false,"internalType":"address"},{"name":"winner2","type":"address","indexed":false,"internalType":"address"},{"name":"winner3","type":"address","indexed":false,"internalType":"address"},{"name":"topKiller","type":"address","indexed":false,"internalType":"address"}],"anonymous":false},{"type":"event","name":"GameStarted","inputs":[{"name":"gameId","type":"uint256","indexed":true,"internalType":"uint256"},{"name":"playerCount","type":"uint16","indexed":false,"internalType":"uint16"}],"anonymous":false},{"type":"event","name":"KillRecorded","inputs":[{"name":"gameId","type":"uint256","indexed":true,"internalType":"uint256"},{"name":"hunter","type":"address","indexed":true,"internalType":"address"},{"name":"target","type":"address","indexed":true,"internalType":"address"}],"anonymous":false},{"type":"event","name":"OperatorAdded","inputs":[{"name":"operator","type":"address","indexed":true,"internalType":"address"}],"anonymous":false},{"type":"event","name":"OperatorRemoved","inputs":[{"name":"operator","type":"address","indexed":true,"internalType":"address"}],"anonymous":false},{"type":"event","name":"OwnershipTransferred","inputs":[{"name":"previousOwner","type":"address","indexed":true,"internalType":"address"},{"name":"newOwner","type":"address","indexed":true,"internalType":"address"}],"anonymous":false},{"type":"event","name":"PlatformFeeBpsUpdated","inputs":[{"name":"oldBps","type":"uint16","indexed":false,"internalType":"uint16"},{"name":"newBps","type":"uint16","indexed":false,"internalType":"uint16"}],"anonymous":false},{"type":"event","name":"PlatformFeesWithdrawn","inputs":[{"name":"to","type":"address","indexed":true,"internalType":"address"},{"name":"amount","type":"uint256","indexed":false,"internalType":"uint256"}],"anonymous":false},{"type":"event","name":"PlayerEliminated","inputs":[{"name":"gameId","type":"uint256","indexed":true,"internalType":"uint256"},{"name":"player","type":"address","indexed":true,"internalType":"address"},{"name":"eliminator","type":"address","indexed":true,"internalType":"address"}],"anonymous":false},{"type":"event","name":"PlayerRegistered","inputs":[{"name":"gameId","type":"uint256","indexed":true,"internalType":"uint256"},{"name":"player","type":"address","indexed":true,"internalType":"address"},{"name":"playerCount","type":"uint16","indexed":false,"internalType":"uint16"}],"anonymous":false},{"type":"event","name":"PrizeClaimed","inputs":[{"name":"gameId","type":"uint256","indexed":true,"internalType":"uint256"},{"name":"player","type":"address","indexed":true,"internalType":"address"},{"name":"amount","type":"uint256","indexed":false,"internalType":"uint256"}],"anonymous":false},{"type":"event","name":"RefundClaimed","inputs":[{"name":"gameId","type":"uint256","indexed":true,"internalType":"uint256"},{"name":"player","type":"address","indexed":true,"internalType":"address"},{"name":"amount","type":"uint256","indexed":false,"internalType":"uint256"}],"anonymous":false},{"type":"error","name":"AlreadyClaimed","inputs":[]},{"type":"error","name":"AlreadyRegistered","inputs":[]},{"type":"error","name":"BpsSumNot10000","inputs":[]},{"type":"error","name":"CannotSelfKill","inputs":[]},{"type":"error","name":"DeadlineInPast","inputs":[]},{"type":"error","name":"DeadlineNotPassed","inputs":[]},{"type":"error","name":"EnoughPlayers","inputs":[]},{"type":"error","name":"FirstShrinkMustBeZero","inputs":[]},{"type":"error","name":"GameDateNotAfterDeadline","inputs":[]},{"type":"error","name":"GameDateNotReached","inputs":[]},{"type":"error","name":"GameFull","inputs":[]},{"type":"error","name":"HunterNotAlive","inputs":[]},{"type":"error","name":"HunterNotRegistered","inputs":[]},{"type":"error","name":"MaxDurationZero","inputs":[]},{"type":"error","name":"MaxLessThanMin","inputs":[]},{"type":"error","name":"MaxPlayersTooHigh","inputs":[]},{"type":"error","name":"MaxPlayersTooLow","inputs":[]},{"type":"error","name":"MinPlayersLessThanPrizeSlots","inputs":[]},{"type":"error","name":"MinPlayersTooLow","inputs":[]},{"type":"error","name":"Need2ndIf3rdSet","inputs":[]},{"type":"error","name":"NeedFirstPrize","inputs":[]},{"type":"error","name":"NoFees","inputs":[]},{"type":"error","name":"NoPrize","inputs":[]},{"type":"error","name":"NoShrinkSchedule","inputs":[]},{"type":"error","name":"NotEnoughPlayers","inputs":[]},{"type":"error","name":"NotExpiredYet","inputs":[]},{"type":"error","name":"NotOperator","inputs":[]},{"type":"error","name":"OwnableInvalidOwner","inputs":[{"name":"owner","type":"address","internalType":"address"}]},{"type":"error","name":"OwnableUnauthorizedAccount","inputs":[{"name":"account","type":"address","internalType":"address"}]},{"type":"error","name":"PlatformFeeTooHigh","inputs":[]},{"type":"error","name":"PlayerNotAlive","inputs":[]},{"type":"error","name":"PlayerNotRegistered","inputs":[]},{"type":"error","name":"RadiiNotDecreasing","inputs":[]},{"type":"error","name":"ReentrancyGuardReentrantCall","inputs":[]},{"type":"error","name":"RegistrationClosed","inputs":[]},{"type":"error","name":"ShrinksNotOrdered","inputs":[]},{"type":"error","name":"TargetNotAlive","inputs":[]},{"type":"error","name":"TargetNotRegistered","inputs":[]},{"type":"error","name":"TitleTooLong","inputs":[]},{"type":"error","name":"TopKillerNotRegistered","inputs":[]},{"type":"error","name":"TopKillerZeroAddress","inputs":[]},{"type":"error","name":"TransferFailed","inputs":[]},{"type":"error","name":"UnusedTopKillerNotZero","inputs":[]},{"type":"error","name":"UnusedWinnerNotZero","inputs":[]},{"type":"error","name":"WinnerNotRegistered","inputs":[]},{"type":"error","name":"WinnerZeroAddress","inputs":[]},{"type":"error","name":"WinnersNotUnique","inputs":[]},{"type":"error","name":"WrongEntryFee","inputs":[]},{"type":"error","name":"WrongPhase","inputs":[]},{"type":"error","name":"ZeroAddress","inputs":[]}],"bytecode":{"object":"0x60806040526001805534801562000014575f80fd5b5060405162003ada38038062003ada833981016040819052620000379162000120565b33806200005d57604051631e4fbdf760e01b81525f600482015260240160405180910390fd5b6200006881620000d1565b5060017f9b779b17422d0df92223018b32b4d1fa46e071723d6817e2486d003becc55f005561138861ffff82161115620000b55760405163d086646b60e01b815260040160405180910390fd5b600c805461ffff191661ffff929092169190911790556200014a565b5f80546001600160a01b038381166001600160a01b0319831681178455604051919092169283917f8be0079c531659141344cd1fd0a4f28419497f9722a3daafe3b4186f6b6457e09190a35050565b5f6020828403121562000131575f80fd5b815161ffff8116811462000143575f80fd5b9392505050565b61398280620001585f395ff3fe608060405260043610610212575f3560e01c80638d01513c1161011e578063ce44b06e116100a8578063f207564e1161006d578063f207564e14610741578063f2fde38b14610754578063f4c5cdca14610773578063f927c9ea14610792578063ffde0c74146107cb575f80fd5b8063ce44b06e1461067e578063d64821d6146106aa578063d7098154146106e4578063e5ed1d5914610703578063ec3889b514610722575f80fd5b8063ae61b1e7116100ee578063ae61b1e7146105ac578063b0df7ad3146105cb578063b135bbb014610605578063b81f6e181461061a578063c748713e14610653575f80fd5b80638d01513c146105335780638da5cb5b146105485780639870d7fe1461056e578063ac8a584a1461058d575f80fd5b80634411b3eb1161019f5780636d70f7ae1161016f5780636d70f7ae1461046a578063715018a6146104a857806378c5195e146104bc578063818d465d146104db578063873f6f9e146104fa575f80fd5b80634411b3eb146103f85780635b7baf641461040d578063650ccc311461042c5780636566ac931461044b575f80fd5b80632ef9a160116101e55780632ef9a160146102a1578063346613af146102b657806335e257bc146102e25780633bc1f7b3146103015780633ccd10e914610320575f80fd5b806322163b861461021657806322dcd13e1461023e57806325ee26861461026b5780632bbc59db1461028c575b5f80fd5b348015610221575f80fd5b5061022b600a5481565b6040519081526020015b60405180910390f35b348015610249575f80fd5b50600c546102589061ffff1681565b60405161ffff9091168152602001610235565b348015610276575f80fd5b5061028a6102853660046130aa565b6107f7565b005b348015610297575f80fd5b5061022b61271081565b3480156102ac575f80fd5b5061022b61010081565b3480156102c1575f80fd5b506102d56102d03660046130e3565b610ab0565b60405161023591906130fa565b3480156102ed575f80fd5b5061028a6102fc3660046130e3565b610b33565b34801561030c575f80fd5b5061028a61031b366004613152565b610c38565b34801561032b575f80fd5b506103c561033a36600461317a565b5f8281526005602090815260408083206001600160a01b039490941680845293825280832054858452600783528184208585528352818420548685526008845282852086865284528285205487865260068552838620878752855283862054978652600985528386209686529590935292205460ff928316959183169461ffff948516949316921690565b604080519515158652931515602086015261ffff928316938501939093521515606084015216608082015260a001610235565b348015610403575f80fd5b5061025861270f81565b348015610418575f80fd5b5061028a6104273660046130e3565b610cbe565b348015610437575f80fd5b5061028a61044636600461317a565b610e76565b348015610456575f80fd5b5061022b6104653660046131a4565b610fdf565b348015610475575f80fd5b5061049861048436600461323e565b600d6020525f908152604090205460ff1681565b6040519015158152602001610235565b3480156104b3575f80fd5b5061028a611b1b565b3480156104c7575f80fd5b5061022b6104d636600461317a565b611b2e565b3480156104e6575f80fd5b5061028a6104f5366004613257565b611cf7565b348015610505575f80fd5b5061049861051436600461317a565b600660209081525f928352604080842090915290825290205460ff1681565b34801561053e575f80fd5b5061025861138881565b348015610553575f80fd5b505f546040516001600160a01b039091168152602001610235565b348015610579575f80fd5b5061028a61058836600461323e565b6122db565b348015610598575f80fd5b5061028a6105a736600461323e565b612355565b3480156105b7575f80fd5b5061028a6105c63660046130e3565b6123c5565b3480156105d6575f80fd5b506102586105e536600461317a565b600860209081525f928352604080842090915290825290205461ffff1681565b348015610610575f80fd5b5061022b60015481565b348015610625575f80fd5b5061049861063436600461317a565b600560209081525f928352604080842090915290825290205460ff1681565b34801561065e575f80fd5b5061022b61066d36600461323e565b600b6020525f908152604090205481565b348015610689575f80fd5b5061069d6106983660046130e3565b6124a9565b60405161023591906132f4565b3480156106b5575f80fd5b506102586106c436600461317a565b600960209081525f928352604080842090915290825290205461ffff1681565b3480156106ef575f80fd5b5061028a6106fe3660046130e3565b6126f7565b34801561070e575f80fd5b5061028a61071d3660046130e3565b612881565b34801561072d575f80fd5b5061028a61073c36600461323e565b6129e7565b61028a61074f3660046130e3565b612b10565b34801561075f575f80fd5b5061028a61076e36600461323e565b612d72565b34801561077e575f80fd5b5061028a61078d36600461323e565b612db1565b34801561079d575f80fd5b506104986107ac36600461317a565b600760209081525f928352604080842090915290825290205460ff1681565b3480156107d6575f80fd5b506107ea6107e53660046130e3565b612ee5565b6040516102359190613499565b335f908152600d602052604090205460ff1615801561082057505f546001600160a01b03163314155b1561083e57604051631f0853c160e21b815260040160405180910390fd5b826001805f8381526003602081905260409091205460ff169081111561086657610866613485565b14610884576040516338961af360e21b815260040160405180910390fd5b5f8581526005602090815260408083206001600160a01b038816845290915290205460ff166108c65760405163d4ab835d60e01b815260040160405180910390fd5b5f8581526005602090815260408083206001600160a01b038716845290915290205460ff166109085760405163693dc3f160e11b815260040160405180910390fd5b5f8581526007602090815260408083206001600160a01b038816845290915290205460ff1661094a5760405163d5784a3760e01b815260040160405180910390fd5b5f8581526007602090815260408083206001600160a01b038716845290915290205460ff1661098c5760405163063cfc8b60e01b815260040160405180910390fd5b826001600160a01b0316846001600160a01b0316036109be576040516317b98eb360e01b815260040160405180910390fd5b5f8581526008602090815260408083206001600160a01b03881684529091528120805461ffff16916109ef8361356f565b825461ffff9182166101009390930a9283029190920219909116179055505f8581526007602090815260408083206001600160a01b0380881680865291909352818420805460ff19169055905190929187169188917f54ac16b72d4ff7517dd95987f0280de00d7543f7f0752a84cab5e89c5a5c7fba9190a4836001600160a01b0316836001600160a01b0316867ffc8d37eb25b7616a3ff25967e12cf70abc279add3258c35b94a2f3e8c4f8a3ed60405160405180910390a45050505050565b606060045f8381526020019081526020015f20805480602002602001604051908101604052809291908181526020015f905b82821015610b28575f848152602090819020604080518082019091529084015463ffffffff80821683526401000000009091041681830152825260019092019101610ae2565b505050509050919050565b805f805f8381526003602081905260409091205460ff1690811115610b5a57610b5a613485565b14610b78576040516338961af360e21b815260040160405180910390fd5b5f83815260026020908152604080832060039092529091206001820154600160a01b900464ffffffffff164211610bc2576040516302eb354360e41b815260040160405180910390fd5b60018201548154600160801b90910461ffff9081166101009092041610610bfc57604051638984cbd960e01b815260040160405180910390fd5b805460ff1916600317815560405185907f681705fdbd93dba3b679fd712577e9a86d57c5551c520f8c74857deb57f9623f905f90a25050505050565b610c40612fca565b61138861ffff82161115610c675760405163d086646b60e01b815260040160405180910390fd5b600c805461ffff83811661ffff1983168117909355604080519190921680825260208201939093527fd9fc5daadee0abb3bdf1761ce02c9dcafb18c2f3cbedf986abf9c7efeb95bf52910160405180910390a15050565b610cc6612ff6565b806003805f8381526003602081905260409091205460ff1690811115610cee57610cee613485565b14610d0c576040516338961af360e21b815260040160405180910390fd5b5f83815260056020908152604080832033845290915290205460ff16610d4557604051630deba79360e21b815260040160405180910390fd5b5f83815260066020908152604080832033845290915290205460ff1615610d7f57604051630c8d9eab60e31b815260040160405180910390fd5b5f83815260026020908152604080832060018082015460068552838620338088529552838620805460ff1916909217909155915190936001600160801b03909216929083908381818185875af1925050503d805f8114610dfa576040519150601f19603f3d011682016040523d82523d5f602084013e610dff565b606091505b5050905080610e21576040516312171d8360e31b815260040160405180910390fd5b604051828152339087907ff3f402280ef0a7905e124aa621b65eaeb2725c343e8b36d398ed78c29daf285c9060200160405180910390a35050505050610e7360015f8051602061392d83398151915255565b50565b335f908152600d602052604090205460ff16158015610e9f57505f546001600160a01b03163314155b15610ebd57604051631f0853c160e21b815260040160405180910390fd5b816001805f8381526003602081905260409091205460ff1690811115610ee557610ee5613485565b14610f03576040516338961af360e21b815260040160405180910390fd5b5f8481526005602090815260408083206001600160a01b038716845290915290205460ff16610f4557604051630deba79360e21b815260040160405180910390fd5b5f8481526007602090815260408083206001600160a01b038716845290915290205460ff16610f8757604051637b7d0a4160e11b815260040160405180910390fd5b5f8481526007602090815260408083206001600160a01b0387168085529252808320805460ff191690555186907ffc8d37eb25b7616a3ff25967e12cf70abc279add3258c35b94a2f3e8c4f8a3ed908490a450505050565b335f908152600d602052604081205460ff1615801561100857505f546001600160a01b03163314155b1561102657604051631f0853c160e21b815260040160405180910390fd5b610100611033858061358f565b90501115611054576040516324a25c5760e01b815260040160405180910390fd5b60026110666060860160408701613152565b61ffff1610156110895760405163556105d160e11b815260040160405180910390fd5b600261109b6080860160608701613152565b61ffff1610156110be57604051633ba43c0560e21b815260040160405180910390fd5b61270f6110d16080860160608701613152565b61ffff1611156110f4576040516333cb6de560e01b815260040160405180910390fd5b6111046060850160408601613152565b61ffff166111186080860160608701613152565b61ffff16101561113b5760405163eb37e90160e01b815260040160405180910390fd5b4261114c60a08601608087016135d9565b64ffffffffff16116111715760405163017d800b60e71b815260040160405180910390fd5b61118160a08501608086016135d9565b64ffffffffff1661119860c0860160a087016135d9565b64ffffffffff16116111bd57604051632ecd47cf60e01b815260040160405180910390fd5b6111cd60e0850160c0860161360e565b63ffffffff165f036111f257604051633eaa532d60e01b815260040160405180910390fd5b600c546127109061ffff1661120f61020087016101e08801613152565b61ffff166112256101e088016101c08901613152565b61ffff1661123b6101c089016101a08a01613152565b61ffff166112516101a08a016101808b01613152565b61ffff166112676101808b016101608c01613152565b61ffff166112759190613629565b61127f9190613629565b6112899190613629565b6112939190613629565b61129d9190613629565b146112bb57604051636ece8dd360e01b815260040160405180910390fd5b6112cd61018085016101608601613152565b61ffff165f036112f0576040516326e4d8e760e21b815260040160405180910390fd5b5f6113036101c086016101a08701613152565b61ffff1611801561132757506113216101a085016101808601613152565b61ffff16155b15611345576040516305e61c6160e11b815260040160405180910390fd5b60015f61135a6101a087016101808801613152565b61ffff161115611368575060025b5f61137b6101c087016101a08801613152565b61ffff161115611389575060035b61ffff811661139e6060870160408801613152565b61ffff1610156113c157604051632ac14d1d60e21b815260040160405180910390fd5b5f8390036113e2576040516387b16d3960e01b815260040160405180910390fd5b83835f8181106113f4576113f461363c565b61140a926020604090920201908101915061360e565b63ffffffff161561142e57604051637357b33560e01b815260040160405180910390fd5b60015b83811015611550578484611446600184613650565b8181106114555761145561363c565b61146b926020604090920201908101915061360e565b63ffffffff168585838181106114835761148361363c565b611499926020604090920201908101915061360e565b63ffffffff16116114c0576040516001625718cd60e01b0319815260040160405180910390fd5b84846114cd600184613650565b8181106114dc576114dc61363c565b90506040020160200160208101906114f4919061360e565b63ffffffff1685858381811061150c5761150c61363c565b9050604002016020016020810190611524919061360e565b63ffffffff16106115485760405163bc94e95d60e01b815260040160405180910390fd5b600101611431565b5060018054905f61156083613663565b909155506040805161024081019091529092508061157e878061358f565b8080601f0160208091040260200160405190810160405280939291908181526020018383808284375f920191909152505050908252506020908101906115ca906040890190890161367b565b6001600160801b031681526020016115e86060880160408901613152565b61ffff1681526020016116016080880160608901613152565b61ffff16815260200161161a60a08801608089016135d9565b64ffffffffff16815260200161163660c0880160a089016135d9565b64ffffffffff16815260200161165260e0880160c0890161360e565b63ffffffff16815264ffffffffff42166020820152336040820152606001611681610100880160e089016136a1565b60030b815260200161169b610120880161010089016136a1565b60030b81526020016116b5610140880161012089016136a1565b60030b81526020016116cf610160880161014089016136a1565b60030b81526020016116e961018088016101608901613152565b61ffff1681526020016117046101a088016101808901613152565b61ffff16815260200161171f6101c088016101a08901613152565b61ffff16815260200161173a6101e088016101c08901613152565b61ffff16815260200161175561020088016101e08901613152565b61ffff1690525f838152600260205260409020815181906117769082613759565b506020820151816001015f6101000a8154816001600160801b0302191690836001600160801b0316021790555060408201518160010160106101000a81548161ffff021916908361ffff16021790555060608201518160010160126101000a81548161ffff021916908361ffff16021790555060808201518160010160146101000a81548164ffffffffff021916908364ffffffffff16021790555060a08201518160010160196101000a81548164ffffffffff021916908364ffffffffff16021790555060c0820151816002015f6101000a81548163ffffffff021916908363ffffffff16021790555060e08201518160020160046101000a81548164ffffffffff021916908364ffffffffff1602179055506101008201518160020160096101000a8154816001600160a01b0302191690836001600160a01b03160217905550610120820151816003015f6101000a81548163ffffffff021916908360030b63ffffffff1602179055506101408201518160030160046101000a81548163ffffffff021916908360030b63ffffffff1602179055506101608201518160030160086101000a81548163ffffffff021916908360030b63ffffffff16021790555061018082015181600301600c6101000a81548163ffffffff021916908360030b63ffffffff1602179055506101a08201518160030160106101000a81548161ffff021916908361ffff1602179055506101c08201518160030160126101000a81548161ffff021916908361ffff1602179055506101e08201518160030160146101000a81548161ffff021916908361ffff1602179055506102008201518160030160166101000a81548161ffff021916908361ffff1602179055506102208201518160030160186101000a81548161ffff021916908361ffff1602179055509050505f5b83811015611a78575f838152600460205260409020858583818110611a4357611a4361363c565b83546001810185555f948552602090942060409091029290920192919091019050611a6e8282613819565b5050600101611a1c565b50817f4328820f6440d4b15c56b177f7e0e1b02c93a0e8e04cd33ef19385f5ddf5976e611aa5878061358f565b611ab560408a0160208b0161367b565b611ac560608b0160408c01613152565b611ad560808c0160608d01613152565b611ae66101008d0160e08e016136a1565b611af86101208e016101008f016136a1565b604051611b0b979695949392919061386f565b60405180910390a2509392505050565b611b23612fca565b611b2c5f613011565b565b5f8281526003602052604081206002815460ff166003811115611b5357611b53613485565b14611b61575f915050611cf1565b5f8481526006602090815260408083206001600160a01b038716845290915290205460ff1615611b94575f915050611cf1565b5f84815260026020526040812082546001840154919263010000009091046001600160801b0316916001600160a01b0390811690871603611c0457600383015461271090611bed90600160801b900461ffff16846138d6565b611bf791906138ed565b611c019082613629565b90505b60028401546001600160a01b0390811690871603611c5157600383015461271090611c3a90600160901b900461ffff16846138d6565b611c4491906138ed565b611c4e9082613629565b90505b60038401546001600160a01b0390811690871603611c9e57600383015461271090611c8790600160a01b900461ffff16846138d6565b611c9191906138ed565b611c9b9082613629565b90505b60048401546001600160a01b0390811690871603611ceb57600383015461271090611cd490600160b01b900461ffff16846138d6565b611cde91906138ed565b611ce89082613629565b90505b93505050505b92915050565b335f908152600d602052604090205460ff16158015611d2057505f546001600160a01b03163314155b15611d3e57604051631f0853c160e21b815260040160405180910390fd5b846001805f8381526003602081905260409091205460ff1690811115611d6657611d66613485565b14611d84576040516338961af360e21b815260040160405180910390fd5b5f8781526002602052604090206001600160a01b038716611db857604051633541411b60e01b815260040160405180910390fd5b5f8881526005602090815260408083206001600160a01b038b16845290915290205460ff16611dfa57604051630a866adb60e01b815260040160405180910390fd5b6003810154600160901b900461ffff1615611eaf576001600160a01b038616611e3657604051633541411b60e01b815260040160405180910390fd5b5f8881526005602090815260408083206001600160a01b038a16845290915290205460ff16611e7857604051630a866adb60e01b815260040160405180910390fd5b866001600160a01b0316866001600160a01b031603611eaa576040516370c4bf3560e01b815260040160405180910390fd5b611ed7565b6001600160a01b03861615611ed75760405163ec17252360e01b815260040160405180910390fd5b6003810154600160a01b900461ffff1615611fa9576001600160a01b038516611f1357604051633541411b60e01b815260040160405180910390fd5b5f8881526005602090815260408083206001600160a01b038916845290915290205460ff16611f5557604051630a866adb60e01b815260040160405180910390fd5b866001600160a01b0316856001600160a01b03161480611f865750856001600160a01b0316856001600160a01b0316145b15611fa4576040516370c4bf3560e01b815260040160405180910390fd5b611fd1565b6001600160a01b03851615611fd15760405163ec17252360e01b815260040160405180910390fd5b6003810154600160b01b900461ffff1615612054576001600160a01b03841661200d57604051632738e7bf60e21b815260040160405180910390fd5b5f8881526005602090815260408083206001600160a01b038816845290915290205460ff1661204f5760405163e5065a5160e01b815260040160405180910390fd5b61207c565b6001600160a01b0384161561207c57604051639e4d22ef60e01b815260040160405180910390fd5b5f88815260036020819052604082208054600260ff1990911681178083556001830180546001600160a01b03199081166001600160a01b038f811691909117909255928401805484168d8316179055838501805484168c8316179055600484018054909316908a161790915591840154909263010000009092046001600160801b031691906127109061211a90600160b01b900461ffff16846138d6565b61212491906138ed565b60038501546127109061214290600160a01b900461ffff16856138d6565b61214c91906138ed565b60038601546127109061216a90600160901b900461ffff16866138d6565b61217491906138ed565b60038701546127109061219290600160801b900461ffff16876138d6565b61219c91906138ed565b6121a69190613629565b6121b09190613629565b6121ba9190613629565b60038501549091505f90600160c01b900461ffff166121d9575f612201565b6003850154612710906121f790600160c01b900461ffff16856138d6565b61220191906138ed565b90508015612241576002850154600160481b90046001600160a01b03165f908152600b60205260408120805483929061223b908490613629565b90915550505b5f8161224d8486613650565b6122579190613650565b905080156122765780600a5f8282546122709190613629565b90915550505b604080516001600160a01b038e811682528d811660208301528c8116828401528b16606082015290518e917ffee0a3cabaf0e8e5d7192555a5715f541084cded162d1cc49d5383036847f7dc919081900360800190a250505050505050505050505050565b6122e3612fca565b6001600160a01b03811661230a5760405163d92e233d60e01b815260040160405180910390fd5b6001600160a01b0381165f818152600d6020526040808220805460ff19166001179055517fac6fa858e9350a46cec16539926e0fde25b7629f84b5a72bffaae4df888ae86d9190a250565b61235d612fca565b6001600160a01b0381165f908152600d602052604090205460ff1615610e73576001600160a01b0381165f818152600d6020526040808220805460ff19169055517f80c0b871b97b595b16a7741c1b06fed0c6f6f558639f18ccbce50724325dc40d9190a250565b806001805f8381526003602081905260409091205460ff16908111156123ed576123ed613485565b1461240b576040516338961af360e21b815260040160405180910390fd5b5f8381526002602081905260409091209081015460018201546124429163ffffffff1690600160c81b900464ffffffffff16613629565b42116124615760405163a8058ea960e01b815260040160405180910390fd5b5f848152600360208190526040808320805460ff19169092179091555185917f681705fdbd93dba3b679fd712577e9a86d57c5551c520f8c74857deb57f9623f91a250505050565b604080516102408101825260608082525f6020830181905292820183905281018290526080810182905260a0810182905260c0810182905260e08101829052610100810182905261012081018290526101408101829052610160810182905261018081018290526101a081018290526101c081018290526101e0810182905261020081018290526102208101919091525f828152600260205260409081902081516102408101909252805482908290612561906136d5565b80601f016020809104026020016040519081016040528092919081815260200182805461258d906136d5565b80156125d85780601f106125af576101008083540402835291602001916125d8565b820191905f5260205f20905b8154815290600101906020018083116125bb57829003601f168201915b505050918352505060018201546001600160801b038116602083015261ffff600160801b80830482166040850152600160901b8084048316606086015264ffffffffff600160a01b80860482166080880152600160c81b909504811660a0870152600287015463ffffffff811660c088015264010000000080820490921660e08801526001600160a01b03600160481b9091041661010087015260039687015480880b610120880152908104870b610140870152680100000000000000008104870b610160870152600160601b810490960b61018086015290850482166101a0850152840481166101c084015290830481166101e0830152600160b01b83048116610200830152600160c01b9092049091166102209091015292915050565b6126ff612ff6565b806002805f8381526003602081905260409091205460ff169081111561272757612727613485565b14612745576040516338961af360e21b815260040160405180910390fd5b5f83815260066020908152604080832033845290915290205460ff161561277f57604051630c8d9eab60e31b815260040160405180910390fd5b5f61278a8433611b2e565b9050805f036127ac5760405163273b4b7760e01b815260040160405180910390fd5b5f848152600660209081526040808320338085529252808320805460ff191660011790555183908381818185875af1925050503d805f8114612809576040519150601f19603f3d011682016040523d82523d5f602084013e61280e565b606091505b5050905080612830576040516312171d8360e31b815260040160405180910390fd5b604051828152339086907f4aa95f981a8337cb337de335b965507da0879c3b49f799d20058e913f5ad2c269060200160405180910390a350505050610e7360015f8051602061392d83398151915255565b335f908152600d602052604090205460ff161580156128aa57505f546001600160a01b03163314155b156128c857604051631f0853c160e21b815260040160405180910390fd5b805f805f8381526003602081905260409091205460ff16908111156128ef576128ef613485565b1461290d576040516338961af360e21b815260040160405180910390fd5b5f83815260036020908152604080832060029092529091206001810154600160c81b900464ffffffffff16421015612958576040516338912be360e01b815260040160405180910390fd5b60018101548254600160801b90910461ffff9081166101009092041610156129935760405163f770074360e01b815260040160405180910390fd5b815460ff191660011780835560405161ffff61010090920491909116815285907f04ed0b3845c85d64b6c40fcdf35d6bde85beaf870057dffacd9b44ca6cf869819060200160405180910390a25050505050565b6129ef612fca565b6129f7612ff6565b6001600160a01b038116612a1e5760405163d92e233d60e01b815260040160405180910390fd5b600a545f819003612a42576040516303fbecdf60e51b815260040160405180910390fd5b5f600a8190556040516001600160a01b0384169083908381818185875af1925050503d805f8114612a8e576040519150601f19603f3d011682016040523d82523d5f602084013e612a93565b606091505b5050905080612ab5576040516312171d8360e31b815260040160405180910390fd5b826001600160a01b03167ffc7ad544ff6a06d6499925723d25b6fe70457a42939995b1d3d6f560fe33633383604051612af091815260200190565b60405180910390a25050610e7360015f8051602061392d83398151915255565b805f805f8381526003602081905260409091205460ff1690811115612b3757612b37613485565b14612b55576040516338961af360e21b815260040160405180910390fd5b5f83815260026020908152604080832060039092529091206001820154600160a01b900464ffffffffff16421115612ba057604051632fc209f360e01b815260040160405180910390fd5b60018201546001600160801b03163414612bcd57604051635425860560e01b815260040160405180910390fd5b60018201548154600160901b90910461ffff9081166101009092041610612c075760405163b3ed896d60e01b815260040160405180910390fd5b5f85815260056020908152604080832033845290915290205460ff1615612c4157604051630ea075bf60e21b815260040160405180910390fd5b5f858152600560209081526040808320338085529083528184208054600160ff1991821681179092558a865260078552838620928652919093529220805490921681179091558154610100900461ffff16908290612c9e8361356f565b825461ffff91821661010093840a908102908302199091161790925583545f8981526009602090815260408083203384529091529020805461ffff19169290910490921617905550805434908290600390612d0b9084906001600160801b0363010000009091041661390c565b825461010092830a6001600160801b0381810219909216929091160217909155825460405191900461ffff16815233915086907f25164ae805171d79971e8e315eecb40061020c9346f40135903680f7270646469060200160405180910390a35050505050565b612d7a612fca565b6001600160a01b038116612da857604051631e4fbdf760e01b81525f60048201526024015b60405180910390fd5b610e7381613011565b612db9612ff6565b6001600160a01b038116612de05760405163d92e233d60e01b815260040160405180910390fd5b335f908152600b602052604081205490819003612e10576040516303fbecdf60e51b815260040160405180910390fd5b335f908152600b6020526040808220829055516001600160a01b0384169083908381818185875af1925050503d805f8114612e66576040519150601f19603f3d011682016040523d82523d5f602084013e612e6b565b606091505b5050905080612e8d576040516312171d8360e31b815260040160405180910390fd5b6040518281526001600160a01b0384169033907f1d9bd648787e565657449bd337e6ebf44646582a0a8eac81d051b198bf2ff49f9060200160405180910390a35050610e7360015f8051602061392d83398151915255565b6040805160e0810182525f80825260208201819052918101829052606081018290526080810182905260a0810182905260c08101919091525f82815260036020819052604091829020825160e0810190935280549091839160ff1690811115612f5057612f50613485565b6003811115612f6157612f61613485565b81528154610100810461ffff166020830152630100000090046001600160801b0316604082015260018201546001600160a01b0390811660608301526002830154811660808301526003830154811660a083015260049092015490911660c09091015292915050565b5f546001600160a01b03163314611b2c5760405163118cdaa760e01b8152336004820152602401612d9f565b612ffe613060565b60025f8051602061392d83398151915255565b5f80546001600160a01b038381166001600160a01b0319831681178455604051919092169283917f8be0079c531659141344cd1fd0a4f28419497f9722a3daafe3b4186f6b6457e09190a35050565b5f8051602061392d83398151915254600203611b2c57604051633ee5aeb560e01b815260040160405180910390fd5b80356001600160a01b03811681146130a5575f80fd5b919050565b5f805f606084860312156130bc575f80fd5b833592506130cc6020850161308f565b91506130da6040850161308f565b90509250925092565b5f602082840312156130f3575f80fd5b5035919050565b602080825282518282018190525f919060409081850190868401855b82811015613145578151805163ffffffff90811686529087015116868501529284019290850190600101613116565b5091979650505050505050565b5f60208284031215613162575f80fd5b813561ffff81168114613173575f80fd5b9392505050565b5f806040838503121561318b575f80fd5b8235915061319b6020840161308f565b90509250929050565b5f805f604084860312156131b6575f80fd5b833567ffffffffffffffff808211156131cd575f80fd5b9085019061020082880312156131e1575f80fd5b909350602085013590808211156131f6575f80fd5b818601915086601f830112613209575f80fd5b813581811115613217575f80fd5b8760208260061b850101111561322b575f80fd5b6020830194508093505050509250925092565b5f6020828403121561324e575f80fd5b6131738261308f565b5f805f805f60a0868803121561326b575f80fd5b8535945061327b6020870161308f565b93506132896040870161308f565b92506132976060870161308f565b91506132a56080870161308f565b90509295509295909350565b5f81518084525f5b818110156132d5576020818501810151868301820152016132b9565b505f602082860101526020601f19601f83011685010191505092915050565b602081525f82516102408060208501526133126102608501836132b1565b9150602085015161332e60408601826001600160801b03169052565b50604085015161ffff8116606086015250606085015161ffff8116608086015250608085015164ffffffffff811660a08601525060a085015164ffffffffff811660c08601525060c085015163ffffffff811660e08601525060e08501516101006133a18187018364ffffffffff169052565b86015190506101206133bd868201836001600160a01b03169052565b86015190506101406133d38682018360030b9052565b86015190506101606133e98682018360030b9052565b86015190506101806133ff8682018360030b9052565b86015190506101a06134158682018360030b9052565b86015190506101c061342c8682018361ffff169052565b86015190506101e06134438682018361ffff169052565b860151905061020061345a8682018361ffff169052565b86015190506102206134718682018361ffff169052565b9095015161ffff1693019290925250919050565b634e487b7160e01b5f52602160045260245ffd5b815160e0820190600481106134bc57634e487b7160e01b5f52602160045260245ffd5b8083525061ffff602084015116602083015260408301516134e860408401826001600160801b03169052565b50606083015161350360608401826001600160a01b03169052565b50608083015161351e60808401826001600160a01b03169052565b5060a083015161353960a08401826001600160a01b03169052565b5060c083015161355460c08401826001600160a01b03169052565b5092915050565b634e487b7160e01b5f52601160045260245ffd5b5f61ffff8083168181036135855761358561355b565b6001019392505050565b5f808335601e198436030181126135a4575f80fd5b83018035915067ffffffffffffffff8211156135be575f80fd5b6020019150368190038213156135d2575f80fd5b9250929050565b5f602082840312156135e9575f80fd5b813564ffffffffff81168114613173575f80fd5b63ffffffff81168114610e73575f80fd5b5f6020828403121561361e575f80fd5b8135613173816135fd565b80820180821115611cf157611cf161355b565b634e487b7160e01b5f52603260045260245ffd5b81810381811115611cf157611cf161355b565b5f600182016136745761367461355b565b5060010190565b5f6020828403121561368b575f80fd5b81356001600160801b0381168114613173575f80fd5b5f602082840312156136b1575f80fd5b81358060030b8114613173575f80fd5b634e487b7160e01b5f52604160045260245ffd5b600181811c908216806136e957607f821691505b60208210810361370757634e487b7160e01b5f52602260045260245ffd5b50919050565b601f82111561375457805f5260205f20601f840160051c810160208510156137325750805b601f840160051c820191505b81811015613751575f815560010161373e565b50505b505050565b815167ffffffffffffffff811115613773576137736136c1565b6137878161378184546136d5565b8461370d565b602080601f8311600181146137ba575f84156137a35750858301515b5f19600386901b1c1916600185901b178555613811565b5f85815260208120601f198616915b828110156137e8578886015182559484019460019091019084016137c9565b508582101561380557878501515f19600388901b60f8161c191681555b505060018460011b0185555b505050505050565b8135613824816135fd565b63ffffffff8116905081548163ffffffff1982161783556020840135613849816135fd565b67ffffffff000000008160201b168367ffffffffffffffff198416171784555050505050565b60c081528660c0820152868860e08301375f60e08883018101919091526001600160801b0396909616602082015261ffff9485166040820152929093166060830152600390810b60808301529190910b60a0820152601f909201601f191690910101919050565b8082028115828204841417611cf157611cf161355b565b5f8261390757634e487b7160e01b5f52601260045260245ffd5b500490565b6001600160801b038181168382160190808211156135545761355461355b56fe9b779b17422d0df92223018b32b4d1fa46e071723d6817e2486d003becc55f00a26469706673582212209d7f664f71dc86ce032511e34f647e9d75e6aefbd994ff513eb63517cd0d43cc64736f6c63430008180033","linkReferences":{}},"methodIdentifiers":{"BPS_TOTAL()":"2bbc59db","MAX_PLATFORM_FEE_BPS()":"8d01513c","MAX_PLAYERS()":"4411b3eb","MAX_TITLE_LENGTH()":"2ef9a160","addOperator(address)":"9870d7fe","claimPrize(uint256)":"d7098154","claimRefund(uint256)":"5b7baf64","createGame((string,uint128,uint16,uint16,uint40,uint40,uint32,int32,int32,int32,int32,uint16,uint16,uint16,uint16,uint16),(uint32,uint32)[])":"6566ac93","creatorFeesAccrued(address)":"c748713e","eliminatePlayer(uint256,address)":"650ccc31","endGame(uint256,address,address,address,address)":"818d465d","getClaimableAmount(uint256,address)":"78c5195e","getGameConfig(uint256)":"ce44b06e","getGameState(uint256)":"ffde0c74","getPlayerInfo(uint256,address)":"3ccd10e9","getZoneShrinks(uint256)":"346613af","hasClaimed(uint256,address)":"873f6f9e","isAlive(uint256,address)":"f927c9ea","isOperator(address)":"6d70f7ae","isRegistered(uint256,address)":"b81f6e18","killCount(uint256,address)":"b0df7ad3","nextGameId()":"b135bbb0","owner()":"8da5cb5b","platformFeeBps()":"22dcd13e","platformFeesAccrued()":"22163b86","playerNumber(uint256,address)":"d64821d6","recordKill(uint256,address,address)":"25ee2686","register(uint256)":"f207564e","removeOperator(address)":"ac8a584a","renounceOwnership()":"715018a6","setPlatformFeeBps(uint16)":"3bc1f7b3","startGame(uint256)":"e5ed1d59","transferOwnership(address)":"f2fde38b","triggerCancellation(uint256)":"35e257bc","triggerExpiry(uint256)":"ae61b1e7","withdrawCreatorFees(address)":"f4c5cdca","withdrawPlatformFees(address)":"ec3889b5"},"id":23}