{"abi":[{"type":"constructor","inputs":[{"name":"_platformFeeBps","type":"uint16","internalType":"uint16"}],"stateMutability":"nonpayable"},{"type":"function","name":"BPS_TOTAL","inputs":[],"outputs":[{"name":"","type":"uint256","internalType":"uint256"}],"stateMutability":"view"},{"type":"function","name":"MAX_PLATFORM_FEE_BPS","inputs":[],"outputs":[{"name":"","type":"uint16","internalType":"uint16"}],"stateMutability":"view"},{"type":"function","name":"MAX_PLAYERS","inputs":[],"outputs":[{"name":"","type":"uint16","internalType":"uint16"}],"stateMutability":"view"},{"type":"function","name":"MAX_TITLE_LENGTH","inputs":[],"outputs":[{"name":"","type":"uint256","internalType":"uint256"}],"stateMutability":"view"},{"type":"function","name":"addOperator","inputs":[{"name":"op","type":"address","internalType":"address"}],"outputs":[],"stateMutability":"nonpayable"},{"type":"function","name":"claimPrize","inputs":[{"name":"gameId","type":"uint256","internalType":"uint256"}],"outputs":[],"stateMutability":"nonpayable"},{"type":"function","name":"claimRefund","inputs":[{"name":"gameId","type":"uint256","internalType":"uint256"}],"outputs":[],"stateMutability":"nonpayable"},{"type":"function","name":"createGame","inputs":[{"name":"params","type":"tuple","internalType":"struct IChainAssassin.CreateGameParams","components":[{"name":"title","type":"string","internalType":"string"},{"name":"entryFee","type":"uint128","internalType":"uint128"},{"name":"minPlayers","type":"uint16","internalType":"uint16"},{"name":"maxPlayers","type":"uint16","internalType":"uint16"},{"name":"registrationDeadline","type":"uint40","internalType":"uint40"},{"name":"gameDate","type":"uint40","internalType":"uint40"},{"name":"maxDuration","type":"uint32","internalType":"uint32"},{"name":"centerLat","type":"int32","internalType":"int32"},{"name":"centerLng","type":"int32","internalType":"int32"},{"name":"meetingLat","type":"int32","internalType":"int32"},{"name":"meetingLng","type":"int32","internalType":"int32"},{"name":"bps1st","type":"uint16","internalType":"uint16"},{"name":"bps2nd","type":"uint16","internalType":"uint16"},{"name":"bps3rd","type":"uint16","internalType":"uint16"},{"name":"bpsKills","type":"uint16","internalType":"uint16"},{"name":"bpsCreator","type":"uint16","internalType":"uint16"}]},{"name":"shrinks","type":"tuple[]","internalType":"struct IChainAssassin.ZoneShrink[]","components":[{"name":"atSecond","type":"uint32","internalType":"uint32"},{"name":"radiusMeters","type":"uint32","internalType":"uint32"}]}],"outputs":[{"name":"gameId","type":"uint256","internalType":"uint256"}],"stateMutability":"payable"},{"type":"function","name":"creatorFeesAccrued","inputs":[{"name":"","type":"address","internalType":"address"}],"outputs":[{"name":"","type":"uint256","internalType":"uint256"}],"stateMutability":"view"},{"type":"function","name":"eliminatePlayer","inputs":[{"name":"gameId","type":"uint256","internalType":"uint256"},{"name":"pNum","type":"uint16","internalType":"uint16"}],"outputs":[],"stateMutability":"nonpayable"},{"type":"function","name":"endGame","inputs":[{"name":"gameId","type":"uint256","internalType":"uint256"},{"name":"winner1","type":"uint16","internalType":"uint16"},{"name":"winner2","type":"uint16","internalType":"uint16"},{"name":"winner3","type":"uint16","internalType":"uint16"},{"name":"topKiller","type":"uint16","internalType":"uint16"}],"outputs":[],"stateMutability":"nonpayable"},{"type":"function","name":"getClaimableAmount","inputs":[{"name":"gameId","type":"uint256","internalType":"uint256"},{"name":"player","type":"address","internalType":"address"}],"outputs":[{"name":"","type":"uint256","internalType":"uint256"}],"stateMutability":"view"},{"type":"function","name":"getGameConfig","inputs":[{"name":"gameId","type":"uint256","internalType":"uint256"}],"outputs":[{"name":"","type":"tuple","internalType":"struct IChainAssassin.GameConfig","components":[{"name":"title","type":"string","internalType":"string"},{"name":"entryFee","type":"uint128","internalType":"uint128"},{"name":"minPlayers","type":"uint16","internalType":"uint16"},{"name":"maxPlayers","type":"uint16","internalType":"uint16"},{"name":"registrationDeadline","type":"uint40","internalType":"uint40"},{"name":"gameDate","type":"uint40","internalType":"uint40"},{"name":"maxDuration","type":"uint32","internalType":"uint32"},{"name":"createdAt","type":"uint40","internalType":"uint40"},{"name":"creator","type":"address","internalType":"address"},{"name":"centerLat","type":"int32","internalType":"int32"},{"name":"centerLng","type":"int32","internalType":"int32"},{"name":"meetingLat","type":"int32","internalType":"int32"},{"name":"meetingLng","type":"int32","internalType":"int32"},{"name":"bps1st","type":"uint16","internalType":"uint16"},{"name":"bps2nd","type":"uint16","internalType":"uint16"},{"name":"bps3rd","type":"uint16","internalType":"uint16"},{"name":"bpsKills","type":"uint16","internalType":"uint16"},{"name":"bpsCreator","type":"uint16","internalType":"uint16"},{"name":"baseReward","type":"uint128","internalType":"uint128"}]}],"stateMutability":"view"},{"type":"function","name":"getGameState","inputs":[{"name":"gameId","type":"uint256","internalType":"uint256"}],"outputs":[{"name":"","type":"tuple","internalType":"struct IChainAssassin.GameState","components":[{"name":"phase","type":"uint8","internalType":"enum IChainAssassin.GamePhase"},{"name":"playerCount","type":"uint16","internalType":"uint16"},{"name":"totalCollected","type":"uint128","internalType":"uint128"},{"name":"winner1","type":"uint16","internalType":"uint16"},{"name":"winner2","type":"uint16","internalType":"uint16"},{"name":"winner3","type":"uint16","internalType":"uint16"},{"name":"topKiller","type":"uint16","internalType":"uint16"}]}],"stateMutability":"view"},{"type":"function","name":"getPlayer","inputs":[{"name":"gameId","type":"uint256","internalType":"uint256"},{"name":"pNum","type":"uint16","internalType":"uint16"}],"outputs":[{"name":"","type":"tuple","internalType":"struct IChainAssassin.PlayerState","components":[{"name":"addr","type":"address","internalType":"address"},{"name":"alive","type":"bool","internalType":"bool"},{"name":"claimed","type":"bool","internalType":"bool"},{"name":"killCount","type":"uint16","internalType":"uint16"}]}],"stateMutability":"view"},{"type":"function","name":"getPlayerInfo","inputs":[{"name":"gameId","type":"uint256","internalType":"uint256"},{"name":"player","type":"address","internalType":"address"}],"outputs":[{"name":"registered","type":"bool","internalType":"bool"},{"name":"alive","type":"bool","internalType":"bool"},{"name":"kills","type":"uint16","internalType":"uint16"},{"name":"claimed","type":"bool","internalType":"bool"},{"name":"number","type":"uint16","internalType":"uint16"}],"stateMutability":"view"},{"type":"function","name":"getZoneShrinks","inputs":[{"name":"gameId","type":"uint256","internalType":"uint256"}],"outputs":[{"name":"","type":"tuple[]","internalType":"struct IChainAssassin.ZoneShrink[]","components":[{"name":"atSecond","type":"uint32","internalType":"uint32"},{"name":"radiusMeters","type":"uint32","internalType":"uint32"}]}],"stateMutability":"view"},{"type":"function","name":"isOperator","inputs":[{"name":"","type":"address","internalType":"address"}],"outputs":[{"name":"","type":"bool","internalType":"bool"}],"stateMutability":"view"},{"type":"function","name":"nextGameId","inputs":[],"outputs":[{"name":"","type":"uint256","internalType":"uint256"}],"stateMutability":"view"},{"type":"function","name":"owner","inputs":[],"outputs":[{"name":"","type":"address","internalType":"address"}],"stateMutability":"view"},{"type":"function","name":"platformFeeBps","inputs":[],"outputs":[{"name":"","type":"uint16","internalType":"uint16"}],"stateMutability":"view"},{"type":"function","name":"platformFeesAccrued","inputs":[],"outputs":[{"name":"","type":"uint256","internalType":"uint256"}],"stateMutability":"view"},{"type":"function","name":"playerNumber","inputs":[{"name":"","type":"uint256","internalType":"uint256"},{"name":"","type":"address","internalType":"address"}],"outputs":[{"name":"","type":"uint16","internalType":"uint16"}],"stateMutability":"view"},{"type":"function","name":"players","inputs":[{"name":"","type":"uint256","internalType":"uint256"},{"name":"","type":"uint16","internalType":"uint16"}],"outputs":[{"name":"addr","type":"address","internalType":"address"},{"name":"alive","type":"bool","internalType":"bool"},{"name":"claimed","type":"bool","internalType":"bool"},{"name":"killCount","type":"uint16","internalType":"uint16"}],"stateMutability":"view"},{"type":"function","name":"recordKill","inputs":[{"name":"gameId","type":"uint256","internalType":"uint256"},{"name":"hunter","type":"uint16","internalType":"uint16"},{"name":"target","type":"uint16","internalType":"uint16"}],"outputs":[],"stateMutability":"nonpayable"},{"type":"function","name":"register","inputs":[{"name":"gameId","type":"uint256","internalType":"uint256"}],"outputs":[],"stateMutability":"payable"},{"type":"function","name":"removeOperator","inputs":[{"name":"op","type":"address","internalType":"address"}],"outputs":[],"stateMutability":"nonpayable"},{"type":"function","name":"renounceOwnership","inputs":[],"outputs":[],"stateMutability":"nonpayable"},{"type":"function","name":"setPlatformFeeBps","inputs":[{"name":"newBps","type":"uint16","internalType":"uint16"}],"outputs":[],"stateMutability":"nonpayable"},{"type":"function","name":"startGame","inputs":[{"name":"gameId","type":"uint256","internalType":"uint256"}],"outputs":[],"stateMutability":"nonpayable"},{"type":"function","name":"transferOwnership","inputs":[{"name":"newOwner","type":"address","internalType":"address"}],"outputs":[],"stateMutability":"nonpayable"},{"type":"function","name":"triggerCancellation","inputs":[{"name":"gameId","type":"uint256","internalType":"uint256"}],"outputs":[],"stateMutability":"nonpayable"},{"type":"function","name":"triggerExpiry","inputs":[{"name":"gameId","type":"uint256","internalType":"uint256"}],"outputs":[],"stateMutability":"nonpayable"},{"type":"function","name":"withdrawCreatorFees","inputs":[{"name":"to","type":"address","internalType":"address"}],"outputs":[],"stateMutability":"nonpayable"},{"type":"function","name":"withdrawPlatformFees","inputs":[{"name":"to","type":"address","internalType":"address"}],"outputs":[],"stateMutability":"nonpayable"},{"type":"event","name":"CreatorFeesWithdrawn","inputs":[{"name":"creator","type":"address","indexed":true,"internalType":"address"},{"name":"to","type":"address","indexed":true,"internalType":"address"},{"name":"amount","type":"uint256","indexed":false,"internalType":"uint256"}],"anonymous":false},{"type":"event","name":"GameCancelled","inputs":[{"name":"gameId","type":"uint256","indexed":true,"internalType":"uint256"}],"anonymous":false},{"type":"event","name":"GameCreated","inputs":[{"name":"gameId","type":"uint256","indexed":true,"internalType":"uint256"},{"name":"title","type":"string","indexed":false,"internalType":"string"},{"name":"entryFee","type":"uint128","indexed":false,"internalType":"uint128"},{"name":"baseReward","type":"uint128","indexed":false,"internalType":"uint128"},{"name":"minPlayers","type":"uint16","indexed":false,"internalType":"uint16"},{"name":"maxPlayers","type":"uint16","indexed":false,"internalType":"uint16"},{"name":"centerLat","type":"int32","indexed":false,"internalType":"int32"},{"name":"centerLng","type":"int32","indexed":false,"internalType":"int32"}],"anonymous":false},{"type":"event","name":"GameEnded","inputs":[{"name":"gameId","type":"uint256","indexed":true,"internalType":"uint256"},{"name":"winner1","type":"uint16","indexed":false,"internalType":"uint16"},{"name":"winner2","type":"uint16","indexed":false,"internalType":"uint16"},{"name":"winner3","type":"uint16","indexed":false,"internalType":"uint16"},{"name":"topKiller","type":"uint16","indexed":false,"internalType":"uint16"}],"anonymous":false},{"type":"event","name":"GameStarted","inputs":[{"name":"gameId","type":"uint256","indexed":true,"internalType":"uint256"},{"name":"playerCount","type":"uint16","indexed":false,"internalType":"uint16"}],"anonymous":false},{"type":"event","name":"KillRecorded","inputs":[{"name":"gameId","type":"uint256","indexed":true,"internalType":"uint256"},{"name":"hunter","type":"uint16","indexed":true,"internalType":"uint16"},{"name":"target","type":"uint16","indexed":true,"internalType":"uint16"}],"anonymous":false},{"type":"event","name":"OperatorAdded","inputs":[{"name":"operator","type":"address","indexed":true,"internalType":"address"}],"anonymous":false},{"type":"event","name":"OperatorRemoved","inputs":[{"name":"operator","type":"address","indexed":true,"internalType":"address"}],"anonymous":false},{"type":"event","name":"OwnershipTransferred","inputs":[{"name":"previousOwner","type":"address","indexed":true,"internalType":"address"},{"name":"newOwner","type":"address","indexed":true,"internalType":"address"}],"anonymous":false},{"type":"event","name":"PlatformFeeBpsUpdated","inputs":[{"name":"oldBps","type":"uint16","indexed":false,"internalType":"uint16"},{"name":"newBps","type":"uint16","indexed":false,"internalType":"uint16"}],"anonymous":false},{"type":"event","name":"PlatformFeesWithdrawn","inputs":[{"name":"to","type":"address","indexed":true,"internalType":"address"},{"name":"amount","type":"uint256","indexed":false,"internalType":"uint256"}],"anonymous":false},{"type":"event","name":"PlayerEliminated","inputs":[{"name":"gameId","type":"uint256","indexed":true,"internalType":"uint256"},{"name":"playerNumber","type":"uint16","indexed":true,"internalType":"uint16"},{"name":"eliminator","type":"uint16","indexed":true,"internalType":"uint16"}],"anonymous":false},{"type":"event","name":"PlayerRegistered","inputs":[{"name":"gameId","type":"uint256","indexed":true,"internalType":"uint256"},{"name":"playerNumber","type":"uint16","indexed":true,"internalType":"uint16"}],"anonymous":false},{"type":"event","name":"PrizeClaimed","inputs":[{"name":"gameId","type":"uint256","indexed":true,"internalType":"uint256"},{"name":"playerNumber","type":"uint16","indexed":true,"internalType":"uint16"},{"name":"amount","type":"uint256","indexed":false,"internalType":"uint256"}],"anonymous":false},{"type":"event","name":"RefundClaimed","inputs":[{"name":"gameId","type":"uint256","indexed":true,"internalType":"uint256"},{"name":"playerNumber","type":"uint16","indexed":true,"internalType":"uint16"},{"name":"amount","type":"uint256","indexed":false,"internalType":"uint256"}],"anonymous":false},{"type":"error","name":"AlreadyClaimed","inputs":[]},{"type":"error","name":"AlreadyRegistered","inputs":[]},{"type":"error","name":"BpsSumNot10000","inputs":[]},{"type":"error","name":"CannotSelfKill","inputs":[]},{"type":"error","name":"DeadlineInPast","inputs":[]},{"type":"error","name":"DeadlineNotPassed","inputs":[]},{"type":"error","name":"EnoughPlayers","inputs":[]},{"type":"error","name":"FirstShrinkMustBeZero","inputs":[]},{"type":"error","name":"GameDateNotAfterDeadline","inputs":[]},{"type":"error","name":"GameDateNotReached","inputs":[]},{"type":"error","name":"GameFull","inputs":[]},{"type":"error","name":"HunterNotAlive","inputs":[]},{"type":"error","name":"HunterNotRegistered","inputs":[]},{"type":"error","name":"MaxDurationZero","inputs":[]},{"type":"error","name":"MaxLessThanMin","inputs":[]},{"type":"error","name":"MaxPlayersTooHigh","inputs":[]},{"type":"error","name":"MaxPlayersTooLow","inputs":[]},{"type":"error","name":"MinPlayersLessThanPrizeSlots","inputs":[]},{"type":"error","name":"MinPlayersTooLow","inputs":[]},{"type":"error","name":"Need2ndIf3rdSet","inputs":[]},{"type":"error","name":"NeedFirstPrize","inputs":[]},{"type":"error","name":"NoFees","inputs":[]},{"type":"error","name":"NoPrize","inputs":[]},{"type":"error","name":"NoShrinkSchedule","inputs":[]},{"type":"error","name":"NotEnoughPlayers","inputs":[]},{"type":"error","name":"NotExpiredYet","inputs":[]},{"type":"error","name":"NotOperator","inputs":[]},{"type":"error","name":"OwnableInvalidOwner","inputs":[{"name":"owner","type":"address","internalType":"address"}]},{"type":"error","name":"OwnableUnauthorizedAccount","inputs":[{"name":"account","type":"address","internalType":"address"}]},{"type":"error","name":"PlatformFeeTooHigh","inputs":[]},{"type":"error","name":"PlayerNotAlive","inputs":[]},{"type":"error","name":"PlayerNotRegistered","inputs":[]},{"type":"error","name":"RadiiNotDecreasing","inputs":[]},{"type":"error","name":"ReentrancyGuardReentrantCall","inputs":[]},{"type":"error","name":"RegistrationClosed","inputs":[]},{"type":"error","name":"ShrinksNotOrdered","inputs":[]},{"type":"error","name":"TargetNotAlive","inputs":[]},{"type":"error","name":"TargetNotRegistered","inputs":[]},{"type":"error","name":"TitleTooLong","inputs":[]},{"type":"error","name":"TopKillerNotRegistered","inputs":[]},{"type":"error","name":"TopKillerZeroAddress","inputs":[]},{"type":"error","name":"TransferFailed","inputs":[]},{"type":"error","name":"UnusedTopKillerNotZero","inputs":[]},{"type":"error","name":"UnusedWinnerNotZero","inputs":[]},{"type":"error","name":"WinnerNotRegistered","inputs":[]},{"type":"error","name":"WinnerZeroAddress","inputs":[]},{"type":"error","name":"WinnersNotUnique","inputs":[]},{"type":"error","name":"WrongEntryFee","inputs":[]},{"type":"error","name":"WrongPhase","inputs":[]},{"type":"error","name":"ZeroAddress","inputs":[]}],"bytecode":{"object":"0x6080346200014457601f62002eec38819003918201601f191683019291906001600160401b038411838510176200014857816020928492604096875283398101031262000144575161ffff8116809103620001445733156200012d575f8054336001600160a01b031982168117835584519290916001600160a01b0316907f8be0079c531659141344cd1fd0a4f28419497f9722a3daafe3b4186f6b6457e09080a360017f9b779b17422d0df92223018b32b4d1fa46e071723d6817e2486d003becc55f0055600180556107d082116200011e575081817fd9fc5daadee0abb3bdf1761ce02c9dcafb18c2f3cbedf986abf9c7efeb95bf529261ffff1960095416176009558151905f82526020820152a151612d8f90816200015d8239f35b63d086646b60e01b8152600490fd5b8151631e4fbdf760e01b81525f6004820152602490fd5b5f80fd5b634e487b7160e01b5f52604160045260245ffdfe610160806040526004361015610013575f80fd5b5f3560e01c90816322163b86146128995750806322dcd13e146128785780632bbc59db1461285c5780632ecd6bab146127705780632ef9a16014612754578063346613af1461266d57806335e257bc146125665780633bc1f7b3146124df5780633ccd10e91461248e578063428978b8146122c25780634411b3eb146122a657806347d84c0f14611ec05780635b7baf6414611dc65780636566ac93146111605780636a10b0a1146110f05780636d70f7ae146110b3578063715018a61461105c57806378c5195e1461102e57806389f1bebc14610f715780638d01513c14610f555780638da5cb5b14610f2e5780639870d7fe14610ec1578063ac8a584a14610e96578063ae61b1e714610d80578063b135bbb014610d63578063c748713e14610d2b578063ce44b06e14610971578063d64821d614610929578063d709815414610802578063e5ed1d59146106f2578063ec3889b514610656578063f207564e1461041f578063f2fde38b14610395578063f4c5cdca146102b65763ffde0c741461019e575f80fd5b346102b25760203660031901126102b2575f60c06040516101be81612938565b8281528260208201528260408201528260608201528260808201528260a082015201526004355f52600360205260405f20604051906101fc82612938565b5460ff811690600482101561029e5780838360e0955261ffff928382816020819501818560081c1681526001600160801b0360408401818760181c168152836060860193818960981c1685528160c06080890198828c60a81c168a528260a082019c60b81c168c52019b60c81c168b526040519c8d52511660208c0152511660408a01525116606088015251166080860152511660a0840152511660c0820152f35b634e487b7160e01b5f52602160045260245ffd5b5f80fd5b346102b25760203660031901126102b2576102cf6128eb565b6102d7612d0a565b6001600160a01b03811690811561038357335f52600860205260405f2054908115610371575f808084819433835260086020528260408120555af161031a612a3c565b501561035f576040519081527f1d9bd648787e565657449bd337e6ebf44646582a0a8eac81d051b198bf2ff49f60203392a360015f80516020612d3a83398151915255005b6040516312171d8360e31b8152600490fd5b6040516303fbecdf60e51b8152600490fd5b60405163d92e233d60e01b8152600490fd5b346102b25760203660031901126102b2576103ae6128eb565b6103b6612cdf565b6001600160a01b03908116908115610407575f54826bffffffffffffffffffffffff60a01b8216175f55167f8be0079c531659141344cd1fd0a4f28419497f9722a3daafe3b4186f6b6457e05f80a3005b604051631e4fbdf760e01b81525f6004820152602490fd5b6020806003193601126102b257600435805f526003825260ff60405f205416600481101561029e5761064457805f526002825260405f2060038352600160405f209101549264ffffffffff8460a01c164211610632576001600160801b039081851634036106205782549061ffff9586808460081c169160901c1681101561060e57855f526006825260405f20335f5282528660405f2054166105fc5761058c9262ffff006104ce89936129ee565b60081b169062ffff0019161780865560081c1695855f526006825260405f20335f52825260405f208761ffff198254161790556040519161050e8361291d565b33835260018184019081525f6040808601828152606087018381528b8452600586528284208d85529095529120945185549251915193516001600160c01b03199093166001600160a01b03919091161790151560a01b60ff60a01b161791151560a81b60ff60a81b1691909117911660b01b61ffff60b01b16179055565b80341681835460181c16019081116105e85781546301000000600160981b03191660189190911b6301000000600160981b03161790557febe3e9915faa635a8fef02bf11d31dab756f666069a571d42f13758ed733697b5f80a3005b634e487b7160e01b5f52601160045260245ffd5b604051630ea075bf60e21b8152600490fd5b60405163b3ed896d60e01b8152600490fd5b604051635425860560e01b8152600490fd5b604051632fc209f360e01b8152600490fd5b6040516338961af360e21b8152600490fd5b346102b25760203660031901126102b25761066f6128eb565b610677612cdf565b61067f612d0a565b6001600160a01b03811690811561038357600754908115610371575f8080848194826007555af16106ae612a3c565b501561035f5760207ffc7ad544ff6a06d6499925723d25b6fe70457a42939995b1d3d6f560fe33633391604051908152a260015f80516020612d3a83398151915255005b346102b2576020806003193601126102b25760043590335f52600a815260ff60405f20541615806107ee575b6107dc57815f526003815260ff60405f205416600481101561029e5761064457815f526003815260405f209060028152600160405f2001549164ffffffffff8360c81c1642106107ca5780549261ffff809160801c16818560081c16106107b85760017f04ed0b3845c85d64b6c40fcdf35d6bde85beaf870057dffacd9b44ca6cf869819460ff1916178092556040519160081c168152a2005b60405163f770074360e01b8152600490fd5b6040516338912be360e01b8152600490fd5b604051631f0853c160e21b8152600490fd5b505f546001600160a01b031633141561071e565b346102b2576020806003193601126102b25760043561081f612d0a565b805f526003825260ff60405f205416600481101561029e5760020361064457805f526006825260405f20335f52825261ffff60405f20541691821561091757815f526005815260405f20835f52815260405f209081549160ff8360a81c166109055761088b3385612b39565b9283156108f35760ff60a81b1916600160a81b1790555f80808085335af16108b1612a3c565b501561035f577f6bddcf26c37035967d6a991adc17e347f50956eea63b9aae1c6c7026ef8790a291604051908152a360015f80516020612d3a83398151915255005b60405163273b4b7760e01b8152600490fd5b604051630c8d9eab60e31b8152600490fd5b604051630deba79360e21b8152600490fd5b346102b25760403660031901126102b2576109426128d5565b6004355f52600660205260405f209060018060a01b03165f52602052602061ffff60405f205416604051908152f35b346102b25760203660031901126102b2575f61024060405161099281612901565b606081528260208201528260408201528260608201528260808201528260a08201528260c08201528260e08201528261010082015282610120820152826101408201528261016082015282610180820152826101a0820152826101c0820152826101e0820152826102008201528261022082015201526004355f52600260205260405f2060405190610a2382612901565b6040515f8254610a3281612b01565b8084529060018116908115610d095750600114610ccf575b509181610a636004936001600160801b03950382612953565b845264ffffffffff6001820154848116602087015261ffff8160801c16604087015261ffff8160901c166060870152818160a01c16608087015260c81c1660a0850152600281015463ffffffff811660c086015264ffffffffff8160201c1660e086015260018060a01b039060481c1661010085015261ffff60038201548060030b6101208701528060201c60030b6101408701528060401c60030b6101608701528060601c60030b610180870152818160801c166101a0870152818160901c166101c0870152818160a01c166101e0870152818160b01c1661020087015260c01c166102208501520154166102408201526040519060208252818151916102606020830152825192836102808401525f5b848110610cb6575050916001600160801b036102406102a0945f86858701015282602082015116604086015261ffff604082015116606086015261ffff606082015116608086015264ffffffffff60808201511660a086015264ffffffffff60a08201511660c086015263ffffffff60c08201511660e086015264ffffffffff60e08201511661010086015260018060a01b036101008201511661012086015261012081015160030b61014086015261014081015160030b61016086015261016081015160030b61018086015261018081015160030b6101a086015261ffff6101a0820151166101c086015261ffff6101c0820151166101e086015261ffff6101e08201511661020086015261ffff6102008201511661022086015261ffff6102208201511682860152015116610260830152601f80199101168101030190f35b60208282018101516102a0888401015286945001610b75565b5f848152602081209092505b818310610cef575050810160200181610a4a565b600181602092949394548385880101520191019190610cdb565b60ff191660208086019190915291151560051b84019091019150829050610a4a565b346102b25760203660031901126102b2576001600160a01b03610d4c6128eb565b165f526008602052602060405f2054604051908152f35b346102b2575f3660031901126102b2576020600154604051908152f35b346102b25760203660031901126102b257600435805f52600360205260ff60405f205416600481101561029e5760018114159081610e8c575b5061064457805f52600260205260405f2064ffffffffff600182015460c81c1690610df0600282019263ffffffff84541690612974565b421115610e7a5760046001600160801b0391845f52600360205260405f20600360ff198254161790550154169081610e4a575b827f681705fdbd93dba3b679fd712577e9a86d57c5551c520f8c74857deb57f9623f5f80a2005b5460481c6001600160a01b03165f90815260086020526040902080549091610e7191612974565b90558180610e23565b60405163a8058ea960e01b8152600490fd5b9050151582610db9565b346102b25760203660031901126102b257610ebf610eb26128eb565b610eba612cdf565b612c8d565b005b346102b25760203660031901126102b257610eda6128eb565b610ee2612cdf565b6001600160a01b0316801561038357805f52600a60205260405f20600160ff198254161790557fac6fa858e9350a46cec16539926e0fde25b7629f84b5a72bffaae4df888ae86d5f80a2005b346102b2575f3660031901126102b2575f546040516001600160a01b039091168152602090f35b346102b2575f3660031901126102b25760206040516107d08152f35b346102b25760403660031901126102b2576080610f8c6128b3565b5f6060604051610f9b8161291d565b82815282602082015282604082015201526004355f52600560205260405f2061ffff8092165f5260205260405f209060405191610fd78361291d565b5460018060a01b038116928381526020810160ff8360a01c1615158152836060604084019360ff8660a81c1615158552019360b01c1683526040519485525115156020850152511515604084015251166060820152f35b346102b25760403660031901126102b257602061105461104c6128d5565b600435612b39565b604051908152f35b346102b2575f3660031901126102b257611074612cdf565b5f80546001600160a01b0319811682556001600160a01b03167f8be0079c531659141344cd1fd0a4f28419497f9722a3daafe3b4186f6b6457e08280a3005b346102b25760203660031901126102b2576001600160a01b036110d46128eb565b165f52600a602052602060ff60405f2054166040519015158152f35b346102b25760403660031901126102b257608061110b6128b3565b6004355f52600560205260405f2061ffff8092165f5260205260405f2054906040519160018060a01b038116835260ff8160a01c161515602084015260ff8160a81c161515604084015260b01c166060820152f35b6003196040368201126102b2576001600160401b03600435116102b25761020090600435360301126102b2576024356001600160401b0381116102b257366023820112156102b2576001600160401b038160040135116102b257366024826004013560061b830101116102b257335f52600a60205260ff60405f2054161580611db2575b6107dc576101006111f9600480350180612a6b565b905011611da057600261ffff611213604460043501612a9d565b1610611d8e57600261ffff61122c606460043501612a9d565b1610611d7c5761270f61ffff611246606460043501612a9d565b1611611d6a5761125a606460043501612a9d565b61ffff8061126c604460043501612a9d565b16911610611d5857611282608460043501612aac565b64ffffffffff4291161115611d465761129f60a460043501612aac565b64ffffffffff806112b4608460043501612aac565b1691161115611d345763ffffffff6112d060c460043501612abe565b1615611d225761271061135761134a61133861132661131461ffff6112fa61016460043501612a9d565b1661ffff61130d61018460043501612a9d565b1690612974565b61ffff61130d6101a460043501612a9d565b61ffff61130d6101c460043501612a9d565b61ffff61130d6101e460043501612a9d565b61ffff6009541690612974565b03611d105761ffff61136e61016460043501612a9d565b1615611cfe5761ffff6113866101a460043501612a9d565b16151580611ce4575b611cd257600161ffff6113a761018460043501612a9d565b16611cca575b61ffff6113bf6101a460043501612a9d565b16611cc2575b61ffff806113d7604460043501612a9d565b9216911610611cb057806004013515611c9e5763ffffffff6113fb60248301612abe565b16611c8c5760015b81600401358110611bcc5750600154905f1982146105e85760018281019055611430600480350180612a6b565b60c052611441602460043501612adf565b61144f604460043501612a9d565b61145d606460043501612a9d565b9261146c608460043501612aac565b60805261147d60a460043501612aac565b6101205261148f60c460043501612abe565b610140526114a160e460043501612af3565b906114b161010460043501612af3565b6114c061012460043501612af3565b6114cf61014460043501612af3565b906114df61016460043501612a9d565b926114ef61018460043501612a9d565b956114ff6101a460043501612a9d565b9861150f6101c460043501612a9d565b60a0526115216101e460043501612a9d565b60e0526040516101005261153761010051612901565b61154260c051612a21565b9a6115506040519c8d612953565b60c0518c523660c0518901116102b25761ffff809c9a6001600160801b03829c94839b95849660c0519060208301375f602060c05183010152610100515216602061010051015216604061010051015216606061010051015264ffffffffff60805116608061010051015264ffffffffff610120511660a061010051015263ffffffff610140511660c061010051015264ffffffffff421660e0610100510152336101008051015260030b61012061010051015260030b61014061010051015260030b61016061010051015260030b610180610100510152166101a0610100510152166101c0610100510152166101e061010051015261ffff60a0511661020061010051015261ffff60e051166102206101005101526001600160801b033416610240610100510152815f52600260205260405f209161010051519283516001600160401b038111611acf576116a68254612b01565b601f8111611b8b575b506020601f8211600114611b2257819060049495965f92611b17575b50508160011b915f199060031b1c19161781555b61010051602081015160018301805460409093015161ffff60801b60809190911b166001600160801b039092166001600160901b031990931692909217179055610100516060015160018201805461ffff60901b191660909290921b61ffff60901b16919091179055610100805160808082015160018501805460a08086015164ffffffffff60c81b60c89190911b1664ffffffffff60a01b9490911b9390931669ffffffffffffffffffff60a01b199091161791909117905560c082015160028501805460e0850151958501516901000000000000000000600160e81b0360489190911b1668ffffffffff00000000602097881b1663ffffffff9485166001600160e81b031990931692909217919091171790556101208301516003860180546101408601516101608701516101808801516101a09098015161ffff60801b971b9690961660609790971b63ffffffff60601b166bffffffff000000000000000060409790971b96909616971b67ffffffff0000000016929093166001600160901b031990931692909217179390931717179055610100516101c0015160038201805461ffff60901b191660909290921b61ffff60901b16919091179055610100516101e08101516003830180546102009093015163ffffffff60a01b1990931660a09290921b61ffff60a01b169190911760b09290921b61ffff60b01b1691909117905561022061010051015160038201549061ffff60c01b9060c01b169061ffff60c01b1916176003820155016001600160801b03610240610100510151166001600160801b031982541617905534611ae3575b5f5b82600401358110611a3157602082807f62b7a00b0dc49ec11aa6a2b490734eef71187c817dea0522f63e2af42442775b610100611979600480350180612a6b565b91908261198a602460043501612adf565b611998604460043501612a9d565b61ffff6119a9606460043501612a9d565b816119b860e460043501612af3565b936001600160801b036119d061010460043501612af3565b966040519b8c9a60e08c528160e08d01528c8c01375f8a8a018c0152168e890152346001600160801b03166040890152166060870152166080850152600390810b60a08501520b60c0830152601f01601f19168101030190a2604051908152f35b815f52600460205260405f2090611a5081856004013560248701612acf565b825468010000000000000000811015611acf5760018101808555811015611abb576001935f5260205f20019063ffffffff611a8a82612abe565b1667ffffffff00000000611aa2602085549401612abe565b60201b16916001600160401b0319161717905501611938565b634e487b7160e01b5f52603260045260245ffd5b634e487b7160e01b5f52604160045260245ffd5b5f81815260036020526040902080546301000000600160981b0319163460181b6301000000600160981b0316179055611936565b0151905086806116cb565b825f5260205f20955f5b601f1984168110611b7357509582916004959697600194601f19811610611b5b575b505050811b0181556116df565b01515f1960f88460031b161c19169055868080611b4e565b82820151885560019097019660209283019201611b2c565b825f5260205f20601f830160051c810160208410611bc5575b601f830160051c82018110611bba5750506116af565b5f8155600101611ba4565b5080611ba4565b611be6611be182846004013560248601612acf565b612abe565b815f198101116105e85763ffffffff80611c0e611be15f198601600488013560248901612acf565b1691161115611c7757611c346020611c2e83856004013560248701612acf565b01612abe565b63ffffffff80611c546020611c2e5f198701600489013560248a01612acf565b1691161015611c6557600101611403565b60405163bc94e95d60e01b8152600490fd5b6040516001625718cd60e01b03198152600490fd5b604051637357b33560e01b8152600490fd5b6040516387b16d3960e01b8152600490fd5b604051632ac14d1d60e21b8152600490fd5b5060036113c5565b5060026113ad565b6040516305e61c6160e11b8152600490fd5b5061ffff611cf761018460043501612a9d565b161561138f565b6040516326e4d8e760e21b8152600490fd5b604051636ece8dd360e01b8152600490fd5b604051633eaa532d60e01b8152600490fd5b604051632ecd47cf60e01b8152600490fd5b60405163017d800b60e71b8152600490fd5b60405163eb37e90160e01b8152600490fd5b6040516333cb6de560e01b8152600490fd5b604051633ba43c0560e21b8152600490fd5b60405163556105d160e11b8152600490fd5b6040516324a25c5760e01b8152600490fd5b505f546001600160a01b03163314156111e4565b346102b2576020806003193601126102b257600435611de3612d0a565b805f526003825260ff60405f205416600481101561029e5760030361064457805f526006825260405f20335f52825261ffff60405f20541691821561091757815f526005815260405f20835f52815260405f209081549160ff8360a81c1661090557835f52600282526001600160801b03600160405f2001541692600160a81b9060ff60a81b19161790555f80808085335af1611e7e612a3c565b501561035f577f0917e184be16d2ef5f545bae1ece8d7701beb9fcd71c6c48c8a34eeb9a7623ad91604051908152a360015f80516020612d3a83398151915255005b346102b25760a03660031901126102b257600435611edc6128b3565b611ee46128c4565b906064359061ffff8083168084036102b25760843594828616928387036102b257335f52602091600a835260ff60405f2054161580612292575b6107dc57885f526003835260ff60405f205416600481101561029e5760010361064457885f526002835260405f2095828116968715612248575f8b81526005865260408082208a835287529020546001600160a01b039a908b161561223657600382019a8b54868160901c1615155f14612278578686168015612248578e5f526005895260405f20815f5289528260405f20541615612236578b14612219575b60a081901c87161561225a578815612248578d5f526005885260405f20895f5288528160405f20541615612236578a8914801561222b575b6122195786905b60b01c16156121c45788156121b2578c5f526005875260405f20895f5287528060405f205416156121a0577fe0a09336bb0772299bd3d00a249176e0a94e4796fe80fe727d02a92fa40948819b6001600160801b0361213d958f6121389560809f6002925b5f5260038d5260405f209384549261ffff60c81b9060c81b169260ff6001600160401b0360981b0119169061ffff60981b9060981b161761ffff60a81b8c60a81b16179061ffff60b81b9060b81b1617171780915560181c16905491612710886121138f6120f3846120db858a612103951c1689612a01565b04856120ec868b60901c168a612a01565b0490612974565b846120ec858a60a01c1689612a01565b836120ec848960b01c1688612a01565b9460c01c168015612197576121289084612a01565b04945b85612171575b5050612a14565b612a14565b8061215c575b50604051958652169084015260408301526060820152a2005b61216890600754612974565b60075589612143565b6002015460481c165f526008885260405f2061218e858254612974565b90558e80612131565b50505f9461212b565b60405163e5065a5160e01b8152600490fd5b604051632738e7bf60e21b8152600490fd5b88612207577fe0a09336bb0772299bd3d00a249176e0a94e4796fe80fe727d02a92fa40948819b6001600160801b0361213d958f6121389560809f600292612062565b604051639e4d22ef60e01b8152600490fd5b6040516370c4bf3560e01b8152600490fd5b508686168914611ff6565b604051630a866adb60e01b8152600490fd5b604051633541411b60e01b8152600490fd5b88612266578690611ffd565b60405163ec17252360e01b8152600490fd5b86861615611fbe5760405163ec17252360e01b8152600490fd5b505f546001600160a01b0316331415611f1e565b346102b2575f3660031901126102b257602060405161270f8152f35b346102b25760603660031901126102b2576004356122de6128b3565b6122e66128c4565b91335f526020600a815260ff60405f205416158061247a575b6107dc57815f526003815260ff60405f205416600481101561029e576001036106445761ffff80931693841561246857831692831561245657825f526005825260405f20855f52825260405f2091835f526005815260405f2090855f525260405f2091805460018060a01b0380821615612468578454908116156124565760ff8260a01c16156124445760a01c60ff161561243257858714612420576123c8926123ac9160b01c166129ee565b815461ffff60b01b191660b09190911b61ffff60b01b16179055565b805460ff60a01b191690558183827fa5278f8711c8a1165cde022d26dde51fb5eb185bfb4a2941e98de35864119a5a5f80a47f6032cc0a26326928716b55b304c0e3f6b584534a42c4bc0a92fcaf8caf44539c5f80a4005b6040516317b98eb360e01b8152600490fd5b60405163063cfc8b60e01b8152600490fd5b60405163d5784a3760e01b8152600490fd5b60405163693dc3f160e11b8152600490fd5b60405163d4ab835d60e01b8152600490fd5b505f546001600160a01b03163314156122ff565b346102b25760403660031901126102b25760a06124b46124ac6128d5565b600435612981565b919260405194151585521515602085015261ffff809316604085015215156060840152166080820152f35b346102b25760203660031901126102b25760043561ffff908181168091036102b257612509612cdf565b6107d08111612554577fd9fc5daadee0abb3bdf1761ce02c9dcafb18c2f3cbedf986abf9c7efeb95bf5291604091600954918161ffff198416176009558351921682526020820152a1005b60405163d086646b60e01b8152600490fd5b346102b25760203660031901126102b257600435805f52600360205260ff60405f205416600481101561029e5761064457805f52600260205260405f20600360205260405f20600182015464ffffffffff8160a01c1642111561265b5781549061ffff809160801c16908260081c1610156126495760ff1916600317905560048101546001600160801b0316908161261f57827f681705fdbd93dba3b679fd712577e9a86d57c5551c520f8c74857deb57f9623f5f80a2005b6002015460481c6001600160a01b03165f90815260086020526040902080549091610e7191612974565b604051638984cbd960e01b8152600490fd5b6040516302eb354360e41b8152600490fd5b346102b2576020806003193601126102b2576004355f526004815260405f209081546001600160401b03808211611acf57604051916126b1848260051b0184612953565b8083528383019182955f52845f20925f905b83821061271757604080518881528751818a018190528a928201908a5f5b8281106126ee5784840385f35b8551805163ffffffff9081168652908301511684830152948101946040909301926001016126e1565b6040516040810181811085821117611acf57604052855463ffffffff808216835290891c16888201528152600194850194919091019086016126c3565b346102b2575f3660031901126102b25760206040516101008152f35b346102b25760403660031901126102b25760043561278c6128b3565b335f52600a60205260ff60405f2054161580612848575b6107dc57815f52600360205260ff60405f205416600481101561029e576001036106445761ffff16801561091757815f52600560205260405f20815f5260205260405f209182549260018060a01b038416156109175760ff8460a01c1615612836575f9360ff60a01b191690557f6032cc0a26326928716b55b304c0e3f6b584534a42c4bc0a92fcaf8caf44539c8380a4005b604051637b7d0a4160e11b8152600490fd5b505f546001600160a01b03163314156127a3565b346102b2575f3660031901126102b25760206040516127108152f35b346102b2575f3660031901126102b257602061ffff60095416604051908152f35b346102b2575f3660031901126102b2576020906007548152f35b6024359061ffff821682036102b257565b6044359061ffff821682036102b257565b602435906001600160a01b03821682036102b257565b600435906001600160a01b03821682036102b257565b61026081019081106001600160401b03821117611acf57604052565b608081019081106001600160401b03821117611acf57604052565b60e081019081106001600160401b03821117611acf57604052565b90601f801991011681019081106001600160401b03821117611acf57604052565b919082018092116105e857565b90815f52600660205260405f209060018060a01b03165f5260205261ffff908160405f2054169081156129df575f52600560205260405f20815f5260205260405f20549060019360ff808460a01c16948460b01c169360a81c169190565b5050505f905f905f905f905f90565b61ffff8091169081146105e85760010190565b818102929181159184041417156105e857565b919082039182116105e857565b6001600160401b038111611acf57601f01601f191660200190565b3d15612a66573d90612a4d82612a21565b91612a5b6040519384612953565b82523d5f602084013e565b606090565b903590601e19813603018212156102b257018035906001600160401b0382116102b2576020019181360383136102b257565b3561ffff811681036102b25790565b3564ffffffffff811681036102b25790565b3563ffffffff811681036102b25790565b9190811015611abb5760061b0190565b356001600160801b03811681036102b25790565b358060030b81036102b25790565b90600182811c92168015612b2f575b6020831014612b1b57565b634e487b7160e01b5f52602260045260245ffd5b91607f1691612b10565b805f52602090600382526040805f20549360ff8516600481101561029e57600203612c8457825f5260068452815f209060018060a01b03165f52835261ffff9182825f205416938415612c7a57815f5260058152825f20855f52815260ff835f205460a81c16612c7a576002915f52525f206001600160801b038460181c16925f94838160981c168214612c5b575b838160a81c168214612c3a575b838160b81c168214612c16575b60c81c831614612bf3575b50505090565b612c0e93926127109260036120ec93015460b01c1690612a01565b5f8080612bed565b94612c3284916127106120ec84600388015460a01c1689612a01565b959050612be2565b94612c55906127106120ec86600387015460901c1688612a01565b94612bd5565b9450612710612c7384600385015460801c1686612a01565b0494612bc8565b5050505050505f90565b50505050505f90565b6001600160a01b03165f818152600a60205260409020805460ff811615612cda5760ff191690557f80c0b871b97b595b16a7741c1b06fed0c6f6f558639f18ccbce50724325dc40d5f80a2565b505050565b5f546001600160a01b03163303612cf257565b60405163118cdaa760e01b8152336004820152602490fd5b5f80516020612d3a8339815191526002815414612d275760029055565b604051633ee5aeb560e01b8152600490fdfe9b779b17422d0df92223018b32b4d1fa46e071723d6817e2486d003becc55f00a264697066735822122019b905f6a2844c4d3666a18443aa277ba96b1e08a84017aa31a6735fc48c144164736f6c63430008180033","linkReferences":{}},"methodIdentifiers":{"BPS_TOTAL()":"2bbc59db","MAX_PLATFORM_FEE_BPS()":"8d01513c","MAX_PLAYERS()":"4411b3eb","MAX_TITLE_LENGTH()":"2ef9a160","addOperator(address)":"9870d7fe","claimPrize(uint256)":"d7098154","claimRefund(uint256)":"5b7baf64","createGame((string,uint128,uint16,uint16,uint40,uint40,uint32,int32,int32,int32,int32,uint16,uint16,uint16,uint16,uint16),(uint32,uint32)[])":"6566ac93","creatorFeesAccrued(address)":"c748713e","eliminatePlayer(uint256,uint16)":"2ecd6bab","endGame(uint256,uint16,uint16,uint16,uint16)":"47d84c0f","getClaimableAmount(uint256,address)":"78c5195e","getGameConfig(uint256)":"ce44b06e","getGameState(uint256)":"ffde0c74","getPlayer(uint256,uint16)":"89f1bebc","getPlayerInfo(uint256,address)":"3ccd10e9","getZoneShrinks(uint256)":"346613af","isOperator(address)":"6d70f7ae","nextGameId()":"b135bbb0","owner()":"8da5cb5b","platformFeeBps()":"22dcd13e","platformFeesAccrued()":"22163b86","playerNumber(uint256,address)":"d64821d6","players(uint256,uint16)":"6a10b0a1","recordKill(uint256,uint16,uint16)":"428978b8","register(uint256)":"f207564e","removeOperator(address)":"ac8a584a","renounceOwnership()":"715018a6","setPlatformFeeBps(uint16)":"3bc1f7b3","startGame(uint256)":"e5ed1d59","transferOwnership(address)":"f2fde38b","triggerCancellation(uint256)":"35e257bc","triggerExpiry(uint256)":"ae61b1e7","withdrawCreatorFees(address)":"f4c5cdca","withdrawPlatformFees(address)":"ec3889b5"},"id":27}