{"abi":[{"type":"constructor","inputs":[{"name":"_platformFeeBps","type":"uint16","internalType":"uint16"}],"stateMutability":"nonpayable"},{"type":"function","name":"BPS_TOTAL","inputs":[],"outputs":[{"name":"","type":"uint256","internalType":"uint256"}],"stateMutability":"view"},{"type":"function","name":"MAX_PLATFORM_FEE_BPS","inputs":[],"outputs":[{"name":"","type":"uint16","internalType":"uint16"}],"stateMutability":"view"},{"type":"function","name":"MAX_PLAYERS","inputs":[],"outputs":[{"name":"","type":"uint16","internalType":"uint16"}],"stateMutability":"view"},{"type":"function","name":"MAX_TITLE_LENGTH","inputs":[],"outputs":[{"name":"","type":"uint256","internalType":"uint256"}],"stateMutability":"view"},{"type":"function","name":"addOperator","inputs":[{"name":"op","type":"address","internalType":"address"}],"outputs":[],"stateMutability":"nonpayable"},{"type":"function","name":"claimPrize","inputs":[{"name":"gameId","type":"uint256","internalType":"uint256"}],"outputs":[],"stateMutability":"nonpayable"},{"type":"function","name":"claimRefund","inputs":[{"name":"gameId","type":"uint256","internalType":"uint256"}],"outputs":[],"stateMutability":"nonpayable"},{"type":"function","name":"createGame","inputs":[{"name":"params","type":"tuple","internalType":"struct IChainAssassin.CreateGameParams","components":[{"name":"title","type":"string","internalType":"string"},{"name":"entryFee","type":"uint128","internalType":"uint128"},{"name":"minPlayers","type":"uint16","internalType":"uint16"},{"name":"maxPlayers","type":"uint16","internalType":"uint16"},{"name":"registrationDeadline","type":"uint40","internalType":"uint40"},{"name":"gameDate","type":"uint40","internalType":"uint40"},{"name":"maxDuration","type":"uint32","internalType":"uint32"},{"name":"centerLat","type":"int32","internalType":"int32"},{"name":"centerLng","type":"int32","internalType":"int32"},{"name":"meetingLat","type":"int32","internalType":"int32"},{"name":"meetingLng","type":"int32","internalType":"int32"},{"name":"bps1st","type":"uint16","internalType":"uint16"},{"name":"bps2nd","type":"uint16","internalType":"uint16"},{"name":"bps3rd","type":"uint16","internalType":"uint16"},{"name":"bpsKills","type":"uint16","internalType":"uint16"},{"name":"bpsCreator","type":"uint16","internalType":"uint16"}]},{"name":"shrinks","type":"tuple[]","internalType":"struct IChainAssassin.ZoneShrink[]","components":[{"name":"atSecond","type":"uint32","internalType":"uint32"},{"name":"radiusMeters","type":"uint32","internalType":"uint32"}]}],"outputs":[{"name":"gameId","type":"uint256","internalType":"uint256"}],"stateMutability":"payable"},{"type":"function","name":"creatorFeesAccrued","inputs":[{"name":"","type":"address","internalType":"address"}],"outputs":[{"name":"","type":"uint256","internalType":"uint256"}],"stateMutability":"view"},{"type":"function","name":"eliminatePlayer","inputs":[{"name":"gameId","type":"uint256","internalType":"uint256"},{"name":"player","type":"address","internalType":"address"}],"outputs":[],"stateMutability":"nonpayable"},{"type":"function","name":"endGame","inputs":[{"name":"gameId","type":"uint256","internalType":"uint256"},{"name":"winner1","type":"address","internalType":"address"},{"name":"winner2","type":"address","internalType":"address"},{"name":"winner3","type":"address","internalType":"address"},{"name":"topKiller","type":"address","internalType":"address"}],"outputs":[],"stateMutability":"nonpayable"},{"type":"function","name":"getClaimableAmount","inputs":[{"name":"gameId","type":"uint256","internalType":"uint256"},{"name":"player","type":"address","internalType":"address"}],"outputs":[{"name":"","type":"uint256","internalType":"uint256"}],"stateMutability":"view"},{"type":"function","name":"getGameConfig","inputs":[{"name":"gameId","type":"uint256","internalType":"uint256"}],"outputs":[{"name":"","type":"tuple","internalType":"struct IChainAssassin.GameConfig","components":[{"name":"title","type":"string","internalType":"string"},{"name":"entryFee","type":"uint128","internalType":"uint128"},{"name":"minPlayers","type":"uint16","internalType":"uint16"},{"name":"maxPlayers","type":"uint16","internalType":"uint16"},{"name":"registrationDeadline","type":"uint40","internalType":"uint40"},{"name":"gameDate","type":"uint40","internalType":"uint40"},{"name":"maxDuration","type":"uint32","internalType":"uint32"},{"name":"createdAt","type":"uint40","internalType":"uint40"},{"name":"creator","type":"address","internalType":"address"},{"name":"centerLat","type":"int32","internalType":"int32"},{"name":"centerLng","type":"int32","internalType":"int32"},{"name":"meetingLat","type":"int32","internalType":"int32"},{"name":"meetingLng","type":"int32","internalType":"int32"},{"name":"bps1st","type":"uint16","internalType":"uint16"},{"name":"bps2nd","type":"uint16","internalType":"uint16"},{"name":"bps3rd","type":"uint16","internalType":"uint16"},{"name":"bpsKills","type":"uint16","internalType":"uint16"},{"name":"bpsCreator","type":"uint16","internalType":"uint16"},{"name":"baseReward","type":"uint128","internalType":"uint128"}]}],"stateMutability":"view"},{"type":"function","name":"getGameState","inputs":[{"name":"gameId","type":"uint256","internalType":"uint256"}],"outputs":[{"name":"","type":"tuple","internalType":"struct IChainAssassin.GameState","components":[{"name":"phase","type":"uint8","internalType":"enum IChainAssassin.GamePhase"},{"name":"playerCount","type":"uint16","internalType":"uint16"},{"name":"totalCollected","type":"uint128","internalType":"uint128"},{"name":"winner1","type":"address","internalType":"address"},{"name":"winner2","type":"address","internalType":"address"},{"name":"winner3","type":"address","internalType":"address"},{"name":"topKiller","type":"address","internalType":"address"}]}],"stateMutability":"view"},{"type":"function","name":"getPlayerInfo","inputs":[{"name":"gameId","type":"uint256","internalType":"uint256"},{"name":"player","type":"address","internalType":"address"}],"outputs":[{"name":"registered","type":"bool","internalType":"bool"},{"name":"alive","type":"bool","internalType":"bool"},{"name":"kills","type":"uint16","internalType":"uint16"},{"name":"claimed","type":"bool","internalType":"bool"},{"name":"number","type":"uint16","internalType":"uint16"}],"stateMutability":"view"},{"type":"function","name":"getZoneShrinks","inputs":[{"name":"gameId","type":"uint256","internalType":"uint256"}],"outputs":[{"name":"","type":"tuple[]","internalType":"struct IChainAssassin.ZoneShrink[]","components":[{"name":"atSecond","type":"uint32","internalType":"uint32"},{"name":"radiusMeters","type":"uint32","internalType":"uint32"}]}],"stateMutability":"view"},{"type":"function","name":"hasClaimed","inputs":[{"name":"","type":"uint256","internalType":"uint256"},{"name":"","type":"address","internalType":"address"}],"outputs":[{"name":"","type":"bool","internalType":"bool"}],"stateMutability":"view"},{"type":"function","name":"isAlive","inputs":[{"name":"","type":"uint256","internalType":"uint256"},{"name":"","type":"address","internalType":"address"}],"outputs":[{"name":"","type":"bool","internalType":"bool"}],"stateMutability":"view"},{"type":"function","name":"isOperator","inputs":[{"name":"","type":"address","internalType":"address"}],"outputs":[{"name":"","type":"bool","internalType":"bool"}],"stateMutability":"view"},{"type":"function","name":"isRegistered","inputs":[{"name":"","type":"uint256","internalType":"uint256"},{"name":"","type":"address","internalType":"address"}],"outputs":[{"name":"","type":"bool","internalType":"bool"}],"stateMutability":"view"},{"type":"function","name":"killCount","inputs":[{"name":"","type":"uint256","internalType":"uint256"},{"name":"","type":"address","internalType":"address"}],"outputs":[{"name":"","type":"uint16","internalType":"uint16"}],"stateMutability":"view"},{"type":"function","name":"nextGameId","inputs":[],"outputs":[{"name":"","type":"uint256","internalType":"uint256"}],"stateMutability":"view"},{"type":"function","name":"owner","inputs":[],"outputs":[{"name":"","type":"address","internalType":"address"}],"stateMutability":"view"},{"type":"function","name":"platformFeeBps","inputs":[],"outputs":[{"name":"","type":"uint16","internalType":"uint16"}],"stateMutability":"view"},{"type":"function","name":"platformFeesAccrued","inputs":[],"outputs":[{"name":"","type":"uint256","internalType":"uint256"}],"stateMutability":"view"},{"type":"function","name":"playerNumber","inputs":[{"name":"","type":"uint256","internalType":"uint256"},{"name":"","type":"address","internalType":"address"}],"outputs":[{"name":"","type":"uint16","internalType":"uint16"}],"stateMutability":"view"},{"type":"function","name":"recordKill","inputs":[{"name":"gameId","type":"uint256","internalType":"uint256"},{"name":"hunter","type":"address","internalType":"address"},{"name":"target","type":"address","internalType":"address"}],"outputs":[],"stateMutability":"nonpayable"},{"type":"function","name":"register","inputs":[{"name":"gameId","type":"uint256","internalType":"uint256"}],"outputs":[],"stateMutability":"payable"},{"type":"function","name":"removeOperator","inputs":[{"name":"op","type":"address","internalType":"address"}],"outputs":[],"stateMutability":"nonpayable"},{"type":"function","name":"renounceOwnership","inputs":[],"outputs":[],"stateMutability":"nonpayable"},{"type":"function","name":"setPlatformFeeBps","inputs":[{"name":"newBps","type":"uint16","internalType":"uint16"}],"outputs":[],"stateMutability":"nonpayable"},{"type":"function","name":"startGame","inputs":[{"name":"gameId","type":"uint256","internalType":"uint256"}],"outputs":[],"stateMutability":"nonpayable"},{"type":"function","name":"transferOwnership","inputs":[{"name":"newOwner","type":"address","internalType":"address"}],"outputs":[],"stateMutability":"nonpayable"},{"type":"function","name":"triggerCancellation","inputs":[{"name":"gameId","type":"uint256","internalType":"uint256"}],"outputs":[],"stateMutability":"nonpayable"},{"type":"function","name":"triggerExpiry","inputs":[{"name":"gameId","type":"uint256","internalType":"uint256"}],"outputs":[],"stateMutability":"nonpayable"},{"type":"function","name":"withdrawCreatorFees","inputs":[{"name":"to","type":"address","internalType":"address"}],"outputs":[],"stateMutability":"nonpayable"},{"type":"function","name":"withdrawPlatformFees","inputs":[{"name":"to","type":"address","internalType":"address"}],"outputs":[],"stateMutability":"nonpayable"},{"type":"event","name":"CreatorFeesWithdrawn","inputs":[{"name":"creator","type":"address","indexed":true,"internalType":"address"},{"name":"to","type":"address","indexed":true,"internalType":"address"},{"name":"amount","type":"uint256","indexed":false,"internalType":"uint256"}],"anonymous":false},{"type":"event","name":"GameCancelled","inputs":[{"name":"gameId","type":"uint256","indexed":true,"internalType":"uint256"}],"anonymous":false},{"type":"event","name":"GameCreated","inputs":[{"name":"gameId","type":"uint256","indexed":true,"internalType":"uint256"},{"name":"title","type":"string","indexed":false,"internalType":"string"},{"name":"entryFee","type":"uint128","indexed":false,"internalType":"uint128"},{"name":"baseReward","type":"uint128","indexed":false,"internalType":"uint128"},{"name":"minPlayers","type":"uint16","indexed":false,"internalType":"uint16"},{"name":"maxPlayers","type":"uint16","indexed":false,"internalType":"uint16"},{"name":"centerLat","type":"int32","indexed":false,"internalType":"int32"},{"name":"centerLng","type":"int32","indexed":false,"internalType":"int32"}],"anonymous":false},{"type":"event","name":"GameEnded","inputs":[{"name":"gameId","type":"uint256","indexed":true,"internalType":"uint256"},{"name":"winner1","type":"address","indexed":false,"internalType":"address"},{"name":"winner2","type":"address","indexed":false,"internalType":"address"},{"name":"winner3","type":"address","indexed":false,"internalType":"address"},{"name":"topKiller","type":"address","indexed":false,"internalType":"address"}],"anonymous":false},{"type":"event","name":"GameStarted","inputs":[{"name":"gameId","type":"uint256","indexed":true,"internalType":"uint256"},{"name":"playerCount","type":"uint16","indexed":false,"internalType":"uint16"}],"anonymous":false},{"type":"event","name":"KillRecorded","inputs":[{"name":"gameId","type":"uint256","indexed":true,"internalType":"uint256"},{"name":"hunter","type":"address","indexed":true,"internalType":"address"},{"name":"target","type":"address","indexed":true,"internalType":"address"}],"anonymous":false},{"type":"event","name":"OperatorAdded","inputs":[{"name":"operator","type":"address","indexed":true,"internalType":"address"}],"anonymous":false},{"type":"event","name":"OperatorRemoved","inputs":[{"name":"operator","type":"address","indexed":true,"internalType":"address"}],"anonymous":false},{"type":"event","name":"OwnershipTransferred","inputs":[{"name":"previousOwner","type":"address","indexed":true,"internalType":"address"},{"name":"newOwner","type":"address","indexed":true,"internalType":"address"}],"anonymous":false},{"type":"event","name":"PlatformFeeBpsUpdated","inputs":[{"name":"oldBps","type":"uint16","indexed":false,"internalType":"uint16"},{"name":"newBps","type":"uint16","indexed":false,"internalType":"uint16"}],"anonymous":false},{"type":"event","name":"PlatformFeesWithdrawn","inputs":[{"name":"to","type":"address","indexed":true,"internalType":"address"},{"name":"amount","type":"uint256","indexed":false,"internalType":"uint256"}],"anonymous":false},{"type":"event","name":"PlayerEliminated","inputs":[{"name":"gameId","type":"uint256","indexed":true,"internalType":"uint256"},{"name":"player","type":"address","indexed":true,"internalType":"address"},{"name":"eliminator","type":"address","indexed":true,"internalType":"address"}],"anonymous":false},{"type":"event","name":"PlayerRegistered","inputs":[{"name":"gameId","type":"uint256","indexed":true,"internalType":"uint256"},{"name":"player","type":"address","indexed":true,"internalType":"address"},{"name":"playerCount","type":"uint16","indexed":false,"internalType":"uint16"}],"anonymous":false},{"type":"event","name":"PrizeClaimed","inputs":[{"name":"gameId","type":"uint256","indexed":true,"internalType":"uint256"},{"name":"player","type":"address","indexed":true,"internalType":"address"},{"name":"amount","type":"uint256","indexed":false,"internalType":"uint256"}],"anonymous":false},{"type":"event","name":"RefundClaimed","inputs":[{"name":"gameId","type":"uint256","indexed":true,"internalType":"uint256"},{"name":"player","type":"address","indexed":true,"internalType":"address"},{"name":"amount","type":"uint256","indexed":false,"internalType":"uint256"}],"anonymous":false},{"type":"error","name":"AlreadyClaimed","inputs":[]},{"type":"error","name":"AlreadyRegistered","inputs":[]},{"type":"error","name":"BpsSumNot10000","inputs":[]},{"type":"error","name":"CannotSelfKill","inputs":[]},{"type":"error","name":"DeadlineInPast","inputs":[]},{"type":"error","name":"DeadlineNotPassed","inputs":[]},{"type":"error","name":"EnoughPlayers","inputs":[]},{"type":"error","name":"FirstShrinkMustBeZero","inputs":[]},{"type":"error","name":"GameDateNotAfterDeadline","inputs":[]},{"type":"error","name":"GameDateNotReached","inputs":[]},{"type":"error","name":"GameFull","inputs":[]},{"type":"error","name":"HunterNotAlive","inputs":[]},{"type":"error","name":"HunterNotRegistered","inputs":[]},{"type":"error","name":"MaxDurationZero","inputs":[]},{"type":"error","name":"MaxLessThanMin","inputs":[]},{"type":"error","name":"MaxPlayersTooHigh","inputs":[]},{"type":"error","name":"MaxPlayersTooLow","inputs":[]},{"type":"error","name":"MinPlayersLessThanPrizeSlots","inputs":[]},{"type":"error","name":"MinPlayersTooLow","inputs":[]},{"type":"error","name":"Need2ndIf3rdSet","inputs":[]},{"type":"error","name":"NeedFirstPrize","inputs":[]},{"type":"error","name":"NoFees","inputs":[]},{"type":"error","name":"NoPrize","inputs":[]},{"type":"error","name":"NoShrinkSchedule","inputs":[]},{"type":"error","name":"NotEnoughPlayers","inputs":[]},{"type":"error","name":"NotExpiredYet","inputs":[]},{"type":"error","name":"NotOperator","inputs":[]},{"type":"error","name":"OwnableInvalidOwner","inputs":[{"name":"owner","type":"address","internalType":"address"}]},{"type":"error","name":"OwnableUnauthorizedAccount","inputs":[{"name":"account","type":"address","internalType":"address"}]},{"type":"error","name":"PlatformFeeTooHigh","inputs":[]},{"type":"error","name":"PlayerNotAlive","inputs":[]},{"type":"error","name":"PlayerNotRegistered","inputs":[]},{"type":"error","name":"RadiiNotDecreasing","inputs":[]},{"type":"error","name":"ReentrancyGuardReentrantCall","inputs":[]},{"type":"error","name":"RegistrationClosed","inputs":[]},{"type":"error","name":"ShrinksNotOrdered","inputs":[]},{"type":"error","name":"TargetNotAlive","inputs":[]},{"type":"error","name":"TargetNotRegistered","inputs":[]},{"type":"error","name":"TitleTooLong","inputs":[]},{"type":"error","name":"TopKillerNotRegistered","inputs":[]},{"type":"error","name":"TopKillerZeroAddress","inputs":[]},{"type":"error","name":"TransferFailed","inputs":[]},{"type":"error","name":"UnusedTopKillerNotZero","inputs":[]},{"type":"error","name":"UnusedWinnerNotZero","inputs":[]},{"type":"error","name":"WinnerNotRegistered","inputs":[]},{"type":"error","name":"WinnerZeroAddress","inputs":[]},{"type":"error","name":"WinnersNotUnique","inputs":[]},{"type":"error","name":"WrongEntryFee","inputs":[]},{"type":"error","name":"WrongPhase","inputs":[]},{"type":"error","name":"ZeroAddress","inputs":[]}],"bytecode":{"object":"0x60806040526001805534801562000014575f80fd5b5060405162003c6238038062003c62833981016040819052620000379162000120565b33806200005d57604051631e4fbdf760e01b81525f600482015260240160405180910390fd5b6200006881620000d1565b5060017f9b779b17422d0df92223018b32b4d1fa46e071723d6817e2486d003becc55f005561138861ffff82161115620000b55760405163d086646b60e01b815260040160405180910390fd5b600c805461ffff191661ffff929092169190911790556200014a565b5f80546001600160a01b038381166001600160a01b0319831681178455604051919092169283917f8be0079c531659141344cd1fd0a4f28419497f9722a3daafe3b4186f6b6457e09190a35050565b5f6020828403121562000131575f80fd5b815161ffff8116811462000143575f80fd5b9392505050565b613b0a80620001585f395ff3fe608060405260043610610212575f3560e01c80638d01513c1161011e578063ce44b06e116100a8578063f207564e1161006d578063f207564e14610735578063f2fde38b14610748578063f4c5cdca14610767578063f927c9ea14610786578063ffde0c74146107bf575f80fd5b8063ce44b06e14610672578063d64821d61461069e578063d7098154146106d8578063e5ed1d59146106f7578063ec3889b514610716575f80fd5b8063ae61b1e7116100ee578063ae61b1e7146105a0578063b0df7ad3146105bf578063b135bbb0146105f9578063b81f6e181461060e578063c748713e14610647575f80fd5b80638d01513c146105275780638da5cb5b1461053c5780639870d7fe14610562578063ac8a584a14610581575f80fd5b80634411b3eb1161019f5780636d70f7ae1161016f5780636d70f7ae1461045e578063715018a61461049c57806378c5195e146104b0578063818d465d146104cf578063873f6f9e146104ee575f80fd5b80634411b3eb146103f85780635b7baf641461040d578063650ccc311461042c5780636566ac931461044b575f80fd5b80632ef9a160116101e55780632ef9a160146102a1578063346613af146102b657806335e257bc146102e25780633bc1f7b3146103015780633ccd10e914610320575f80fd5b806322163b861461021657806322dcd13e1461023e57806325ee26861461026b5780632bbc59db1461028c575b5f80fd5b348015610221575f80fd5b5061022b600a5481565b6040519081526020015b60405180910390f35b348015610249575f80fd5b50600c546102589061ffff1681565b60405161ffff9091168152602001610235565b348015610276575f80fd5b5061028a61028536600461320d565b6107eb565b005b348015610297575f80fd5b5061022b61271081565b3480156102ac575f80fd5b5061022b61010081565b3480156102c1575f80fd5b506102d56102d0366004613246565b610aa4565b604051610235919061325d565b3480156102ed575f80fd5b5061028a6102fc366004613246565b610b27565b34801561030c575f80fd5b5061028a61031b3660046132b5565b610c88565b34801561032b575f80fd5b506103c561033a3660046132dd565b5f8281526005602090815260408083206001600160a01b039490941680845293825280832054858452600783528184208585528352818420548685526008845282852086865284528285205487865260068552838620878752855283862054978652600985528386209686529590935292205460ff928316959183169461ffff948516949316921690565b604080519515158652931515602086015261ffff928316938501939093521515606084015216608082015260a001610235565b348015610403575f80fd5b5061025861270f81565b348015610418575f80fd5b5061028a610427366004613246565b610d0e565b348015610437575f80fd5b5061028a6104463660046132dd565b610ec6565b61022b610459366004613307565b61102f565b348015610469575f80fd5b5061048c6104783660046133a1565b600d6020525f908152604090205460ff1681565b6040519015158152602001610235565b3480156104a7575f80fd5b5061028a611bed565b3480156104bb575f80fd5b5061022b6104ca3660046132dd565b611c00565b3480156104da575f80fd5b5061028a6104e93660046133ba565b611dc9565b3480156104f9575f80fd5b5061048c6105083660046132dd565b600660209081525f928352604080842090915290825290205460ff1681565b348015610532575f80fd5b5061025861138881565b348015610547575f80fd5b505f546040516001600160a01b039091168152602001610235565b34801561056d575f80fd5b5061028a61057c3660046133a1565b6123ad565b34801561058c575f80fd5b5061028a61059b3660046133a1565b612427565b3480156105ab575f80fd5b5061028a6105ba366004613246565b612497565b3480156105ca575f80fd5b506102586105d93660046132dd565b600860209081525f928352604080842090915290825290205461ffff1681565b348015610604575f80fd5b5061022b60015481565b348015610619575f80fd5b5061048c6106283660046132dd565b600560209081525f928352604080842090915290825290205460ff1681565b348015610652575f80fd5b5061022b6106613660046133a1565b600b6020525f908152604090205481565b34801561067d575f80fd5b5061069161068c366004613246565b6125f5565b6040516102359190613457565b3480156106a9575f80fd5b506102586106b83660046132dd565b600960209081525f928352604080842090915290825290205461ffff1681565b3480156106e3575f80fd5b5061028a6106f2366004613246565b61285a565b348015610702575f80fd5b5061028a610711366004613246565b6129e4565b348015610721575f80fd5b5061028a6107303660046133a1565b612b4a565b61028a610743366004613246565b612c73565b348015610753575f80fd5b5061028a6107623660046133a1565b612ed5565b348015610772575f80fd5b5061028a6107813660046133a1565b612f14565b348015610791575f80fd5b5061048c6107a03660046132dd565b600760209081525f928352604080842090915290825290205460ff1681565b3480156107ca575f80fd5b506107de6107d9366004613246565b613048565b6040516102359190613618565b335f908152600d602052604090205460ff1615801561081457505f546001600160a01b03163314155b1561083257604051631f0853c160e21b815260040160405180910390fd5b826001805f8381526003602081905260409091205460ff169081111561085a5761085a613604565b14610878576040516338961af360e21b815260040160405180910390fd5b5f8581526005602090815260408083206001600160a01b038816845290915290205460ff166108ba5760405163d4ab835d60e01b815260040160405180910390fd5b5f8581526005602090815260408083206001600160a01b038716845290915290205460ff166108fc5760405163693dc3f160e11b815260040160405180910390fd5b5f8581526007602090815260408083206001600160a01b038816845290915290205460ff1661093e5760405163d5784a3760e01b815260040160405180910390fd5b5f8581526007602090815260408083206001600160a01b038716845290915290205460ff166109805760405163063cfc8b60e01b815260040160405180910390fd5b826001600160a01b0316846001600160a01b0316036109b2576040516317b98eb360e01b815260040160405180910390fd5b5f8581526008602090815260408083206001600160a01b03881684529091528120805461ffff16916109e3836136ee565b825461ffff9182166101009390930a9283029190920219909116179055505f8581526007602090815260408083206001600160a01b0380881680865291909352818420805460ff19169055905190929187169188917f54ac16b72d4ff7517dd95987f0280de00d7543f7f0752a84cab5e89c5a5c7fba9190a4836001600160a01b0316836001600160a01b0316867ffc8d37eb25b7616a3ff25967e12cf70abc279add3258c35b94a2f3e8c4f8a3ed60405160405180910390a45050505050565b606060045f8381526020019081526020015f20805480602002602001604051908101604052809291908181526020015f905b82821015610b1c575f848152602090819020604080518082019091529084015463ffffffff80821683526401000000009091041681830152825260019092019101610ad6565b505050509050919050565b805f805f8381526003602081905260409091205460ff1690811115610b4e57610b4e613604565b14610b6c576040516338961af360e21b815260040160405180910390fd5b5f83815260026020908152604080832060039092529091206001820154600160a01b900464ffffffffff164211610bb6576040516302eb354360e41b815260040160405180910390fd5b60018201548154600160801b90910461ffff9081166101009092041610610bf057604051638984cbd960e01b815260040160405180910390fd5b805460ff1916600317815560048201546001600160801b031615610c575760048201546002830154600160481b90046001600160a01b03165f908152600b6020526040812080546001600160801b0390931692909190610c5190849061370e565b90915550505b60405185907f681705fdbd93dba3b679fd712577e9a86d57c5551c520f8c74857deb57f9623f905f90a25050505050565b610c9061312d565b61138861ffff82161115610cb75760405163d086646b60e01b815260040160405180910390fd5b600c805461ffff83811661ffff1983168117909355604080519190921680825260208201939093527fd9fc5daadee0abb3bdf1761ce02c9dcafb18c2f3cbedf986abf9c7efeb95bf52910160405180910390a15050565b610d16613159565b806003805f8381526003602081905260409091205460ff1690811115610d3e57610d3e613604565b14610d5c576040516338961af360e21b815260040160405180910390fd5b5f83815260056020908152604080832033845290915290205460ff16610d9557604051630deba79360e21b815260040160405180910390fd5b5f83815260066020908152604080832033845290915290205460ff1615610dcf57604051630c8d9eab60e31b815260040160405180910390fd5b5f83815260026020908152604080832060018082015460068552838620338088529552838620805460ff1916909217909155915190936001600160801b03909216929083908381818185875af1925050503d805f8114610e4a576040519150601f19603f3d011682016040523d82523d5f602084013e610e4f565b606091505b5050905080610e71576040516312171d8360e31b815260040160405180910390fd5b604051828152339087907ff3f402280ef0a7905e124aa621b65eaeb2725c343e8b36d398ed78c29daf285c9060200160405180910390a35050505050610ec360015f80516020613ab583398151915255565b50565b335f908152600d602052604090205460ff16158015610eef57505f546001600160a01b03163314155b15610f0d57604051631f0853c160e21b815260040160405180910390fd5b816001805f8381526003602081905260409091205460ff1690811115610f3557610f35613604565b14610f53576040516338961af360e21b815260040160405180910390fd5b5f8481526005602090815260408083206001600160a01b038716845290915290205460ff16610f9557604051630deba79360e21b815260040160405180910390fd5b5f8481526007602090815260408083206001600160a01b038716845290915290205460ff16610fd757604051637b7d0a4160e11b815260040160405180910390fd5b5f8481526007602090815260408083206001600160a01b0387168085529252808320805460ff191690555186907ffc8d37eb25b7616a3ff25967e12cf70abc279add3258c35b94a2f3e8c4f8a3ed908490a450505050565b335f908152600d602052604081205460ff1615801561105857505f546001600160a01b03163314155b1561107657604051631f0853c160e21b815260040160405180910390fd5b6101006110838580613721565b905011156110a4576040516324a25c5760e01b815260040160405180910390fd5b60026110b660608601604087016132b5565b61ffff1610156110d95760405163556105d160e11b815260040160405180910390fd5b60026110eb60808601606087016132b5565b61ffff16101561110e57604051633ba43c0560e21b815260040160405180910390fd5b61270f61112160808601606087016132b5565b61ffff161115611144576040516333cb6de560e01b815260040160405180910390fd5b61115460608501604086016132b5565b61ffff1661116860808601606087016132b5565b61ffff16101561118b5760405163eb37e90160e01b815260040160405180910390fd5b4261119c60a086016080870161376b565b64ffffffffff16116111c15760405163017d800b60e71b815260040160405180910390fd5b6111d160a085016080860161376b565b64ffffffffff166111e860c0860160a0870161376b565b64ffffffffff161161120d57604051632ecd47cf60e01b815260040160405180910390fd5b61121d60e0850160c086016137a0565b63ffffffff165f0361124257604051633eaa532d60e01b815260040160405180910390fd5b600c546127109061ffff1661125f61020087016101e088016132b5565b61ffff166112756101e088016101c089016132b5565b61ffff1661128b6101c089016101a08a016132b5565b61ffff166112a16101a08a016101808b016132b5565b61ffff166112b76101808b016101608c016132b5565b61ffff166112c5919061370e565b6112cf919061370e565b6112d9919061370e565b6112e3919061370e565b6112ed919061370e565b1461130b57604051636ece8dd360e01b815260040160405180910390fd5b61131d610180850161016086016132b5565b61ffff165f03611340576040516326e4d8e760e21b815260040160405180910390fd5b5f6113536101c086016101a087016132b5565b61ffff1611801561137757506113716101a0850161018086016132b5565b61ffff16155b15611395576040516305e61c6160e11b815260040160405180910390fd5b60015f6113aa6101a0870161018088016132b5565b61ffff1611156113b8575060025b5f6113cb6101c087016101a088016132b5565b61ffff1611156113d9575060035b61ffff81166113ee60608701604088016132b5565b61ffff16101561141157604051632ac14d1d60e21b815260040160405180910390fd5b5f839003611432576040516387b16d3960e01b815260040160405180910390fd5b83835f818110611444576114446137bb565b61145a92602060409092020190810191506137a0565b63ffffffff161561147e57604051637357b33560e01b815260040160405180910390fd5b60015b838110156115a05784846114966001846137cf565b8181106114a5576114a56137bb565b6114bb92602060409092020190810191506137a0565b63ffffffff168585838181106114d3576114d36137bb565b6114e992602060409092020190810191506137a0565b63ffffffff1611611510576040516001625718cd60e01b0319815260040160405180910390fd5b848461151d6001846137cf565b81811061152c5761152c6137bb565b905060400201602001602081019061154491906137a0565b63ffffffff1685858381811061155c5761155c6137bb565b905060400201602001602081019061157491906137a0565b63ffffffff16106115985760405163bc94e95d60e01b815260040160405180910390fd5b600101611481565b5060018054905f6115b0836137e2565b90915550604080516102608101909152909250806115ce8780613721565b8080601f0160208091040260200160405190810160405280939291908181526020018383808284375f9201919091525050509082525060209081019061161a90604089019089016137fa565b6001600160801b0316815260200161163860608801604089016132b5565b61ffff16815260200161165160808801606089016132b5565b61ffff16815260200161166a60a088016080890161376b565b64ffffffffff16815260200161168660c0880160a0890161376b565b64ffffffffff1681526020016116a260e0880160c089016137a0565b63ffffffff16815264ffffffffff421660208201523360408201526060016116d1610100880160e08901613820565b60030b81526020016116eb61012088016101008901613820565b60030b815260200161170561014088016101208901613820565b60030b815260200161171f61016088016101408901613820565b60030b8152602001611739610180880161016089016132b5565b61ffff1681526020016117546101a0880161018089016132b5565b61ffff16815260200161176f6101c088016101a089016132b5565b61ffff16815260200161178a6101e088016101c089016132b5565b61ffff1681526020016117a561020088016101e089016132b5565b61ffff1681526001600160801b0334166020918201525f848152600290915260409020815181906117d690826138d8565b506020820151816001015f6101000a8154816001600160801b0302191690836001600160801b0316021790555060408201518160010160106101000a81548161ffff021916908361ffff16021790555060608201518160010160126101000a81548161ffff021916908361ffff16021790555060808201518160010160146101000a81548164ffffffffff021916908364ffffffffff16021790555060a08201518160010160196101000a81548164ffffffffff021916908364ffffffffff16021790555060c0820151816002015f6101000a81548163ffffffff021916908363ffffffff16021790555060e08201518160020160046101000a81548164ffffffffff021916908364ffffffffff1602179055506101008201518160020160096101000a8154816001600160a01b0302191690836001600160a01b03160217905550610120820151816003015f6101000a81548163ffffffff021916908360030b63ffffffff1602179055506101408201518160030160046101000a81548163ffffffff021916908360030b63ffffffff1602179055506101608201518160030160086101000a81548163ffffffff021916908360030b63ffffffff16021790555061018082015181600301600c6101000a81548163ffffffff021916908360030b63ffffffff1602179055506101a08201518160030160106101000a81548161ffff021916908361ffff1602179055506101c08201518160030160126101000a81548161ffff021916908361ffff1602179055506101e08201518160030160146101000a81548161ffff021916908361ffff1602179055506102008201518160030160166101000a81548161ffff021916908361ffff1602179055506102208201518160030160186101000a81548161ffff021916908361ffff160217905550610240820151816004015f6101000a8154816001600160801b0302191690836001600160801b031602179055509050505f341115611ae8575f828152600360205260409020805472ffffffffffffffffffffffffffffffff00000019166301000000346001600160801b0316021790555b5f5b83811015611b46575f838152600460205260409020858583818110611b1157611b116137bb565b83546001810185555f948552602090942060409091029290920192919091019050611b3c8282613998565b5050600101611aea565b50817f62b7a00b0dc49ec11aa6a2b490734eef71187c817dea0522f63e2af42442775b611b738780613721565b611b8360408a0160208b016137fa565b34611b9460608c0160408d016132b5565b611ba460808d0160608e016132b5565b611bb56101008e0160e08f01613820565b8d610100016020810190611bc99190613820565b604051611bdd9897969594939291906139ee565b60405180910390a2509392505050565b611bf561312d565b611bfe5f613174565b565b5f8281526003602052604081206002815460ff166003811115611c2557611c25613604565b14611c33575f915050611dc3565b5f8481526006602090815260408083206001600160a01b038716845290915290205460ff1615611c66575f915050611dc3565b5f84815260026020526040812082546001840154919263010000009091046001600160801b0316916001600160a01b0390811690871603611cd657600383015461271090611cbf90600160801b900461ffff1684613a5e565b611cc99190613a75565b611cd3908261370e565b90505b60028401546001600160a01b0390811690871603611d2357600383015461271090611d0c90600160901b900461ffff1684613a5e565b611d169190613a75565b611d20908261370e565b90505b60038401546001600160a01b0390811690871603611d7057600383015461271090611d5990600160a01b900461ffff1684613a5e565b611d639190613a75565b611d6d908261370e565b90505b60048401546001600160a01b0390811690871603611dbd57600383015461271090611da690600160b01b900461ffff1684613a5e565b611db09190613a75565b611dba908261370e565b90505b93505050505b92915050565b335f908152600d602052604090205460ff16158015611df257505f546001600160a01b03163314155b15611e1057604051631f0853c160e21b815260040160405180910390fd5b846001805f8381526003602081905260409091205460ff1690811115611e3857611e38613604565b14611e56576040516338961af360e21b815260040160405180910390fd5b5f8781526002602052604090206001600160a01b038716611e8a57604051633541411b60e01b815260040160405180910390fd5b5f8881526005602090815260408083206001600160a01b038b16845290915290205460ff16611ecc57604051630a866adb60e01b815260040160405180910390fd5b6003810154600160901b900461ffff1615611f81576001600160a01b038616611f0857604051633541411b60e01b815260040160405180910390fd5b5f8881526005602090815260408083206001600160a01b038a16845290915290205460ff16611f4a57604051630a866adb60e01b815260040160405180910390fd5b866001600160a01b0316866001600160a01b031603611f7c576040516370c4bf3560e01b815260040160405180910390fd5b611fa9565b6001600160a01b03861615611fa95760405163ec17252360e01b815260040160405180910390fd5b6003810154600160a01b900461ffff161561207b576001600160a01b038516611fe557604051633541411b60e01b815260040160405180910390fd5b5f8881526005602090815260408083206001600160a01b038916845290915290205460ff1661202757604051630a866adb60e01b815260040160405180910390fd5b866001600160a01b0316856001600160a01b031614806120585750856001600160a01b0316856001600160a01b0316145b15612076576040516370c4bf3560e01b815260040160405180910390fd5b6120a3565b6001600160a01b038516156120a35760405163ec17252360e01b815260040160405180910390fd5b6003810154600160b01b900461ffff1615612126576001600160a01b0384166120df57604051632738e7bf60e21b815260040160405180910390fd5b5f8881526005602090815260408083206001600160a01b038816845290915290205460ff166121215760405163e5065a5160e01b815260040160405180910390fd5b61214e565b6001600160a01b0384161561214e57604051639e4d22ef60e01b815260040160405180910390fd5b5f88815260036020819052604082208054600260ff1990911681178083556001830180546001600160a01b03199081166001600160a01b038f811691909117909255928401805484168d8316179055838501805484168c8316179055600484018054909316908a161790915591840154909263010000009092046001600160801b03169190612710906121ec90600160b01b900461ffff1684613a5e565b6121f69190613a75565b60038501546127109061221490600160a01b900461ffff1685613a5e565b61221e9190613a75565b60038601546127109061223c90600160901b900461ffff1686613a5e565b6122469190613a75565b60038701546127109061226490600160801b900461ffff1687613a5e565b61226e9190613a75565b612278919061370e565b612282919061370e565b61228c919061370e565b60038501549091505f90600160c01b900461ffff166122ab575f6122d3565b6003850154612710906122c990600160c01b900461ffff1685613a5e565b6122d39190613a75565b90508015612313576002850154600160481b90046001600160a01b03165f908152600b60205260408120805483929061230d90849061370e565b90915550505b5f8161231f84866137cf565b61232991906137cf565b905080156123485780600a5f828254612342919061370e565b90915550505b604080516001600160a01b038e811682528d811660208301528c8116828401528b16606082015290518e917ffee0a3cabaf0e8e5d7192555a5715f541084cded162d1cc49d5383036847f7dc919081900360800190a250505050505050505050505050565b6123b561312d565b6001600160a01b0381166123dc5760405163d92e233d60e01b815260040160405180910390fd5b6001600160a01b0381165f818152600d6020526040808220805460ff19166001179055517fac6fa858e9350a46cec16539926e0fde25b7629f84b5a72bffaae4df888ae86d9190a250565b61242f61312d565b6001600160a01b0381165f908152600d602052604090205460ff1615610ec3576001600160a01b0381165f818152600d6020526040808220805460ff19169055517f80c0b871b97b595b16a7741c1b06fed0c6f6f558639f18ccbce50724325dc40d9190a250565b5f8181526003602052604090205460ff1660018160038111156124bc576124bc613604565b141580156124db57505f8160038111156124d8576124d8613604565b14155b156124f9576040516338961af360e21b815260040160405180910390fd5b5f8281526002602081905260409091209081015460018201546125309163ffffffff1690600160c81b900464ffffffffff1661370e565b421161254f5760405163a8058ea960e01b815260040160405180910390fd5b5f838152600360208190526040909120805460ff1916909117905560048101546001600160801b0316156125c65760048101546002820154600160481b90046001600160a01b03165f908152600b6020526040812080546001600160801b03909316929091906125c090849061370e565b90915550505b60405183907f681705fdbd93dba3b679fd712577e9a86d57c5551c520f8c74857deb57f9623f905f90a2505050565b604080516102608101825260608082525f6020830181905292820183905281018290526080810182905260a0810182905260c0810182905260e08101829052610100810182905261012081018290526101408101829052610160810182905261018081018290526101a081018290526101c081018290526101e08101829052610200810182905261022081018290526102408101919091525f8281526002602052604090819020815161026081019092528054829082906126b590613854565b80601f01602080910402602001604051908101604052809291908181526020018280546126e190613854565b801561272c5780601f106127035761010080835404028352916020019161272c565b820191905f5260205f20905b81548152906001019060200180831161270f57829003601f168201915b505050918352505060018201546001600160801b03808216602084015261ffff600160801b80840482166040860152600160901b8085048316606087015264ffffffffff600160a01b80870482166080890152600160c81b909604811660a0880152600288015463ffffffff811660c089015264010000000080820490921660e08901526001600160a01b03600160481b9091041661010088015260038089015480820b6101208a0152918204810b610140890152680100000000000000008204810b610160890152600160601b8204900b61018088015291820483166101a0870152810482166101c086015292830481166101e0850152600160b01b83048116610200850152600160c01b9092049091166102208301526004909201549091166102409091015292915050565b612862613159565b806002805f8381526003602081905260409091205460ff169081111561288a5761288a613604565b146128a8576040516338961af360e21b815260040160405180910390fd5b5f83815260066020908152604080832033845290915290205460ff16156128e257604051630c8d9eab60e31b815260040160405180910390fd5b5f6128ed8433611c00565b9050805f0361290f5760405163273b4b7760e01b815260040160405180910390fd5b5f848152600660209081526040808320338085529252808320805460ff191660011790555183908381818185875af1925050503d805f811461296c576040519150601f19603f3d011682016040523d82523d5f602084013e612971565b606091505b5050905080612993576040516312171d8360e31b815260040160405180910390fd5b604051828152339086907f4aa95f981a8337cb337de335b965507da0879c3b49f799d20058e913f5ad2c269060200160405180910390a350505050610ec360015f80516020613ab583398151915255565b335f908152600d602052604090205460ff16158015612a0d57505f546001600160a01b03163314155b15612a2b57604051631f0853c160e21b815260040160405180910390fd5b805f805f8381526003602081905260409091205460ff1690811115612a5257612a52613604565b14612a70576040516338961af360e21b815260040160405180910390fd5b5f83815260036020908152604080832060029092529091206001810154600160c81b900464ffffffffff16421015612abb576040516338912be360e01b815260040160405180910390fd5b60018101548254600160801b90910461ffff908116610100909204161015612af65760405163f770074360e01b815260040160405180910390fd5b815460ff191660011780835560405161ffff61010090920491909116815285907f04ed0b3845c85d64b6c40fcdf35d6bde85beaf870057dffacd9b44ca6cf869819060200160405180910390a25050505050565b612b5261312d565b612b5a613159565b6001600160a01b038116612b815760405163d92e233d60e01b815260040160405180910390fd5b600a545f819003612ba5576040516303fbecdf60e51b815260040160405180910390fd5b5f600a8190556040516001600160a01b0384169083908381818185875af1925050503d805f8114612bf1576040519150601f19603f3d011682016040523d82523d5f602084013e612bf6565b606091505b5050905080612c18576040516312171d8360e31b815260040160405180910390fd5b826001600160a01b03167ffc7ad544ff6a06d6499925723d25b6fe70457a42939995b1d3d6f560fe33633383604051612c5391815260200190565b60405180910390a25050610ec360015f80516020613ab583398151915255565b805f805f8381526003602081905260409091205460ff1690811115612c9a57612c9a613604565b14612cb8576040516338961af360e21b815260040160405180910390fd5b5f83815260026020908152604080832060039092529091206001820154600160a01b900464ffffffffff16421115612d0357604051632fc209f360e01b815260040160405180910390fd5b60018201546001600160801b03163414612d3057604051635425860560e01b815260040160405180910390fd5b60018201548154600160901b90910461ffff9081166101009092041610612d6a5760405163b3ed896d60e01b815260040160405180910390fd5b5f85815260056020908152604080832033845290915290205460ff1615612da457604051630ea075bf60e21b815260040160405180910390fd5b5f858152600560209081526040808320338085529083528184208054600160ff1991821681179092558a865260078552838620928652919093529220805490921681179091558154610100900461ffff16908290612e01836136ee565b825461ffff91821661010093840a908102908302199091161790925583545f8981526009602090815260408083203384529091529020805461ffff19169290910490921617905550805434908290600390612e6e9084906001600160801b03630100000090910416613a94565b825461010092830a6001600160801b0381810219909216929091160217909155825460405191900461ffff16815233915086907f25164ae805171d79971e8e315eecb40061020c9346f40135903680f7270646469060200160405180910390a35050505050565b612edd61312d565b6001600160a01b038116612f0b57604051631e4fbdf760e01b81525f60048201526024015b60405180910390fd5b610ec381613174565b612f1c613159565b6001600160a01b038116612f435760405163d92e233d60e01b815260040160405180910390fd5b335f908152600b602052604081205490819003612f73576040516303fbecdf60e51b815260040160405180910390fd5b335f908152600b6020526040808220829055516001600160a01b0384169083908381818185875af1925050503d805f8114612fc9576040519150601f19603f3d011682016040523d82523d5f602084013e612fce565b606091505b5050905080612ff0576040516312171d8360e31b815260040160405180910390fd5b6040518281526001600160a01b0384169033907f1d9bd648787e565657449bd337e6ebf44646582a0a8eac81d051b198bf2ff49f9060200160405180910390a35050610ec360015f80516020613ab583398151915255565b6040805160e0810182525f80825260208201819052918101829052606081018290526080810182905260a0810182905260c08101919091525f82815260036020819052604091829020825160e0810190935280549091839160ff16908111156130b3576130b3613604565b60038111156130c4576130c4613604565b81528154610100810461ffff166020830152630100000090046001600160801b0316604082015260018201546001600160a01b0390811660608301526002830154811660808301526003830154811660a083015260049092015490911660c09091015292915050565b5f546001600160a01b03163314611bfe5760405163118cdaa760e01b8152336004820152602401612f02565b6131616131c3565b60025f80516020613ab583398151915255565b5f80546001600160a01b038381166001600160a01b0319831681178455604051919092169283917f8be0079c531659141344cd1fd0a4f28419497f9722a3daafe3b4186f6b6457e09190a35050565b5f80516020613ab583398151915254600203611bfe57604051633ee5aeb560e01b815260040160405180910390fd5b80356001600160a01b0381168114613208575f80fd5b919050565b5f805f6060848603121561321f575f80fd5b8335925061322f602085016131f2565b915061323d604085016131f2565b90509250925092565b5f60208284031215613256575f80fd5b5035919050565b602080825282518282018190525f919060409081850190868401855b828110156132a8578151805163ffffffff90811686529087015116868501529284019290850190600101613279565b5091979650505050505050565b5f602082840312156132c5575f80fd5b813561ffff811681146132d6575f80fd5b9392505050565b5f80604083850312156132ee575f80fd5b823591506132fe602084016131f2565b90509250929050565b5f805f60408486031215613319575f80fd5b833567ffffffffffffffff80821115613330575f80fd5b908501906102008288031215613344575f80fd5b90935060208501359080821115613359575f80fd5b818601915086601f83011261336c575f80fd5b81358181111561337a575f80fd5b8760208260061b850101111561338e575f80fd5b6020830194508093505050509250925092565b5f602082840312156133b1575f80fd5b6132d6826131f2565b5f805f805f60a086880312156133ce575f80fd5b853594506133de602087016131f2565b93506133ec604087016131f2565b92506133fa606087016131f2565b9150613408608087016131f2565b90509295509295909350565b5f81518084525f5b818110156134385760208185018101518683018201520161341c565b505f602082860101526020601f19601f83011685010191505092915050565b602081525f8251610260806020850152613475610280850183613414565b9150602085015161349160408601826001600160801b03169052565b50604085015161ffff8116606086015250606085015161ffff8116608086015250608085015164ffffffffff811660a08601525060a085015164ffffffffff811660c08601525060c085015163ffffffff811660e08601525060e08501516101006135048187018364ffffffffff169052565b8601519050610120613520868201836001600160a01b03169052565b86015190506101406135368682018360030b9052565b860151905061016061354c8682018360030b9052565b86015190506101806135628682018360030b9052565b86015190506101a06135788682018360030b9052565b86015190506101c061358f8682018361ffff169052565b86015190506101e06135a68682018361ffff169052565b86015190506102006135bd8682018361ffff169052565b86015190506102206135d48682018361ffff169052565b86015190506102406135eb8682018361ffff169052565b909501516001600160801b031693019290925250919050565b634e487b7160e01b5f52602160045260245ffd5b815160e08201906004811061363b57634e487b7160e01b5f52602160045260245ffd5b8083525061ffff6020840151166020830152604083015161366760408401826001600160801b03169052565b50606083015161368260608401826001600160a01b03169052565b50608083015161369d60808401826001600160a01b03169052565b5060a08301516136b860a08401826001600160a01b03169052565b5060c08301516136d360c08401826001600160a01b03169052565b5092915050565b634e487b7160e01b5f52601160045260245ffd5b5f61ffff808316818103613704576137046136da565b6001019392505050565b80820180821115611dc357611dc36136da565b5f808335601e19843603018112613736575f80fd5b83018035915067ffffffffffffffff821115613750575f80fd5b602001915036819003821315613764575f80fd5b9250929050565b5f6020828403121561377b575f80fd5b813564ffffffffff811681146132d6575f80fd5b63ffffffff81168114610ec3575f80fd5b5f602082840312156137b0575f80fd5b81356132d68161378f565b634e487b7160e01b5f52603260045260245ffd5b81810381811115611dc357611dc36136da565b5f600182016137f3576137f36136da565b5060010190565b5f6020828403121561380a575f80fd5b81356001600160801b03811681146132d6575f80fd5b5f60208284031215613830575f80fd5b81358060030b81146132d6575f80fd5b634e487b7160e01b5f52604160045260245ffd5b600181811c9082168061386857607f821691505b60208210810361388657634e487b7160e01b5f52602260045260245ffd5b50919050565b601f8211156138d357805f5260205f20601f840160051c810160208510156138b15750805b601f840160051c820191505b818110156138d0575f81556001016138bd565b50505b505050565b815167ffffffffffffffff8111156138f2576138f2613840565b613906816139008454613854565b8461388c565b602080601f831160018114613939575f84156139225750858301515b5f19600386901b1c1916600185901b178555613990565b5f85815260208120601f198616915b8281101561396757888601518255948401946001909101908401613948565b508582101561398457878501515f19600388901b60f8161c191681555b505060018460011b0185555b505050505050565b81356139a38161378f565b63ffffffff8116905081548163ffffffff19821617835560208401356139c88161378f565b67ffffffff000000008160201b168367ffffffffffffffff198416171784555050505050565b60e081528760e08201525f610100898b828501375f838b018201526001600160801b03988916602084015296909716604082015261ffff9485166060820152929093166080830152600390810b60a08301529190910b60c0820152601f909301601f191690920190910192915050565b8082028115828204841417611dc357611dc36136da565b5f82613a8f57634e487b7160e01b5f52601260045260245ffd5b500490565b6001600160801b038181168382160190808211156136d3576136d36136da56fe9b779b17422d0df92223018b32b4d1fa46e071723d6817e2486d003becc55f00a264697066735822122050715dc79d7c7d15695bdf5c5eb6edf2ffe48ecd6b1622a5614ab7f604cbd10e64736f6c63430008180033","linkReferences":{}},"methodIdentifiers":{"BPS_TOTAL()":"2bbc59db","MAX_PLATFORM_FEE_BPS()":"8d01513c","MAX_PLAYERS()":"4411b3eb","MAX_TITLE_LENGTH()":"2ef9a160","addOperator(address)":"9870d7fe","claimPrize(uint256)":"d7098154","claimRefund(uint256)":"5b7baf64","createGame((string,uint128,uint16,uint16,uint40,uint40,uint32,int32,int32,int32,int32,uint16,uint16,uint16,uint16,uint16),(uint32,uint32)[])":"6566ac93","creatorFeesAccrued(address)":"c748713e","eliminatePlayer(uint256,address)":"650ccc31","endGame(uint256,address,address,address,address)":"818d465d","getClaimableAmount(uint256,address)":"78c5195e","getGameConfig(uint256)":"ce44b06e","getGameState(uint256)":"ffde0c74","getPlayerInfo(uint256,address)":"3ccd10e9","getZoneShrinks(uint256)":"346613af","hasClaimed(uint256,address)":"873f6f9e","isAlive(uint256,address)":"f927c9ea","isOperator(address)":"6d70f7ae","isRegistered(uint256,address)":"b81f6e18","killCount(uint256,address)":"b0df7ad3","nextGameId()":"b135bbb0","owner()":"8da5cb5b","platformFeeBps()":"22dcd13e","platformFeesAccrued()":"22163b86","playerNumber(uint256,address)":"d64821d6","recordKill(uint256,address,address)":"25ee2686","register(uint256)":"f207564e","removeOperator(address)":"ac8a584a","renounceOwnership()":"715018a6","setPlatformFeeBps(uint16)":"3bc1f7b3","startGame(uint256)":"e5ed1d59","transferOwnership(address)":"f2fde38b","triggerCancellation(uint256)":"35e257bc","triggerExpiry(uint256)":"ae61b1e7","withdrawCreatorFees(address)":"f4c5cdca","withdrawPlatformFees(address)":"ec3889b5"},"id":23}