{"abi":[{"type":"constructor","inputs":[{"name":"_platformFeeBps","type":"uint16","internalType":"uint16"}],"stateMutability":"nonpayable"},{"type":"function","name":"BPS_TOTAL","inputs":[],"outputs":[{"name":"","type":"uint256","internalType":"uint256"}],"stateMutability":"view"},{"type":"function","name":"MAX_PLATFORM_FEE_BPS","inputs":[],"outputs":[{"name":"","type":"uint16","internalType":"uint16"}],"stateMutability":"view"},{"type":"function","name":"MAX_PLAYERS","inputs":[],"outputs":[{"name":"","type":"uint16","internalType":"uint16"}],"stateMutability":"view"},{"type":"function","name":"MAX_TITLE_LENGTH","inputs":[],"outputs":[{"name":"","type":"uint256","internalType":"uint256"}],"stateMutability":"view"},{"type":"function","name":"addOperator","inputs":[{"name":"op","type":"address","internalType":"address"}],"outputs":[],"stateMutability":"nonpayable"},{"type":"function","name":"claimPrize","inputs":[{"name":"gameId","type":"uint256","internalType":"uint256"}],"outputs":[],"stateMutability":"nonpayable"},{"type":"function","name":"claimRefund","inputs":[{"name":"gameId","type":"uint256","internalType":"uint256"}],"outputs":[],"stateMutability":"nonpayable"},{"type":"function","name":"createGame","inputs":[{"name":"params","type":"tuple","internalType":"struct IChainAssassin.CreateGameParams","components":[{"name":"title","type":"string","internalType":"string"},{"name":"entryFee","type":"uint128","internalType":"uint128"},{"name":"minPlayers","type":"uint16","internalType":"uint16"},{"name":"maxPlayers","type":"uint16","internalType":"uint16"},{"name":"registrationDeadline","type":"uint40","internalType":"uint40"},{"name":"gameDate","type":"uint40","internalType":"uint40"},{"name":"maxDuration","type":"uint32","internalType":"uint32"},{"name":"centerLat","type":"int32","internalType":"int32"},{"name":"centerLng","type":"int32","internalType":"int32"},{"name":"meetingLat","type":"int32","internalType":"int32"},{"name":"meetingLng","type":"int32","internalType":"int32"},{"name":"bps1st","type":"uint16","internalType":"uint16"},{"name":"bps2nd","type":"uint16","internalType":"uint16"},{"name":"bps3rd","type":"uint16","internalType":"uint16"},{"name":"bpsKills","type":"uint16","internalType":"uint16"},{"name":"bpsCreator","type":"uint16","internalType":"uint16"}]},{"name":"shrinks","type":"tuple[]","internalType":"struct IChainAssassin.ZoneShrink[]","components":[{"name":"atSecond","type":"uint32","internalType":"uint32"},{"name":"radiusMeters","type":"uint32","internalType":"uint32"}]}],"outputs":[{"name":"gameId","type":"uint256","internalType":"uint256"}],"stateMutability":"payable"},{"type":"function","name":"creatorFeesAccrued","inputs":[{"name":"","type":"address","internalType":"address"}],"outputs":[{"name":"","type":"uint256","internalType":"uint256"}],"stateMutability":"view"},{"type":"function","name":"eliminatePlayer","inputs":[{"name":"gameId","type":"uint256","internalType":"uint256"},{"name":"pNum","type":"uint16","internalType":"uint16"}],"outputs":[],"stateMutability":"nonpayable"},{"type":"function","name":"endGame","inputs":[{"name":"gameId","type":"uint256","internalType":"uint256"},{"name":"winner1","type":"uint16","internalType":"uint16"},{"name":"winner2","type":"uint16","internalType":"uint16"},{"name":"winner3","type":"uint16","internalType":"uint16"},{"name":"topKiller","type":"uint16","internalType":"uint16"}],"outputs":[],"stateMutability":"nonpayable"},{"type":"function","name":"getClaimableAmount","inputs":[{"name":"gameId","type":"uint256","internalType":"uint256"},{"name":"player","type":"address","internalType":"address"}],"outputs":[{"name":"","type":"uint256","internalType":"uint256"}],"stateMutability":"view"},{"type":"function","name":"getGameConfig","inputs":[{"name":"gameId","type":"uint256","internalType":"uint256"}],"outputs":[{"name":"","type":"tuple","internalType":"struct IChainAssassin.GameConfig","components":[{"name":"title","type":"string","internalType":"string"},{"name":"entryFee","type":"uint128","internalType":"uint128"},{"name":"minPlayers","type":"uint16","internalType":"uint16"},{"name":"maxPlayers","type":"uint16","internalType":"uint16"},{"name":"registrationDeadline","type":"uint40","internalType":"uint40"},{"name":"gameDate","type":"uint40","internalType":"uint40"},{"name":"maxDuration","type":"uint32","internalType":"uint32"},{"name":"createdAt","type":"uint40","internalType":"uint40"},{"name":"creator","type":"address","internalType":"address"},{"name":"centerLat","type":"int32","internalType":"int32"},{"name":"centerLng","type":"int32","internalType":"int32"},{"name":"meetingLat","type":"int32","internalType":"int32"},{"name":"meetingLng","type":"int32","internalType":"int32"},{"name":"bps1st","type":"uint16","internalType":"uint16"},{"name":"bps2nd","type":"uint16","internalType":"uint16"},{"name":"bps3rd","type":"uint16","internalType":"uint16"},{"name":"bpsKills","type":"uint16","internalType":"uint16"},{"name":"bpsCreator","type":"uint16","internalType":"uint16"},{"name":"baseReward","type":"uint128","internalType":"uint128"}]}],"stateMutability":"view"},{"type":"function","name":"getGameState","inputs":[{"name":"gameId","type":"uint256","internalType":"uint256"}],"outputs":[{"name":"","type":"tuple","internalType":"struct IChainAssassin.GameState","components":[{"name":"phase","type":"uint8","internalType":"enum IChainAssassin.GamePhase"},{"name":"playerCount","type":"uint16","internalType":"uint16"},{"name":"totalCollected","type":"uint128","internalType":"uint128"},{"name":"winner1","type":"uint16","internalType":"uint16"},{"name":"winner2","type":"uint16","internalType":"uint16"},{"name":"winner3","type":"uint16","internalType":"uint16"},{"name":"topKiller","type":"uint16","internalType":"uint16"}]}],"stateMutability":"view"},{"type":"function","name":"getPlayer","inputs":[{"name":"gameId","type":"uint256","internalType":"uint256"},{"name":"pNum","type":"uint16","internalType":"uint16"}],"outputs":[{"name":"","type":"tuple","internalType":"struct IChainAssassin.PlayerState","components":[{"name":"addr","type":"address","internalType":"address"},{"name":"killedAt","type":"uint40","internalType":"uint40"},{"name":"claimed","type":"bool","internalType":"bool"},{"name":"killCount","type":"uint16","internalType":"uint16"}]}],"stateMutability":"view"},{"type":"function","name":"getPlayerInfo","inputs":[{"name":"gameId","type":"uint256","internalType":"uint256"},{"name":"player","type":"address","internalType":"address"}],"outputs":[{"name":"registered","type":"bool","internalType":"bool"},{"name":"killedAt","type":"uint40","internalType":"uint40"},{"name":"kills","type":"uint16","internalType":"uint16"},{"name":"claimed","type":"bool","internalType":"bool"},{"name":"number","type":"uint16","internalType":"uint16"}],"stateMutability":"view"},{"type":"function","name":"getZoneShrinks","inputs":[{"name":"gameId","type":"uint256","internalType":"uint256"}],"outputs":[{"name":"","type":"tuple[]","internalType":"struct IChainAssassin.ZoneShrink[]","components":[{"name":"atSecond","type":"uint32","internalType":"uint32"},{"name":"radiusMeters","type":"uint32","internalType":"uint32"}]}],"stateMutability":"view"},{"type":"function","name":"isOperator","inputs":[{"name":"","type":"address","internalType":"address"}],"outputs":[{"name":"","type":"bool","internalType":"bool"}],"stateMutability":"view"},{"type":"function","name":"nextGameId","inputs":[],"outputs":[{"name":"","type":"uint256","internalType":"uint256"}],"stateMutability":"view"},{"type":"function","name":"owner","inputs":[],"outputs":[{"name":"","type":"address","internalType":"address"}],"stateMutability":"view"},{"type":"function","name":"platformFeeBps","inputs":[],"outputs":[{"name":"","type":"uint16","internalType":"uint16"}],"stateMutability":"view"},{"type":"function","name":"platformFeesAccrued","inputs":[],"outputs":[{"name":"","type":"uint256","internalType":"uint256"}],"stateMutability":"view"},{"type":"function","name":"playerNumber","inputs":[{"name":"","type":"uint256","internalType":"uint256"},{"name":"","type":"address","internalType":"address"}],"outputs":[{"name":"","type":"uint16","internalType":"uint16"}],"stateMutability":"view"},{"type":"function","name":"players","inputs":[{"name":"","type":"uint256","internalType":"uint256"},{"name":"","type":"uint16","internalType":"uint16"}],"outputs":[{"name":"addr","type":"address","internalType":"address"},{"name":"killedAt","type":"uint40","internalType":"uint40"},{"name":"claimed","type":"bool","internalType":"bool"},{"name":"killCount","type":"uint16","internalType":"uint16"}],"stateMutability":"view"},{"type":"function","name":"recordKill","inputs":[{"name":"gameId","type":"uint256","internalType":"uint256"},{"name":"hunter","type":"uint16","internalType":"uint16"},{"name":"target","type":"uint16","internalType":"uint16"}],"outputs":[],"stateMutability":"nonpayable"},{"type":"function","name":"register","inputs":[{"name":"gameId","type":"uint256","internalType":"uint256"}],"outputs":[],"stateMutability":"payable"},{"type":"function","name":"removeOperator","inputs":[{"name":"op","type":"address","internalType":"address"}],"outputs":[],"stateMutability":"nonpayable"},{"type":"function","name":"renounceOwnership","inputs":[],"outputs":[],"stateMutability":"nonpayable"},{"type":"function","name":"setPlatformFeeBps","inputs":[{"name":"newBps","type":"uint16","internalType":"uint16"}],"outputs":[],"stateMutability":"nonpayable"},{"type":"function","name":"startGame","inputs":[{"name":"gameId","type":"uint256","internalType":"uint256"}],"outputs":[],"stateMutability":"nonpayable"},{"type":"function","name":"transferOwnership","inputs":[{"name":"newOwner","type":"address","internalType":"address"}],"outputs":[],"stateMutability":"nonpayable"},{"type":"function","name":"triggerCancellation","inputs":[{"name":"gameId","type":"uint256","internalType":"uint256"}],"outputs":[],"stateMutability":"nonpayable"},{"type":"function","name":"triggerExpiry","inputs":[{"name":"gameId","type":"uint256","internalType":"uint256"}],"outputs":[],"stateMutability":"nonpayable"},{"type":"function","name":"withdrawCreatorFees","inputs":[{"name":"to","type":"address","internalType":"address"}],"outputs":[],"stateMutability":"nonpayable"},{"type":"function","name":"withdrawPlatformFees","inputs":[{"name":"to","type":"address","internalType":"address"}],"outputs":[],"stateMutability":"nonpayable"},{"type":"event","name":"CreatorFeesWithdrawn","inputs":[{"name":"creator","type":"address","indexed":true,"internalType":"address"},{"name":"to","type":"address","indexed":true,"internalType":"address"},{"name":"amount","type":"uint256","indexed":false,"internalType":"uint256"}],"anonymous":false},{"type":"event","name":"GameCancelled","inputs":[{"name":"gameId","type":"uint256","indexed":true,"internalType":"uint256"}],"anonymous":false},{"type":"event","name":"GameCreated","inputs":[{"name":"gameId","type":"uint256","indexed":true,"internalType":"uint256"},{"name":"title","type":"string","indexed":false,"internalType":"string"},{"name":"entryFee","type":"uint128","indexed":false,"internalType":"uint128"},{"name":"baseReward","type":"uint128","indexed":false,"internalType":"uint128"},{"name":"minPlayers","type":"uint16","indexed":false,"internalType":"uint16"},{"name":"maxPlayers","type":"uint16","indexed":false,"internalType":"uint16"},{"name":"centerLat","type":"int32","indexed":false,"internalType":"int32"},{"name":"centerLng","type":"int32","indexed":false,"internalType":"int32"}],"anonymous":false},{"type":"event","name":"GameEnded","inputs":[{"name":"gameId","type":"uint256","indexed":true,"internalType":"uint256"},{"name":"winner1","type":"uint16","indexed":false,"internalType":"uint16"},{"name":"winner2","type":"uint16","indexed":false,"internalType":"uint16"},{"name":"winner3","type":"uint16","indexed":false,"internalType":"uint16"},{"name":"topKiller","type":"uint16","indexed":false,"internalType":"uint16"}],"anonymous":false},{"type":"event","name":"GameStarted","inputs":[{"name":"gameId","type":"uint256","indexed":true,"internalType":"uint256"},{"name":"playerCount","type":"uint16","indexed":false,"internalType":"uint16"}],"anonymous":false},{"type":"event","name":"KillRecorded","inputs":[{"name":"gameId","type":"uint256","indexed":true,"internalType":"uint256"},{"name":"hunter","type":"uint16","indexed":true,"internalType":"uint16"},{"name":"target","type":"uint16","indexed":true,"internalType":"uint16"}],"anonymous":false},{"type":"event","name":"OperatorAdded","inputs":[{"name":"operator","type":"address","indexed":true,"internalType":"address"}],"anonymous":false},{"type":"event","name":"OperatorRemoved","inputs":[{"name":"operator","type":"address","indexed":true,"internalType":"address"}],"anonymous":false},{"type":"event","name":"OwnershipTransferred","inputs":[{"name":"previousOwner","type":"address","indexed":true,"internalType":"address"},{"name":"newOwner","type":"address","indexed":true,"internalType":"address"}],"anonymous":false},{"type":"event","name":"PlatformFeeBpsUpdated","inputs":[{"name":"oldBps","type":"uint16","indexed":false,"internalType":"uint16"},{"name":"newBps","type":"uint16","indexed":false,"internalType":"uint16"}],"anonymous":false},{"type":"event","name":"PlatformFeesWithdrawn","inputs":[{"name":"to","type":"address","indexed":true,"internalType":"address"},{"name":"amount","type":"uint256","indexed":false,"internalType":"uint256"}],"anonymous":false},{"type":"event","name":"PlayerEliminated","inputs":[{"name":"gameId","type":"uint256","indexed":true,"internalType":"uint256"},{"name":"playerNumber","type":"uint16","indexed":true,"internalType":"uint16"},{"name":"eliminator","type":"uint16","indexed":true,"internalType":"uint16"}],"anonymous":false},{"type":"event","name":"PlayerRegistered","inputs":[{"name":"gameId","type":"uint256","indexed":true,"internalType":"uint256"},{"name":"playerNumber","type":"uint16","indexed":true,"internalType":"uint16"}],"anonymous":false},{"type":"event","name":"PrizeClaimed","inputs":[{"name":"gameId","type":"uint256","indexed":true,"internalType":"uint256"},{"name":"playerNumber","type":"uint16","indexed":true,"internalType":"uint16"},{"name":"amount","type":"uint256","indexed":false,"internalType":"uint256"}],"anonymous":false},{"type":"event","name":"RefundClaimed","inputs":[{"name":"gameId","type":"uint256","indexed":true,"internalType":"uint256"},{"name":"playerNumber","type":"uint16","indexed":true,"internalType":"uint16"},{"name":"amount","type":"uint256","indexed":false,"internalType":"uint256"}],"anonymous":false},{"type":"error","name":"AlreadyClaimed","inputs":[]},{"type":"error","name":"AlreadyRegistered","inputs":[]},{"type":"error","name":"BpsSumNot10000","inputs":[]},{"type":"error","name":"CannotSelfKill","inputs":[]},{"type":"error","name":"DeadlineInPast","inputs":[]},{"type":"error","name":"DeadlineNotPassed","inputs":[]},{"type":"error","name":"EnoughPlayers","inputs":[]},{"type":"error","name":"FirstShrinkMustBeZero","inputs":[]},{"type":"error","name":"GameDateNotAfterDeadline","inputs":[]},{"type":"error","name":"GameDateNotReached","inputs":[]},{"type":"error","name":"GameFull","inputs":[]},{"type":"error","name":"GameNotFound","inputs":[]},{"type":"error","name":"HunterNotAlive","inputs":[]},{"type":"error","name":"HunterNotRegistered","inputs":[]},{"type":"error","name":"MaxDurationZero","inputs":[]},{"type":"error","name":"MaxLessThanMin","inputs":[]},{"type":"error","name":"MaxPlayersTooHigh","inputs":[]},{"type":"error","name":"MaxPlayersTooLow","inputs":[]},{"type":"error","name":"MinPlayersLessThanPrizeSlots","inputs":[]},{"type":"error","name":"MinPlayersTooLow","inputs":[]},{"type":"error","name":"Need2ndIf3rdSet","inputs":[]},{"type":"error","name":"NeedFirstPrize","inputs":[]},{"type":"error","name":"NoFees","inputs":[]},{"type":"error","name":"NoPrize","inputs":[]},{"type":"error","name":"NoShrinkSchedule","inputs":[]},{"type":"error","name":"NotEnoughPlayers","inputs":[]},{"type":"error","name":"NotExpiredYet","inputs":[]},{"type":"error","name":"NotOperator","inputs":[]},{"type":"error","name":"OwnableInvalidOwner","inputs":[{"name":"owner","type":"address","internalType":"address"}]},{"type":"error","name":"OwnableUnauthorizedAccount","inputs":[{"name":"account","type":"address","internalType":"address"}]},{"type":"error","name":"PlatformFeeTooHigh","inputs":[]},{"type":"error","name":"PlayerNotAlive","inputs":[]},{"type":"error","name":"PlayerNotRegistered","inputs":[]},{"type":"error","name":"RadiiNotDecreasing","inputs":[]},{"type":"error","name":"ReentrancyGuardReentrantCall","inputs":[]},{"type":"error","name":"RegistrationClosed","inputs":[]},{"type":"error","name":"ShrinksNotOrdered","inputs":[]},{"type":"error","name":"TargetNotAlive","inputs":[]},{"type":"error","name":"TargetNotRegistered","inputs":[]},{"type":"error","name":"TitleTooLong","inputs":[]},{"type":"error","name":"TopKillerNotRegistered","inputs":[]},{"type":"error","name":"TopKillerZeroAddress","inputs":[]},{"type":"error","name":"TransferFailed","inputs":[]},{"type":"error","name":"UnusedTopKillerNotZero","inputs":[]},{"type":"error","name":"UnusedWinnerNotZero","inputs":[]},{"type":"error","name":"WinnerNotRegistered","inputs":[]},{"type":"error","name":"WinnerZeroAddress","inputs":[]},{"type":"error","name":"WinnersNotUnique","inputs":[]},{"type":"error","name":"WrongEntryFee","inputs":[]},{"type":"error","name":"WrongPhase","inputs":[]},{"type":"error","name":"ZeroAddress","inputs":[]}],"bytecode":{"object":"0x6080346200014457601f6200314938819003918201601f191683019291906001600160401b038411838510176200014857816020928492604096875283398101031262000144575161ffff8116809103620001445733156200012d575f8054336001600160a01b031982168117835584519290916001600160a01b0316907f8be0079c531659141344cd1fd0a4f28419497f9722a3daafe3b4186f6b6457e09080a360017f9b779b17422d0df92223018b32b4d1fa46e071723d6817e2486d003becc55f0055600180556107d082116200011e575081817fd9fc5daadee0abb3bdf1761ce02c9dcafb18c2f3cbedf986abf9c7efeb95bf529261ffff1960095416176009558151905f82526020820152a151612fec90816200015d8239f35b63d086646b60e01b8152600490fd5b8151631e4fbdf760e01b81525f6004820152602490fd5b5f80fd5b634e487b7160e01b5f52604160045260245ffdfe610160806040526004361015610013575f80fd5b5f3560e01c90816322163b8614612aeb5750806322dcd13e14612aca5780632bbc59db14612aae5780632ecd6bab1461298d5780632ef9a16014612971578063346613af1461288957806335e257bc146127695780633bc1f7b3146126e25780633ccd10e914612688578063428978b8146124815780634411b3eb1461246557806347d84c0f1461202e5780635b7baf6414611f1b5780636566ac93146111f95780636a10b0a1146111875780636d70f7ae1461114a578063715018a6146110f357806378c5195e146110c557806389f1bebc146110065780638d01513c14610fea5780638da5cb5b14610fc35780639870d7fe14610f56578063ac8a584a14610f2b578063ae61b1e714610dfc578063b135bbb014610ddf578063c748713e14610da7578063ce44b06e146109ed578063d64821d6146109a5578063d709815414610865578063e5ed1d591461073c578063ec3889b5146106a0578063f207564e1461041f578063f2fde38b14610395578063f4c5cdca146102b65763ffde0c741461019e575f80fd5b346102b25760203660031901126102b2575f60c06040516101be81612b70565b8281528260208201528260408201528260608201528260808201528260a082015201526004355f52600360205260405f20604051906101fc82612b70565b5460ff811690600482101561029e5780838360e0955261ffff928382816020819501818560081c1681526001600160801b0360408401818760181c168152836060860193818960981c1685528160c06080890198828c60a81c168a528260a082019c60b81c168c52019b60c81c168b526040519c8d52511660208c0152511660408a01525116606088015251166080860152511660a0840152511660c0820152f35b634e487b7160e01b5f52602160045260245ffd5b5f80fd5b346102b25760203660031901126102b2576102cf612b3d565b6102d7612f67565b6001600160a01b03811690811561038357335f52600860205260405f2054908115610371575f808084819433835260086020528260408120555af161031a612c98565b501561035f576040519081527f1d9bd648787e565657449bd337e6ebf44646582a0a8eac81d051b198bf2ff49f60203392a360015f80516020612f9783398151915255005b6040516312171d8360e31b8152600490fd5b6040516303fbecdf60e51b8152600490fd5b60405163d92e233d60e01b8152600490fd5b346102b25760203660031901126102b2576103ae612b3d565b6103b6612f3c565b6001600160a01b03908116908115610407575f54826bffffffffffffffffffffffff60a01b8216175f55167f8be0079c531659141344cd1fd0a4f28419497f9722a3daafe3b4186f6b6457e05f80a3005b604051631e4fbdf760e01b81525f6004820152602490fd5b6020806003193601126102b25760043580158015610694575b61068257805f526003825260ff60405f205416600481101561029e5761067057805f526002825260405f2060038352600160405f2091015464ffffffffff90818160a01c16421161065e576001600160801b0391828216340361064c5761ffff8080865460081c169360901c1683101561063a57855f526006875260405f20335f5287528060405f205416610628576104ee6104d66105af94612c49565b865462ffff00191660089190911b62ffff0016178655565b80855460081c1696865f526006815260405f20335f52815260405f208861ffff198254161790556040519261052284612b8c565b3384525f8285018181526040808701838152606088018481528c8552600587528285208e865290965292209551865491516001600160c81b03199092166001600160a01b039190911617921660a01b64ffffffffff60a01b16919091178455518354915162ffffff60c81b1990921690151560c81b60ff60c81b1617911660d01b61ffff60d01b16179055565b80341681835460181c160190811161061457815472ffffffffffffffffffffffffffffffff000000191660189190911b6301000000600160981b03161790557febe3e9915faa635a8fef02bf11d31dab756f666069a571d42f13758ed733697b5f80a3005b634e487b7160e01b5f52601160045260245ffd5b604051630ea075bf60e21b8152600490fd5b60405163b3ed896d60e01b8152600490fd5b604051635425860560e01b8152600490fd5b604051632fc209f360e01b8152600490fd5b6040516338961af360e21b8152600490fd5b6040516309b3c62760e21b8152600490fd5b50600154811015610438565b346102b25760203660031901126102b2576106b9612b3d565b6106c1612f3c565b6106c9612f67565b6001600160a01b03811690811561038357600754908115610371575f8080848194826007555af16106f8612c98565b501561035f5760207ffc7ad544ff6a06d6499925723d25b6fe70457a42939995b1d3d6f560fe33633391604051908152a260015f80516020612f9783398151915255005b346102b2576020806003193601126102b25760043590335f52600a815260ff60405f2054161580610851575b61083f5781158015610833575b61068257815f526003815260ff60405f205416600481101561029e5761067057815f526003815260405f209060028152600160405f2001549164ffffffffff8360c81c1642106108215780549261ffff809160801c16818560081c161061080f5760017f04ed0b3845c85d64b6c40fcdf35d6bde85beaf870057dffacd9b44ca6cf869819460ff1916178092556040519160081c168152a2005b60405163f770074360e01b8152600490fd5b6040516338912be360e01b8152600490fd5b50600154821015610775565b604051631f0853c160e21b8152600490fd5b505f546001600160a01b0316331415610768565b346102b2576020806003193601126102b257600435610882612f67565b80158015610999575b61068257805f526003825260ff60405f205416600481101561029e5760020361067057805f526006825260405f20335f52825261ffff60405f20541691821561098757815f526005815260405f20835f52815260405f209081549160ff8360c81c16610975576108fb3385612d96565b9283156109635760ff60c81b1916600160c81b1790555f80808085335af1610921612c98565b501561035f577f6bddcf26c37035967d6a991adc17e347f50956eea63b9aae1c6c7026ef8790a291604051908152a360015f80516020612f9783398151915255005b60405163273b4b7760e01b8152600490fd5b604051630c8d9eab60e31b8152600490fd5b604051630deba79360e21b8152600490fd5b5060015481101561088b565b346102b25760403660031901126102b2576109be612b27565b6004355f52600660205260405f209060018060a01b03165f52602052602061ffff60405f205416604051908152f35b346102b25760203660031901126102b2575f610240604051610a0e81612b53565b606081528260208201528260408201528260608201528260808201528260a08201528260c08201528260e08201528261010082015282610120820152826101408201528261016082015282610180820152826101a0820152826101c0820152826101e0820152826102008201528261022082015201526004355f52600260205260405f2060405190610a9f82612b53565b6040515f8254610aae81612d5e565b8084529060018116908115610d855750600114610d4b575b509181610adf6004936001600160801b03950382612ba8565b845264ffffffffff6001820154848116602087015261ffff8160801c16604087015261ffff8160901c166060870152818160a01c16608087015260c81c1660a0850152600281015463ffffffff811660c086015264ffffffffff8160201c1660e086015260018060a01b039060481c1661010085015261ffff60038201548060030b6101208701528060201c60030b6101408701528060401c60030b6101608701528060601c60030b610180870152818160801c166101a0870152818160901c166101c0870152818160a01c166101e0870152818160b01c1661020087015260c01c166102208501520154166102408201526040519060208252818151916102606020830152825192836102808401525f5b848110610d32575050916001600160801b036102406102a0945f86858701015282602082015116604086015261ffff604082015116606086015261ffff606082015116608086015264ffffffffff60808201511660a086015264ffffffffff60a08201511660c086015263ffffffff60c08201511660e086015264ffffffffff60e08201511661010086015260018060a01b036101008201511661012086015261012081015160030b61014086015261014081015160030b61016086015261016081015160030b61018086015261018081015160030b6101a086015261ffff6101a0820151166101c086015261ffff6101c0820151166101e086015261ffff6101e08201511661020086015261ffff6102008201511661022086015261ffff6102208201511682860152015116610260830152601f80199101168101030190f35b60208282018101516102a0888401015286945001610bf1565b5f848152602081209092505b818310610d6b575050810160200181610ac6565b600181602092949394548385880101520191019190610d57565b60ff191660208086019190915291151560051b84019091019150829050610ac6565b346102b25760203660031901126102b2576001600160a01b03610dc8612b3d565b165f526008602052602060405f2054604051908152f35b346102b2575f3660031901126102b2576020600154604051908152f35b346102b25760203660031901126102b25760043580158015610f1f575b61068257805f52600360205260ff60405f205416600481101561029e5760018114159081610f15575b5061067057805f52600260205260405f2064ffffffffff600182015460c81c1690610e79600282019263ffffffff84541690612bca565b421115610f035760046001600160801b0391845f52600360205260405f20600360ff198254161790550154169081610ed3575b827f681705fdbd93dba3b679fd712577e9a86d57c5551c520f8c74857deb57f9623f5f80a2005b5460481c6001600160a01b03165f90815260086020526040902080549091610efa91612bca565b90558180610eac565b60405163a8058ea960e01b8152600490fd5b9050151582610e42565b50600154811015610e19565b346102b25760203660031901126102b257610f54610f47612b3d565b610f4f612f3c565b612eea565b005b346102b25760203660031901126102b257610f6f612b3d565b610f77612f3c565b6001600160a01b0316801561038357805f52600a60205260405f20600160ff198254161790557fac6fa858e9350a46cec16539926e0fde25b7629f84b5a72bffaae4df888ae86d5f80a2005b346102b2575f3660031901126102b2575f546040516001600160a01b039091168152602090f35b346102b2575f3660031901126102b25760206040516107d08152f35b346102b25760403660031901126102b2576080611021612b05565b5f606060405161103081612b8c565b82815282602082015282604082015201526004355f52600560205260405f2061ffff8092165f5260205260405f20906040519161106c83612b8c565b5460018060a01b0381169283815264ffffffffff60208201818460a01c168152846060604085019460ff8760c81c1615158652019460d01c16845260405195865251166020850152511515604084015251166060820152f35b346102b25760403660031901126102b25760206110eb6110e3612b27565b600435612d96565b604051908152f35b346102b2575f3660031901126102b25761110b612f3c565b5f80546001600160a01b0319811682556001600160a01b03167f8be0079c531659141344cd1fd0a4f28419497f9722a3daafe3b4186f6b6457e08280a3005b346102b25760203660031901126102b2576001600160a01b0361116b612b3d565b165f52600a602052602060ff60405f2054166040519015158152f35b346102b25760403660031901126102b25760806111a2612b05565b6004355f52600560205260405f2061ffff8092165f5260205260405f2054906040519160018060a01b038116835264ffffffffff8160a01c16602084015260ff8160c81c161515604084015260d01c166060820152f35b6003196040368201126102b25767ffffffffffffffff600435116102b25761020090600435360301126102b25760243567ffffffffffffffff81116102b257366023820112156102b25767ffffffffffffffff8160040135116102b257366024826004013560061b830101116102b257335f52600a60205260ff60405f2054161580611f07575b61083f57610100611295600480350180612cc7565b905011611ef557600261ffff6112af604460043501612cfa565b1610611ee357600261ffff6112c8606460043501612cfa565b1610611ed15761270f61ffff6112e2606460043501612cfa565b1611611ebf576112f6606460043501612cfa565b61ffff80611308604460043501612cfa565b16911610611ead5761131e608460043501612d09565b64ffffffffff4291161115611e9b5761133b60a460043501612d09565b64ffffffffff80611350608460043501612d09565b1691161115611e895763ffffffff61136c60c460043501612d1b565b1615611e77576127106113f36113e66113d46113c26113b061ffff61139661016460043501612cfa565b1661ffff6113a961018460043501612cfa565b1690612bca565b61ffff6113a96101a460043501612cfa565b61ffff6113a96101c460043501612cfa565b61ffff6113a96101e460043501612cfa565b61ffff6009541690612bca565b03611e655761ffff61140a61016460043501612cfa565b1615611e535761ffff6114226101a460043501612cfa565b16151580611e39575b611e2757600161ffff61144361018460043501612cfa565b16611e1f575b61ffff61145b6101a460043501612cfa565b16611e17575b61ffff80611473604460043501612cfa565b9216911610611e0557806004013515611df35763ffffffff61149760248301612d1b565b16611de15760015b81600401358110611d215750600154905f19821461061457600182810190556114cc600480350180612cc7565b60c0526114dd602460043501612d3c565b6114eb604460043501612cfa565b6114f9606460043501612cfa565b92611508608460043501612d09565b60805261151960a460043501612d09565b6101205261152b60c460043501612d1b565b6101405261153d60e460043501612d50565b9061154d61010460043501612d50565b61155c61012460043501612d50565b61156b61014460043501612d50565b9061157b61016460043501612cfa565b9261158b61018460043501612cfa565b9561159b6101a460043501612cfa565b986115ab6101c460043501612cfa565b60a0526115bd6101e460043501612cfa565b60e052604051610100526115d361010051612b53565b6115de60c051612c7c565b9a6115ec6040519c8d612ba8565b60c0518c523660c0518901116102b25761ffff809c9a6001600160801b03829c94839b95849660c0519060208301375f602060c05183010152610100515216602061010051015216604061010051015216606061010051015264ffffffffff60805116608061010051015264ffffffffff610120511660a061010051015263ffffffff610140511660c061010051015264ffffffffff421660e0610100510152336101008051015260030b61012061010051015260030b61014061010051015260030b61016061010051015260030b610180610100510152166101a0610100510152166101c0610100510152166101e061010051015261ffff60a0511661020061010051015261ffff60e051166102206101005101526001600160801b033416610240610100510152815f52600260205260405f2091610100515192835167ffffffffffffffff8111611c58576117438254612d5e565b601f8111611ce0575b506020601f8211600114611c7757819060049495965f92611c6c575b50508160011b915f199060031b1c19161781555b61010051602081015160018301805460409093015161ffff60801b60809190911b166001600160801b039092166001600160901b031990931692909217179055610100516060015160018201805461ffff60901b191660909290921b61ffff60901b16919091179055610100516080015160018201805464ffffffffff60a01b191660a09290921b64ffffffffff60a01b16919091179055610100805160a081015160018401805464ffffffffff60c81b191660c89290921b64ffffffffff60c81b1691909117905560c081015160028401805460e0840151948401516001600160e81b031990911663ffffffff93841617602095861b68ffffffffff00000000161760489190911b6901000000000000000000600160e81b03161790556101208201516003850180546101408501516101608601516101808701516101a0909701516001600160901b0319909316949095169390931767ffffffff000000009390961b929092169490941760409290921b6bffffffff0000000000000000169190911763ffffffff60601b60609390931b929092169190911760809190911b61ffff60801b16179055610100516101c0015160038201805461ffff60901b191660909290921b61ffff60901b169190911790556101e0610100510151600382015461ffff60b01b61020061010051015160b01b169061ffff60c01b61022061010051015160c01b169261ffff60a01b9060a01b169065ffffffffffff60a01b19161717176003820155016001600160801b03610240610100510151166001600160801b03198254161790556040516119d481612b70565b5f81525f60208201526001600160801b03341660408201525f60608201525f60808201525f60a08201525f60c0820152815f52600360205260405f20815191600483101561029e578154602082015160408301516060840151608085015160a086015160c09096015160b89690961b61ffff60b81b1660a89190911b61ffff60a81b1660989290921b61ffff60981b1660189390931b6301000000600160981b031662ffff0060089590951b9490941660ff989098166001600160d81b031990951694909417969096179190911717939093179290921760c89290921b61ffff60c81b169190911790555f5b82600401358110611bb957602082807f62b7a00b0dc49ec11aa6a2b490734eef71187c817dea0522f63e2af42442775b610100611b01600480350180612cc7565b919082611b12602460043501612d3c565b611b20604460043501612cfa565b61ffff611b31606460043501612cfa565b81611b4060e460043501612d50565b936001600160801b03611b5861010460043501612d50565b966040519b8c9a60e08c528160e08d01528c8c01375f8a8a018c0152168e890152346001600160801b03166040890152166060870152166080850152600390810b60a08501520b60c0830152601f01601f19168101030190a2604051908152f35b815f52600460205260405f2090611bd881856004013560248701612d2c565b825468010000000000000000811015611c585760018101808555811015611c44576001935f5260205f20019063ffffffff611c1282612d1b565b1667ffffffff00000000611c2a602085549401612d1b565b60201b169167ffffffffffffffff19161717905501611ac0565b634e487b7160e01b5f52603260045260245ffd5b634e487b7160e01b5f52604160045260245ffd5b015190508680611768565b825f5260205f20955f5b601f1984168110611cc857509582916004959697600194601f19811610611cb0575b505050811b01815561177c565b01515f1960f88460031b161c19169055868080611ca3565b82820151885560019097019660209283019201611c81565b825f5260205f20601f830160051c810160208410611d1a575b601f830160051c82018110611d0f57505061174c565b5f8155600101611cf9565b5080611cf9565b611d3b611d3682846004013560248601612d2c565b612d1b565b815f198101116106145763ffffffff80611d63611d365f198601600488013560248901612d2c565b1691161115611dcc57611d896020611d8383856004013560248701612d2c565b01612d1b565b63ffffffff80611da96020611d835f198701600489013560248a01612d2c565b1691161015611dba5760010161149f565b60405163bc94e95d60e01b8152600490fd5b6040516001625718cd60e01b03198152600490fd5b604051637357b33560e01b8152600490fd5b6040516387b16d3960e01b8152600490fd5b604051632ac14d1d60e21b8152600490fd5b506003611461565b506002611449565b6040516305e61c6160e11b8152600490fd5b5061ffff611e4c61018460043501612cfa565b161561142b565b6040516326e4d8e760e21b8152600490fd5b604051636ece8dd360e01b8152600490fd5b604051633eaa532d60e01b8152600490fd5b604051632ecd47cf60e01b8152600490fd5b60405163017d800b60e71b8152600490fd5b60405163eb37e90160e01b8152600490fd5b6040516333cb6de560e01b8152600490fd5b604051633ba43c0560e21b8152600490fd5b60405163556105d160e11b8152600490fd5b6040516324a25c5760e01b8152600490fd5b505f546001600160a01b0316331415611280565b346102b2576020806003193601126102b257600435611f38612f67565b80158015612022575b61068257805f526003825260ff60405f205416600481101561029e5760030361067057805f526006825260405f20335f52825261ffff60405f20541691821561098757815f526005815260405f20835f52815260405f209081549160ff8360c81c1661097557835f52600282526001600160801b03600160405f2001541692600160c81b9060ff60c81b19161790555f80808085335af1611fe0612c98565b501561035f577f0917e184be16d2ef5f545bae1ece8d7701beb9fcd71c6c48c8a34eeb9a7623ad91604051908152a360015f80516020612f9783398151915255005b50600154811015611f41565b346102b25760a03660031901126102b25760043561204a612b05565b612052612b16565b6064359161ffff8084168085036102b25760843593828516928386036102b257335f52602091600a835260ff60405f2054161580612451575b61083f5788158015612445575b61068257885f526003835260ff60405f205416600481101561029e5760010361067057885f526002835260405f20958281169687156123fb575f8b81526005865260408082208a835287529020546001600160a01b039a908b16156123e957600382019a8b54868160901c1615155f1461242b5786861680156123fb578e5f526005895260405f20815f5289528260405f205416156123e9578b146123cc575b60a081901c87161561240d5788156123fb578d5f526005885260405f20895f5288528160405f205416156123e9578a891480156123de575b6123cc5786905b60b01c161561237057881561235e578c5f526005875260405f20895f5287528060405f2054161561234c577fe0a09336bb0772299bd3d00a249176e0a94e4796fe80fe727d02a92fa40948819b6001600160801b036122e9958f60809e6122466122e49760038e612262955b5f90815291905260409020805460ff61ffff60981b01191660989690961b61ffff60981b16959095176002178555845461ffff60a81b191660a88d901b61ffff60a81b16178555845461ffff60b81b191660b89190911b61ffff60b81b16178455565b825461ffff60c81b191660c89190911b61ffff60c81b16178255565b5460181c16905491612710886122bf8f61229f84612287858a6122af951c1689612c5c565b0485612298868b60901c168a612c5c565b0490612bca565b84612298858a60a01c1689612c5c565b83612298848960b01c1688612c5c565b9460c01c168015612343576122d49084612c5c565b04945b8561231d575b5050612c6f565b612c6f565b80612308575b50604051958652169084015260408301526060820152a2005b61231490600754612bca565b600755896122ef565b6002015460481c165f526008885260405f2061233a858254612bca565b90558e806122dd565b50505f946122d7565b60405163e5065a5160e01b8152600490fd5b604051632738e7bf60e21b8152600490fd5b886123ba577fe0a09336bb0772299bd3d00a249176e0a94e4796fe80fe727d02a92fa40948819b6001600160801b036122e9958f60809e6122466122e49760038e612262956121e3565b604051639e4d22ef60e01b8152600490fd5b6040516370c4bf3560e01b8152600490fd5b508686168914612170565b604051630a866adb60e01b8152600490fd5b604051633541411b60e01b8152600490fd5b88612419578690612177565b60405163ec17252360e01b8152600490fd5b868616156121385760405163ec17252360e01b8152600490fd5b50600154891015612098565b505f546001600160a01b031633141561208b565b346102b2575f3660031901126102b257602060405161270f8152f35b346102b25760603660031901126102b25760043561249d612b05565b6124a5612b16565b91335f52602091600a835260ff60405f2054161580612674575b61083f5781158015612668575b61068257815f526003835260ff60405f205416600481101561029e576001036106705761ffff80911693841561265657811692831561264457825f526005815260405f20855f52815260405f2090835f526005815260405f2090855f525260405f209080549260018060a01b039182851615612656578354928316156126445764ffffffffff92838660a01c166126325760a01c83166126205786881461260e5761258161259d926125c19660d01c16612c49565b815461ffff60d01b191660d09190911b61ffff60d01b16179055565b815464ffffffffff60a01b1916429190911660a01b64ffffffffff60a01b16179055565b8183827fa5278f8711c8a1165cde022d26dde51fb5eb185bfb4a2941e98de35864119a5a5f80a47f6032cc0a26326928716b55b304c0e3f6b584534a42c4bc0a92fcaf8caf44539c5f80a4005b6040516317b98eb360e01b8152600490fd5b60405163063cfc8b60e01b8152600490fd5b60405163d5784a3760e01b8152600490fd5b60405163693dc3f160e11b8152600490fd5b60405163d4ab835d60e01b8152600490fd5b506001548210156124cc565b505f546001600160a01b03163314156124bf565b346102b25760403660031901126102b25760a064ffffffffff6126b46126ac612b27565b600435612bd7565b926040959192949551951515865216602085015261ffff809316604085015215156060840152166080820152f35b346102b25760203660031901126102b25760043561ffff908181168091036102b25761270c612f3c565b6107d08111612757577fd9fc5daadee0abb3bdf1761ce02c9dcafb18c2f3cbedf986abf9c7efeb95bf5291604091600954918161ffff198416176009558351921682526020820152a1005b60405163d086646b60e01b8152600490fd5b346102b25760203660031901126102b2576004358015801561287d575b61068257805f52600360205260ff60405f205416600481101561029e5761067057805f52600260205260405f20600360205260405f20600182015464ffffffffff8160a01c1642111561286b5781549061ffff809160801c16908260081c1610156128595760ff1916600317905560048101546001600160801b0316908161282f57827f681705fdbd93dba3b679fd712577e9a86d57c5551c520f8c74857deb57f9623f5f80a2005b6002015460481c6001600160a01b03165f90815260086020526040902080549091610efa91612bca565b604051638984cbd960e01b8152600490fd5b6040516302eb354360e41b8152600490fd5b50600154811015612786565b346102b2576020806003193601126102b2576004355f526004815260405f2090815467ffffffffffffffff808211611c5857604051916128ce848260051b0184612ba8565b8083528383019182955f52845f20925f905b83821061293457604080518881528751818a018190528a928201908a5f5b82811061290b5784840385f35b8551805163ffffffff9081168652908301511684830152948101946040909301926001016128fe565b6040516040810181811085821117611c5857604052855463ffffffff808216835290891c16888201528152600194850194919091019086016128e0565b346102b2575f3660031901126102b25760206040516101008152f35b346102b25760403660031901126102b2576004356129a9612b05565b335f52600a60205260ff60405f2054161580612a9a575b61083f5781158015612a8e575b61068257815f52600360205260ff60405f205416600481101561029e576001036106705761ffff16801561098757815f52600560205260405f20815f5260205260405f2091825460018060a01b038116156109875764ffffffffff809160a01c16612a7c57835464ffffffffff60a01b19164290911660a01b64ffffffffff60a01b16179092555f917f6032cc0a26326928716b55b304c0e3f6b584534a42c4bc0a92fcaf8caf44539c8380a4005b604051637b7d0a4160e11b8152600490fd5b506001548210156129cd565b505f546001600160a01b03163314156129c0565b346102b2575f3660031901126102b25760206040516127108152f35b346102b2575f3660031901126102b257602061ffff60095416604051908152f35b346102b2575f3660031901126102b2576020906007548152f35b6024359061ffff821682036102b257565b6044359061ffff821682036102b257565b602435906001600160a01b03821682036102b257565b600435906001600160a01b03821682036102b257565b610260810190811067ffffffffffffffff821117611c5857604052565b60e0810190811067ffffffffffffffff821117611c5857604052565b6080810190811067ffffffffffffffff821117611c5857604052565b90601f8019910116810190811067ffffffffffffffff821117611c5857604052565b9190820180921161061457565b90815f52600660205260405f209060018060a01b03165f5260205261ffff908160405f205416908115612c3a575f52600560205260405f20815f5260205260405f20549060019360ff64ffffffffff8460a01c16948460d01c169360c81c169190565b5050505f905f905f905f905f90565b61ffff8091169081146106145760010190565b8181029291811591840414171561061457565b9190820391821161061457565b67ffffffffffffffff8111611c5857601f01601f191660200190565b3d15612cc2573d90612ca982612c7c565b91612cb76040519384612ba8565b82523d5f602084013e565b606090565b903590601e19813603018212156102b2570180359067ffffffffffffffff82116102b2576020019181360383136102b257565b3561ffff811681036102b25790565b3564ffffffffff811681036102b25790565b3563ffffffff811681036102b25790565b9190811015611c445760061b0190565b356001600160801b03811681036102b25790565b358060030b81036102b25790565b90600182811c92168015612d8c575b6020831014612d7857565b634e487b7160e01b5f52602260045260245ffd5b91607f1691612d6d565b805f52602090600382526040805f20549360ff8516600481101561029e57600203612ee157825f5260068452815f209060018060a01b03165f52835261ffff9182825f205416938415612ed757815f5260058152825f20855f52815260ff835f205460c81c16612ed7576002915f52525f206001600160801b038460181c16925f94838160981c168214612eb8575b838160a81c168214612e97575b838160b81c168214612e73575b60c81c831614612e50575b50505090565b612e6b939261271092600361229893015460b01c1690612c5c565b5f8080612e4a565b94612e8f849161271061229884600388015460a01c1689612c5c565b959050612e3f565b94612eb29061271061229886600387015460901c1688612c5c565b94612e32565b9450612710612ed084600385015460801c1686612c5c565b0494612e25565b5050505050505f90565b50505050505f90565b6001600160a01b03165f818152600a60205260409020805460ff811615612f375760ff191690557f80c0b871b97b595b16a7741c1b06fed0c6f6f558639f18ccbce50724325dc40d5f80a2565b505050565b5f546001600160a01b03163303612f4f57565b60405163118cdaa760e01b8152336004820152602490fd5b5f80516020612f978339815191526002815414612f845760029055565b604051633ee5aeb560e01b8152600490fdfe9b779b17422d0df92223018b32b4d1fa46e071723d6817e2486d003becc55f00a26469706673582212203ad1885391d5bb72ec4d0c31268724e3a742e88c95fb139798fe38aea42f3bb664736f6c63430008180033","linkReferences":{}},"methodIdentifiers":{"BPS_TOTAL()":"2bbc59db","MAX_PLATFORM_FEE_BPS()":"8d01513c","MAX_PLAYERS()":"4411b3eb","MAX_TITLE_LENGTH()":"2ef9a160","addOperator(address)":"9870d7fe","claimPrize(uint256)":"d7098154","claimRefund(uint256)":"5b7baf64","createGame((string,uint128,uint16,uint16,uint40,uint40,uint32,int32,int32,int32,int32,uint16,uint16,uint16,uint16,uint16),(uint32,uint32)[])":"6566ac93","creatorFeesAccrued(address)":"c748713e","eliminatePlayer(uint256,uint16)":"2ecd6bab","endGame(uint256,uint16,uint16,uint16,uint16)":"47d84c0f","getClaimableAmount(uint256,address)":"78c5195e","getGameConfig(uint256)":"ce44b06e","getGameState(uint256)":"ffde0c74","getPlayer(uint256,uint16)":"89f1bebc","getPlayerInfo(uint256,address)":"3ccd10e9","getZoneShrinks(uint256)":"346613af","isOperator(address)":"6d70f7ae","nextGameId()":"b135bbb0","owner()":"8da5cb5b","platformFeeBps()":"22dcd13e","platformFeesAccrued()":"22163b86","playerNumber(uint256,address)":"d64821d6","players(uint256,uint16)":"6a10b0a1","recordKill(uint256,uint16,uint16)":"428978b8","register(uint256)":"f207564e","removeOperator(address)":"ac8a584a","renounceOwnership()":"715018a6","setPlatformFeeBps(uint16)":"3bc1f7b3","startGame(uint256)":"e5ed1d59","transferOwnership(address)":"f2fde38b","triggerCancellation(uint256)":"35e257bc","triggerExpiry(uint256)":"ae61b1e7","withdrawCreatorFees(address)":"f4c5cdca","withdrawPlatformFees(address)":"ec3889b5"},"id":27}